{
  "_format": "hh-sol-artifact-1",
  "contractName": "Atom",
  "sourceName": "contracts/shared/atom/Atom.sol",
  "abi": [
    {
      "inputs": [],
      "stateMutability": "nonpayable",
      "type": "constructor"
    },
    {
      "inputs": [],
      "name": "InvalidInitialization",
      "type": "error"
    },
    {
      "inputs": [],
      "name": "NotInitializing",
      "type": "error"
    },
    {
      "anonymous": false,
      "inputs": [
        {
          "indexed": false,
          "internalType": "uint64",
          "name": "version",
          "type": "uint64"
        }
      ],
      "name": "Initialized",
      "type": "event"
    },
    {
      "inputs": [],
      "name": "execute",
      "outputs": [],
      "stateMutability": "nonpayable",
      "type": "function"
    },
    {
      "inputs": [],
      "name": "getOperationCount",
      "outputs": [
        {
          "internalType": "uint256",
          "name": "",
          "type": "uint256"
        }
      ],
      "stateMutability": "view",
      "type": "function"
    },
    {
      "inputs": [
        {
          "components": [
            {
              "internalType": "address",
              "name": "contractAddress",
              "type": "address"
            },
            {
              "internalType": "bytes",
              "name": "callData",
              "type": "bytes"
            }
          ],
          "internalType": "struct Atom.Operation[]",
          "name": "operations",
          "type": "tuple[]"
        }
      ],
      "name": "initialize",
      "outputs": [],
      "stateMutability": "nonpayable",
      "type": "function"
    }
  ],
  "bytecode": "0x608060405234801561001057600080fd5b5061001961001e565b6100d0565b7ff0c57e16840df040f15088dc2f81fe391c3923bec73e23a9662efc9c229c6a00805468010000000000000000900460ff161561006e5760405163f92ee8a960e01b815260040160405180910390fd5b80546001600160401b03908116146100cd5780546001600160401b0319166001600160401b0390811782556040519081527fc7f505b2f371ae2175ee4913f4499e1f2633a7b5936321eed1cdaeb6115181d29060200160405180910390a15b50565b61079d806100df6000396000f3fe608060405234801561001057600080fd5b50600436106100415760003560e01c806356149adf14610046578063614619541461005b578063ff1ba0f214610065575b600080fd5b60005460405190815260200160405180910390f35b610063610078565b005b6100636100733660046103f8565b6100c3565b60005b6000548110156100c0576100ae6001828154811061009b5761009b610574565b90600052602060002090600202016102fc565b806100b88161058a565b91505061007b565b50565b7ff0c57e16840df040f15088dc2f81fe391c3923bec73e23a9662efc9c229c6a00805468010000000000000000810460ff16159067ffffffffffffffff1660008115801561010e5750825b905060008267ffffffffffffffff16600114801561012b5750303b155b905081158015610139575080155b15610170576040517ff92ee8a900000000000000000000000000000000000000000000000000000000815260040160405180910390fd5b845467ffffffffffffffff1916600117855583156101a457845468ff00000000000000001916680100000000000000001785555b855160009081555b6000548110156102a857600160405180604001604052808984815181106101d5576101d5610574565b60200260200101516000015173ffffffffffffffffffffffffffffffffffffffff16815260200189848151811061020e5761020e610574565b602090810291909101810151810151909152825460018082018555600094855293829020835160029092020180547fffffffffffffffffffffffff00000000000000000000000000000000000000001673ffffffffffffffffffffffffffffffffffffffff9092169190911781559082015191929091908201906102929082610631565b50505080806102a09061058a565b9150506101ac565b5083156102f457845468ff000000000000000019168555604051600181527fc7f505b2f371ae2175ee4913f4499e1f2633a7b5936321eed1cdaeb6115181d29060200160405180910390a15b505050505050565b8054604051600091829173ffffffffffffffffffffffffffffffffffffffff9091169061032d9060018601906106f1565b6000604051808303816000865af19150503d806000811461036a576040519150601f19603f3d011682016040523d82523d6000602084013e61036f565b606091505b509150915081610383578051602082018181fd5b505050565b634e487b7160e01b600052604160045260246000fd5b6040805190810167ffffffffffffffff811182821017156103c1576103c1610388565b60405290565b604051601f8201601f1916810167ffffffffffffffff811182821017156103f0576103f0610388565b604052919050565b6000602080838503121561040b57600080fd5b823567ffffffffffffffff8082111561042357600080fd5b818501915085601f83011261043757600080fd5b81358181111561044957610449610388565b8060051b6104588582016103c7565b918252838101850191858101908984111561047257600080fd5b86860192505b83831015610567578235858111156104905760008081fd5b86016040601f19828d0381018213156104a95760008081fd5b6104b161039e565b8a84013573ffffffffffffffffffffffffffffffffffffffff811681146104d85760008081fd5b815283830135898111156104ec5760008081fd5b8085019450508d603f8501126105025760008081fd5b8a8401358981111561051657610516610388565b6105268c84601f840116016103c7565b92508083528e8c8d8388010101111561053f5760008081fd5b808486018d85013760009083018c0152808b0191909152845250509186019190860190610478565b9998505050505050505050565b634e487b7160e01b600052603260045260246000fd5b6000600182016105aa57634e487b7160e01b600052601160045260246000fd5b5060010190565b600181811c908216806105c557607f821691505b6020821081036105e557634e487b7160e01b600052602260045260246000fd5b50919050565b601f82111561038357600081815260208120601f850160051c810160208610156106125750805b601f850160051c820191505b818110156102f45782815560010161061e565b815167ffffffffffffffff81111561064b5761064b610388565b61065f8161065984546105b1565b846105eb565b602080601f831160018114610694576000841561067c5750858301515b600019600386901b1c1916600185901b1785556102f4565b600085815260208120601f198616915b828110156106c3578886015182559484019460019091019084016106a4565b50858210156106e15787850151600019600388901b60f8161c191681555b5050505050600190811b01905550565b60008083546106ff816105b1565b60018281168015610717576001811461072c5761075b565b60ff198416875282151583028701945061075b565b8760005260208060002060005b858110156107525781548a820152908401908201610739565b50505082870194505b5092969550505050505056fea2646970667358221220fa977180c7bc41519f00fdf36809e705fad2af4d9e77431b8ba6feaf3c10db0964736f6c63430008140033",
  "linkReferences": {},
  "deployedLinkReferences": {}
}