{
  "_format": "hh-sol-artifact-1",
  "contractName": "AtomFactory",
  "sourceName": "contracts/shared/atom/Atom.sol",
  "abi": [
    {
      "inputs": [],
      "stateMutability": "nonpayable",
      "type": "constructor"
    },
    {
      "anonymous": false,
      "inputs": [
        {
          "indexed": false,
          "internalType": "address",
          "name": "addr",
          "type": "address"
        }
      ],
      "name": "AtomDeployed",
      "type": "event"
    },
    {
      "inputs": [
        {
          "components": [
            {
              "internalType": "address",
              "name": "contractAddress",
              "type": "address"
            },
            {
              "internalType": "bytes",
              "name": "callData",
              "type": "bytes"
            }
          ],
          "internalType": "struct Atom.Operation[]",
          "name": "operations",
          "type": "tuple[]"
        }
      ],
      "name": "create",
      "outputs": [],
      "stateMutability": "nonpayable",
      "type": "function"
    },
    {
      "inputs": [],
      "name": "logic",
      "outputs": [
        {
          "internalType": "address",
          "name": "",
          "type": "address"
        }
      ],
      "stateMutability": "view",
      "type": "function"
    }
  ],
  "bytecode": "0x60a060405234801561001057600080fd5b5060405161001d9061004b565b604051809103906000f080158015610039573d6000803e3d6000fd5b506001600160a01b0316608052610058565b61087c806108ec83390190565b608051610873610079600039600081816055015261016101526108736000f3fe608060405234801561001057600080fd5b50600436106100365760003560e01c80630522aed11461003b578063d7dfa0dd14610050575b600080fd5b61004e610049366004610214565b6100a0565b005b6100777f000000000000000000000000000000000000000000000000000000000000000081565b60405173ffffffffffffffffffffffffffffffffffffffff909116815260200160405180910390f35b60006040518060400160405280601d81526020017f696e697469616c697a652828616464726573732c6279746573295b5d2900000081525083836040516024016100eb9291906102b2565b60408051601f198184030181529082905291610106916103ba565b60405180910390207bffffffffffffffffffffffffffffffffffffffffffffffffffffffff19166020820180517bffffffffffffffffffffffffffffffffffffffffffffffffffffffff8381831617835250505050905060007f00000000000000000000000000000000000000000000000000000000000000008260405161018d90610207565b6101989291906103d6565b604051809103906000f0801580156101b4573d6000803e3d6000fd5b5060405173ffffffffffffffffffffffffffffffffffffffff821681529091507fd18cb652f03cee75e744e334e67b0bcc6c443ff86914a9998d27b166566e57cc9060200160405180910390a150505050565b6104178061042783390190565b6000806020838503121561022757600080fd5b823567ffffffffffffffff8082111561023f57600080fd5b818501915085601f83011261025357600080fd5b81358181111561026257600080fd5b8660208260051b850101111561027757600080fd5b60209290920196919550909350505050565b81835281816020850137506000828201602090810191909152601f909101601f19169091010190565b60208082528181018390526000906040808401600586901b8501820187855b8881101561038857878303603f190184528135368b9003603e190181126102f757600080fd5b8a01803573ffffffffffffffffffffffffffffffffffffffff811680821461031e57600080fd5b8552508087013536829003601e1901811261033857600080fd5b01868101903567ffffffffffffffff81111561035357600080fd5b80360382131561036257600080fd5b86888601526103748786018284610289565b9588019594505050908501906001016102d1565b509098975050505050505050565b60005b838110156103b1578181015183820152602001610399565b50506000910152565b600082516103cc818460208701610396565b9190910192915050565b73ffffffffffffffffffffffffffffffffffffffff831681526040602082015260008251806040840152610411816060850160208701610396565b601f01601f191691909101606001939250505056fe608060405260405161041738038061041783398101604081905261002291610268565b61002c8282610033565b5050610352565b61003c82610092565b6040516001600160a01b038316907fbc7cd75a20ee27fd9adebab32041f755214dbc6bffa90cc0225b39da2e5c2d3b90600090a280511561008657610081828261010e565b505050565b61008e610185565b5050565b806001600160a01b03163b6000036100cd57604051634c9c8ce360e01b81526001600160a01b03821660048201526024015b60405180910390fd5b7f360894a13ba1a3210667c828492db98dca3e2076cc3735a920a3ca505d382bbc80546001600160a01b0319166001600160a01b0392909216919091179055565b6060600080846001600160a01b03168460405161012b9190610336565b600060405180830381855af49150503d8060008114610166576040519150601f19603f3d011682016040523d82523d6000602084013e61016b565b606091505b50909250905061017c8583836101a6565b95945050505050565b34156101a45760405163b398979f60e01b815260040160405180910390fd5b565b6060826101bb576101b682610205565b6101fe565b81511580156101d257506001600160a01b0384163b155b156101fb57604051639996b31560e01b81526001600160a01b03851660048201526024016100c4565b50805b9392505050565b8051156102155780518082602001fd5b604051630a12f52160e11b815260040160405180910390fd5b634e487b7160e01b600052604160045260246000fd5b60005b8381101561025f578181015183820152602001610247565b50506000910152565b6000806040838503121561027b57600080fd5b82516001600160a01b038116811461029257600080fd5b60208401519092506001600160401b03808211156102af57600080fd5b818501915085601f8301126102c357600080fd5b8151818111156102d5576102d561022e565b604051601f8201601f19908116603f011681019083821181831017156102fd576102fd61022e565b8160405282815288602084870101111561031657600080fd5b610327836020830160208801610244565b80955050505050509250929050565b60008251610348818460208701610244565b9190910192915050565b60b7806103606000396000f3fe6080604052600a600c565b005b60186014601a565b605e565b565b600060597f360894a13ba1a3210667c828492db98dca3e2076cc3735a920a3ca505d382bbc5473ffffffffffffffffffffffffffffffffffffffff1690565b905090565b3660008037600080366000845af43d6000803e808015607c573d6000f35b3d6000fdfea2646970667358221220059b8bb283f785bd7e8c08d214abe4019037e866aaea25d5547fc262df4be85264736f6c63430008140033a2646970667358221220430ef5135781ecc08ed3edc8ff0b6f4b79511a4cad7d612be8f2b8060a86fb2364736f6c63430008140033608060405234801561001057600080fd5b5061001961001e565b6100d0565b7ff0c57e16840df040f15088dc2f81fe391c3923bec73e23a9662efc9c229c6a00805468010000000000000000900460ff161561006e5760405163f92ee8a960e01b815260040160405180910390fd5b80546001600160401b03908116146100cd5780546001600160401b0319166001600160401b0390811782556040519081527fc7f505b2f371ae2175ee4913f4499e1f2633a7b5936321eed1cdaeb6115181d29060200160405180910390a15b50565b61079d806100df6000396000f3fe608060405234801561001057600080fd5b50600436106100415760003560e01c806356149adf14610046578063614619541461005b578063ff1ba0f214610065575b600080fd5b60005460405190815260200160405180910390f35b610063610078565b005b6100636100733660046103f8565b6100c3565b60005b6000548110156100c0576100ae6001828154811061009b5761009b610574565b90600052602060002090600202016102fc565b806100b88161058a565b91505061007b565b50565b7ff0c57e16840df040f15088dc2f81fe391c3923bec73e23a9662efc9c229c6a00805468010000000000000000810460ff16159067ffffffffffffffff1660008115801561010e5750825b905060008267ffffffffffffffff16600114801561012b5750303b155b905081158015610139575080155b15610170576040517ff92ee8a900000000000000000000000000000000000000000000000000000000815260040160405180910390fd5b845467ffffffffffffffff1916600117855583156101a457845468ff00000000000000001916680100000000000000001785555b855160009081555b6000548110156102a857600160405180604001604052808984815181106101d5576101d5610574565b60200260200101516000015173ffffffffffffffffffffffffffffffffffffffff16815260200189848151811061020e5761020e610574565b602090810291909101810151810151909152825460018082018555600094855293829020835160029092020180547fffffffffffffffffffffffff00000000000000000000000000000000000000001673ffffffffffffffffffffffffffffffffffffffff9092169190911781559082015191929091908201906102929082610631565b50505080806102a09061058a565b9150506101ac565b5083156102f457845468ff000000000000000019168555604051600181527fc7f505b2f371ae2175ee4913f4499e1f2633a7b5936321eed1cdaeb6115181d29060200160405180910390a15b505050505050565b8054604051600091829173ffffffffffffffffffffffffffffffffffffffff9091169061032d9060018601906106f1565b6000604051808303816000865af19150503d806000811461036a576040519150601f19603f3d011682016040523d82523d6000602084013e61036f565b606091505b509150915081610383578051602082018181fd5b505050565b634e487b7160e01b600052604160045260246000fd5b6040805190810167ffffffffffffffff811182821017156103c1576103c1610388565b60405290565b604051601f8201601f1916810167ffffffffffffffff811182821017156103f0576103f0610388565b604052919050565b6000602080838503121561040b57600080fd5b823567ffffffffffffffff8082111561042357600080fd5b818501915085601f83011261043757600080fd5b81358181111561044957610449610388565b8060051b6104588582016103c7565b918252838101850191858101908984111561047257600080fd5b86860192505b83831015610567578235858111156104905760008081fd5b86016040601f19828d0381018213156104a95760008081fd5b6104b161039e565b8a84013573ffffffffffffffffffffffffffffffffffffffff811681146104d85760008081fd5b815283830135898111156104ec5760008081fd5b8085019450508d603f8501126105025760008081fd5b8a8401358981111561051657610516610388565b6105268c84601f840116016103c7565b92508083528e8c8d8388010101111561053f5760008081fd5b808486018d85013760009083018c0152808b0191909152845250509186019190860190610478565b9998505050505050505050565b634e487b7160e01b600052603260045260246000fd5b6000600182016105aa57634e487b7160e01b600052601160045260246000fd5b5060010190565b600181811c908216806105c557607f821691505b6020821081036105e557634e487b7160e01b600052602260045260246000fd5b50919050565b601f82111561038357600081815260208120601f850160051c810160208610156106125750805b601f850160051c820191505b818110156102f45782815560010161061e565b815167ffffffffffffffff81111561064b5761064b610388565b61065f8161065984546105b1565b846105eb565b602080601f831160018114610694576000841561067c5750858301515b600019600386901b1c1916600185901b1785556102f4565b600085815260208120601f198616915b828110156106c3578886015182559484019460019091019084016106a4565b50858210156106e15787850151600019600388901b60f8161c191681555b5050505050600190811b01905550565b60008083546106ff816105b1565b60018281168015610717576001811461072c5761075b565b60ff198416875282151583028701945061075b565b8760005260208060002060005b858110156107525781548a820152908401908201610739565b50505082870194505b5092969550505050505056fea2646970667358221220fa977180c7bc41519f00fdf36809e705fad2af4d9e77431b8ba6feaf3c10db0964736f6c63430008140033",
  "linkReferences": {},
  "deployedLinkReferences": {}
}