{
  "_format": "hh-sol-artifact-1",
  "contractName": "NotoFactory",
  "sourceName": "contracts/domains/noto/NotoFactory.sol",
  "abi": [
    {
      "inputs": [],
      "stateMutability": "nonpayable",
      "type": "constructor"
    },
    {
      "inputs": [],
      "name": "ERC1167FailedCreateClone",
      "type": "error"
    },
    {
      "inputs": [
        {
          "internalType": "address",
          "name": "owner",
          "type": "address"
        }
      ],
      "name": "OwnableInvalidOwner",
      "type": "error"
    },
    {
      "inputs": [
        {
          "internalType": "address",
          "name": "account",
          "type": "address"
        }
      ],
      "name": "OwnableUnauthorizedAccount",
      "type": "error"
    },
    {
      "anonymous": false,
      "inputs": [
        {
          "indexed": true,
          "internalType": "address",
          "name": "previousOwner",
          "type": "address"
        },
        {
          "indexed": true,
          "internalType": "address",
          "name": "newOwner",
          "type": "address"
        }
      ],
      "name": "OwnershipTransferred",
      "type": "event"
    },
    {
      "anonymous": false,
      "inputs": [
        {
          "indexed": true,
          "internalType": "bytes32",
          "name": "txId",
          "type": "bytes32"
        },
        {
          "indexed": true,
          "internalType": "address",
          "name": "instance",
          "type": "address"
        },
        {
          "indexed": false,
          "internalType": "bytes",
          "name": "config",
          "type": "bytes"
        }
      ],
      "name": "PaladinRegisterSmartContract_V0",
      "type": "event"
    },
    {
      "inputs": [
        {
          "internalType": "bytes32",
          "name": "transactionId",
          "type": "bytes32"
        },
        {
          "internalType": "address",
          "name": "notary",
          "type": "address"
        },
        {
          "internalType": "bytes",
          "name": "config",
          "type": "bytes"
        }
      ],
      "name": "deploy",
      "outputs": [],
      "stateMutability": "nonpayable",
      "type": "function"
    },
    {
      "inputs": [
        {
          "internalType": "string",
          "name": "name",
          "type": "string"
        },
        {
          "internalType": "bytes32",
          "name": "transactionId",
          "type": "bytes32"
        },
        {
          "internalType": "address",
          "name": "notary",
          "type": "address"
        },
        {
          "internalType": "bytes",
          "name": "config",
          "type": "bytes"
        }
      ],
      "name": "deployImplementation",
      "outputs": [],
      "stateMutability": "nonpayable",
      "type": "function"
    },
    {
      "inputs": [],
      "name": "owner",
      "outputs": [
        {
          "internalType": "address",
          "name": "",
          "type": "address"
        }
      ],
      "stateMutability": "view",
      "type": "function"
    },
    {
      "inputs": [
        {
          "internalType": "string",
          "name": "name",
          "type": "string"
        },
        {
          "internalType": "address",
          "name": "implementation",
          "type": "address"
        }
      ],
      "name": "registerImplementation",
      "outputs": [],
      "stateMutability": "nonpayable",
      "type": "function"
    },
    {
      "inputs": [],
      "name": "renounceOwnership",
      "outputs": [],
      "stateMutability": "nonpayable",
      "type": "function"
    },
    {
      "inputs": [
        {
          "internalType": "address",
          "name": "newOwner",
          "type": "address"
        }
      ],
      "name": "transferOwnership",
      "outputs": [],
      "stateMutability": "nonpayable",
      "type": "function"
    }
  ],
  "bytecode": "0x608060405234801561001057600080fd5b50338061003757604051631e4fbdf760e01b81526000600482015260240160405180910390fd5b610040816100b4565b5060405161004d90610104565b604051809103906000f080158015610069573d6000803e3d6000fd5b5060405166191959985d5b1d60ca1b815260019060070190815260405190819003602001902080546001600160a01b03929092166001600160a01b0319909216919091179055610111565b600080546001600160a01b038381166001600160a01b0319831681178455604051919092169283917f8be0079c531659141344cd1fd0a4f28419497f9722a3daafe3b4186f6b6457e09190a35050565b612087806108c883390190565b6107a8806101206000396000f3fe608060405234801561001057600080fd5b50600436106100725760003560e01c806387fe19b51161005057806387fe19b5146100a75780638da5cb5b146100ba578063f2fde38b146100d957600080fd5b80632781212e146100775780635d7712dc1461008c578063715018a61461009f575b600080fd5b61008a610085366004610493565b6100ec565b005b61008a61009a3660046104ed565b610149565b61008a6101a5565b61008a6100b5366004610541565b6101b9565b600054604080516001600160a01b039092168252519081900360200190f35b61008a6100e73660046105ce565b6101d6565b6101436001604051610121907f64656661756c7400000000000000000000000000000000000000000000000000815260070190565b908152604051908190036020019020546001600160a01b031685858585610232565b50505050565b610151610305565b80600184846040516101649291906105f0565b90815260405190819003602001902080546001600160a01b039290921673ffffffffffffffffffffffffffffffffffffffff19909216919091179055505050565b6101ad610305565b6101b7600061034b565b565b6101ce600187876040516101219291906105f0565b505050505050565b6101de610305565b6001600160a01b038116610226576040517f1e4fbdf7000000000000000000000000000000000000000000000000000000008152600060048201526024015b60405180910390fd5b61022f8161034b565b50565b600061023d866103a8565b90506000816001600160a01b031663d1f578948686866040518463ffffffff1660e01b815260040161027193929190610600565b6000604051808303816000875af1158015610290573d6000803e3d6000fd5b505050506040513d6000823e601f3d908101601f191682016040526102b89190810190610692565b9050816001600160a01b0316867fd77f43af9eba6f7c0ea72f4bad6bc58c3bd49e2cb299e128c91293b7ebc17f43836040516102f4919061073f565b60405180910390a350505050505050565b6000546001600160a01b031633146101b7576040517f118cdaa700000000000000000000000000000000000000000000000000000000815233600482015260240161021d565b600080546001600160a01b0383811673ffffffffffffffffffffffffffffffffffffffff19831681178455604051919092169283917f8be0079c531659141344cd1fd0a4f28419497f9722a3daafe3b4186f6b6457e09190a35050565b6000763d602d80600a3d3981f3363d3d373d3d3d363d730000008260601b60e81c176000526e5af43d82803e903d91602b57fd5bf38260781b17602052603760096000f090506001600160a01b03811661042e576040517fc2f868f400000000000000000000000000000000000000000000000000000000815260040160405180910390fd5b919050565b80356001600160a01b038116811461042e57600080fd5b60008083601f84011261045c57600080fd5b50813567ffffffffffffffff81111561047457600080fd5b60208301915083602082850101111561048c57600080fd5b9250929050565b600080600080606085870312156104a957600080fd5b843593506104b960208601610433565b9250604085013567ffffffffffffffff8111156104d557600080fd5b6104e18782880161044a565b95989497509550505050565b60008060006040848603121561050257600080fd5b833567ffffffffffffffff81111561051957600080fd5b6105258682870161044a565b9094509250610538905060208501610433565b90509250925092565b6000806000806000806080878903121561055a57600080fd5b863567ffffffffffffffff8082111561057257600080fd5b61057e8a838b0161044a565b90985096506020890135955086915061059960408a01610433565b945060608901359150808211156105af57600080fd5b506105bc89828a0161044a565b979a9699509497509295939492505050565b6000602082840312156105e057600080fd5b6105e982610433565b9392505050565b8183823760009101908152919050565b6001600160a01b038416815260406020820152816040820152818360608301376000818301606090810191909152601f909201601f1916010192915050565b7f4e487b7100000000000000000000000000000000000000000000000000000000600052604160045260246000fd5b60005b83811015610689578181015183820152602001610671565b50506000910152565b6000602082840312156106a457600080fd5b815167ffffffffffffffff808211156106bc57600080fd5b818401915084601f8301126106d057600080fd5b8151818111156106e2576106e261063f565b604051601f8201601f19908116603f0116810190838211818310171561070a5761070a61063f565b8160405282815287602084870101111561072357600080fd5b61073483602083016020880161066e565b979650505050505050565b602081526000825180602084015261075e81604085016020870161066e565b601f01601f1916919091016040019291505056fea264697066735822122065c565ab21b09b96275fae0cc50a370e048daaa96ad6265888489338c1052ae664736f6c6343000814003360a06040523060805234801561001457600080fd5b5061001d610022565b6100d4565b7ff0c57e16840df040f15088dc2f81fe391c3923bec73e23a9662efc9c229c6a00805468010000000000000000900460ff16156100725760405163f92ee8a960e01b815260040160405180910390fd5b80546001600160401b03908116146100d15780546001600160401b0319166001600160401b0390811782556040519081527fc7f505b2f371ae2175ee4913f4499e1f2633a7b5936321eed1cdaeb6115181d29060200160405180910390a15b50565b608051611f8a6100fd60003960008181610c1d01528181610c460152610dcc0152611f8a6000f3fe6080604052600436106100d25760003560e01c80635f20994d1161007f5780639ec1d667116100595780639ec1d66714610250578063ad3cb1cc14610270578063b32c1001146102c6578063d1f57894146102e657600080fd5b80635f20994d146101b75780636e0f1298146101f757806384b0196e1461022857600080fd5b80634f1ef286116100b05780634f1ef2861461016c57806352d1902d1461017f5780635adbade7146101a257600080fd5b80630c57c6d5146100d75780631cb9a344146100f957806325ddff731461014c575b600080fd5b3480156100e357600080fd5b506100f76100f2366004611723565b610306565b005b34801561010557600080fd5b5061012f6101143660046117bd565b6000908152600160205260409020546001600160a01b031690565b6040516001600160a01b0390911681526020015b60405180910390f35b34801561015857600080fd5b506100f76101673660046117d6565b6103bf565b6100f761017a366004611942565b6104a7565b34801561018b57600080fd5b506101946104c6565b604051908152602001610143565b3480156101ae57600080fd5b50610194600081565b3480156101c357600080fd5b506101e76101d23660046117bd565b60009081526020819052604090205460ff1690565b6040519015158152602001610143565b34801561020357600080fd5b5061020f600160f01b81565b6040516001600160e01b03199091168152602001610143565b34801561023457600080fd5b5061023d6104f5565b60405161014397969594939291906119f4565b34801561025c57600080fd5b506100f761026b3660046117d6565b6105f6565b34801561027c57600080fd5b506102b96040518060400160405280600581526020017f352e302e3000000000000000000000000000000000000000000000000000000081525081565b6040516101439190611aa6565b3480156102d257600080fd5b506100f76102e1366004611ab9565b61078a565b3480156102f257600080fd5b506102b9610301366004611b13565b6107a5565b61030f336109ad565b60606103b68188888080602002602001604051908101604052809392919081815260200183836020028082843760009201919091525050604080516020601f8c018190048102820181019092528a815292508a915089908190840183828082843760009201919091525050604080516020601f8b018190048102820181019092528981529250899150889081908401838280828437600092019190915250610a0292505050565b50505050505050565b6103c8336109ad565b61049d88888080602002602001604051908101604052809392919081815260200183836020028082843760009201919091525050604080516020808c0282810182019093528b82529093508b92508a91829185019084908082843760009201919091525050604080516020601f8b01819004810282018101909252898152925089915088908190840183828082843760009201919091525050604080516020601f8a018190048102820181019092528881529250889150879081908401838280828437600092019190915250610a0292505050565b5050505050505050565b6104af610c12565b6104b882610ccb565b6104c28282610cd4565b5050565b60006104d0610dc1565b507f360894a13ba1a3210667c828492db98dca3e2076cc3735a920a3ca505d382bbc90565b600060608082808083817fa16a46d94261c7517cc8ff89f61c0ce93598e3c849801011dee649a6a557d100805490915015801561053457506001810154155b61059f576040517f08c379a000000000000000000000000000000000000000000000000000000000815260206004820152601560248201527f4549503731323a20556e696e697469616c697a6564000000000000000000000060448201526064015b60405180910390fd5b6105a7610e0a565b6105af610edf565b604080516000808252602082019092527f0f000000000000000000000000000000000000000000000000000000000000009c939b5091995046985030975095509350915050565b6000610606898989898787610f30565b6000818152600160205260409020549091506001600160a01b0316331461068257600081815260016020526040908190205490517faa3c89a1000000000000000000000000000000000000000000000000000000008152600481018390526001600160a01b039091166024820152336044820152606401610596565b61075789898080602002602001604051908101604052809392919081815260200183836020028082843760009201919091525050604080516020808d0282810182019093528c82529093508c92508b91829185019084908082843760009201919091525050604080516020601f8c018190048102820181019092528a815292508a915089908190840183828082843760009201919091525050604080516020601f8b018190048102820181019092528981529250899150889081908401838280828437600092019190915250610a0292505050565b6000908152600160205260409020805473ffffffffffffffffffffffffffffffffffffffff191690555050505050505050565b610793336109ad565b61079f84848484611011565b50505050565b7ff0c57e16840df040f15088dc2f81fe391c3923bec73e23a9662efc9c229c6a0080546060919068010000000000000000810460ff16159067ffffffffffffffff166000811580156107f45750825b905060008267ffffffffffffffff1660011480156108115750303b155b90508115801561081f575080155b15610856576040517ff92ee8a900000000000000000000000000000000000000000000000000000000815260040160405180910390fd5b845467ffffffffffffffff19166001178555831561088a57845468ff00000000000000001916680100000000000000001785555b6108fe6040518060400160405280600481526020017f6e6f746f000000000000000000000000000000000000000000000000000000008152506040518060400160405280600581526020017f302e302e3100000000000000000000000000000000000000000000000000000081525061107b565b6002805473ffffffffffffffffffffffffffffffffffffffff19166001600160a01b038b161790556000610932898961108d565b6001600160a01b038b16602082015260006040820152905061095381611179565b96505083156109a157845468ff000000000000000019168555604051600181527fc7f505b2f371ae2175ee4913f4499e1f2633a7b5936321eed1cdaeb6115181d29060200160405180910390a15b50505050509392505050565b6002546001600160a01b038281169116146109ff576040517f830743c90000000000000000000000000000000000000000000000000000000081526001600160a01b0382166004820152602401610596565b50565b60005b8451811015610ae157600080868381518110610a2357610a23611b66565b602090810291909101810151825281019190915260400160009081205460ff1615159003610a9a57848181518110610a5d57610a5d611b66565b60200260200101516040517f8b8ff76e00000000000000000000000000000000000000000000000000000000815260040161059691815260200190565b600080868381518110610aaf57610aaf611b66565b6020908102919091018101518252810191909152604001600020805460ff19169055610ada81611b7c565b9050610a05565b5060005b8351811015610bce57600080858381518110610b0357610b03611b66565b60209081029190910181015182528101919091526040016000205460ff161515600103610b7957838181518110610b3c57610b3c611b66565b60200260200101516040517ff011771d00000000000000000000000000000000000000000000000000000000815260040161059691815260200190565b6001600080868481518110610b9057610b90611b66565b6020026020010151815260200190815260200160002060006101000a81548160ff02191690831515021790555080610bc790611b7c565b9050610ae5565b507f53e38bf0f3a0479b0932edd70309f2b4a5418870bd0715384d35b84f2b61132e84848484604051610c049493929190611bde565b60405180910390a150505050565b306001600160a01b037f0000000000000000000000000000000000000000000000000000000000000000161480610cab57507f00000000000000000000000000000000000000000000000000000000000000006001600160a01b0316610c9f7f360894a13ba1a3210667c828492db98dca3e2076cc3735a920a3ca505d382bbc546001600160a01b031690565b6001600160a01b031614155b15610cc95760405163703e46dd60e11b815260040160405180910390fd5b565b6109ff336109ad565b816001600160a01b03166352d1902d6040518163ffffffff1660e01b8152600401602060405180830381865afa925050508015610d2e575060408051601f3d908101601f19168201909252610d2b91810190611c36565b60015b610d5657604051634c9c8ce360e01b81526001600160a01b0383166004820152602401610596565b7f360894a13ba1a3210667c828492db98dca3e2076cc3735a920a3ca505d382bbc8114610db2576040517faa1d49a400000000000000000000000000000000000000000000000000000000815260048101829052602401610596565b610dbc83836111dc565b505050565b306001600160a01b037f00000000000000000000000000000000000000000000000000000000000000001614610cc95760405163703e46dd60e11b815260040160405180910390fd5b7fa16a46d94261c7517cc8ff89f61c0ce93598e3c849801011dee649a6a557d10280546060917fa16a46d94261c7517cc8ff89f61c0ce93598e3c849801011dee649a6a557d10091610e5b90611c4f565b80601f0160208091040260200160405190810160405280929190818152602001828054610e8790611c4f565b8015610ed45780601f10610ea957610100808354040283529160200191610ed4565b820191906000526020600020905b815481529060010190602001808311610eb757829003601f168201915b505050505091505090565b7fa16a46d94261c7517cc8ff89f61c0ce93598e3c849801011dee649a6a557d10380546060917fa16a46d94261c7517cc8ff89f61c0ce93598e3c849801011dee649a6a557d10091610e5b90611c4f565b6000807f8680a0f190c5d2b22fc4e0a097fdfc5c206ed94420c7f3783040268c2d95571e8888604051602001610f67929190611c89565b604051602081830303815290604052805190602001208787604051602001610f90929190611c89565b604051602081830303815290604052805190602001208686604051610fb6929190611ccb565b604051908190038120610fe49493929160200193845260208401929092526040830152606082015260800190565b60405160208183030381529060405280519060200120905061100581611232565b98975050505050505050565b60008381526001602052604090819020805473ffffffffffffffffffffffffffffffffffffffff19166001600160a01b038716179055517f3e8023edc0828e357ff258cf89379d7d2f1da418d6947ec4ec84a1758e35610890610c04908690869086908690611cdb565b61108361127a565b6104c282826112e1565b60408051606080820183528152600060208201819052918101829052906110b76004828587611d21565b6110c091611d4b565b90507fffff0000000000000000000000000000000000000000000000000000000000006001600160e01b031982160161113557604080516060808201835281526000602082018190529181019190915261111d8460048188611d21565b81019061112a9190611d7b565b815291506111739050565b6040517fd401fafe0000000000000000000000000000000000000000000000000000000081526001600160e01b031982166004820152602401610596565b92915050565b6060600082600001518360200151846040015160405160200161119e93929190611dcc565b60408051601f198184030181529082905291506111c590600160f01b908390602001611dfa565b604051602081830303815290604052915050919050565b6111e582611354565b6040516001600160a01b038316907fbc7cd75a20ee27fd9adebab32041f755214dbc6bffa90cc0225b39da2e5c2d3b90600090a280511561122a57610dbc82826113d8565b6104c261144e565b600061117361123f611486565b836040517f19010000000000000000000000000000000000000000000000000000000000008152600281019290925260228201526042902090565b7ff0c57e16840df040f15088dc2f81fe391c3923bec73e23a9662efc9c229c6a005468010000000000000000900460ff16610cc9576040517fd7e6bcf800000000000000000000000000000000000000000000000000000000815260040160405180910390fd5b6112e961127a565b7fa16a46d94261c7517cc8ff89f61c0ce93598e3c849801011dee649a6a557d1007fa16a46d94261c7517cc8ff89f61c0ce93598e3c849801011dee649a6a557d1026113358482611e78565b50600381016113448382611e78565b5060008082556001909101555050565b806001600160a01b03163b60000361138a57604051634c9c8ce360e01b81526001600160a01b0382166004820152602401610596565b7f360894a13ba1a3210667c828492db98dca3e2076cc3735a920a3ca505d382bbc805473ffffffffffffffffffffffffffffffffffffffff19166001600160a01b0392909216919091179055565b6060600080846001600160a01b0316846040516113f59190611f38565b600060405180830381855af49150503d8060008114611430576040519150601f19603f3d011682016040523d82523d6000602084013e611435565b606091505b5091509150611445858383611495565b95945050505050565b3415610cc9576040517fb398979f00000000000000000000000000000000000000000000000000000000815260040160405180910390fd5b600061149061150d565b905090565b6060826114aa576114a582611581565b611506565b81511580156114c157506001600160a01b0384163b155b15611503576040517f9996b3150000000000000000000000000000000000000000000000000000000081526001600160a01b0385166004820152602401610596565b50805b9392505050565b60007f8b73c3c69bb8fe3d512ecc4cf759cc79239f7b179b0ffacaa9a75d522b39400f6115386115c3565b61154061163f565b60408051602081019490945283019190915260608201524660808201523060a082015260c00160405160208183030381529060405280519060200120905090565b8051156115915780518082602001fd5b6040517f1425ea4200000000000000000000000000000000000000000000000000000000815260040160405180910390fd5b60007fa16a46d94261c7517cc8ff89f61c0ce93598e3c849801011dee649a6a557d100816115ef610e0a565b80519091501561160757805160209091012092915050565b81548015611616579392505050565b7fc5d2460186f7233c927e7db2dcc703c0e500b653ca82273b7bfad8045d85a470935050505090565b60007fa16a46d94261c7517cc8ff89f61c0ce93598e3c849801011dee649a6a557d1008161166b610edf565b80519091501561168357805160209091012092915050565b60018201548015611616579392505050565b60008083601f8401126116a757600080fd5b50813567ffffffffffffffff8111156116bf57600080fd5b6020830191508360208260051b85010111156116da57600080fd5b9250929050565b60008083601f8401126116f357600080fd5b50813567ffffffffffffffff81111561170b57600080fd5b6020830191508360208285010111156116da57600080fd5b6000806000806000806060878903121561173c57600080fd5b863567ffffffffffffffff8082111561175457600080fd5b6117608a838b01611695565b9098509650602089013591508082111561177957600080fd5b6117858a838b016116e1565b9096509450604089013591508082111561179e57600080fd5b506117ab89828a016116e1565b979a9699509497509295939492505050565b6000602082840312156117cf57600080fd5b5035919050565b6000806000806000806000806080898b0312156117f257600080fd5b883567ffffffffffffffff8082111561180a57600080fd5b6118168c838d01611695565b909a50985060208b013591508082111561182f57600080fd5b61183b8c838d01611695565b909850965060408b013591508082111561185457600080fd5b6118608c838d016116e1565b909650945060608b013591508082111561187957600080fd5b506118868b828c016116e1565b999c989b5096995094979396929594505050565b80356001600160a01b03811681146118b157600080fd5b919050565b634e487b7160e01b600052604160045260246000fd5b600067ffffffffffffffff808411156118e7576118e76118b6565b604051601f8501601f19908116603f0116810190828211818310171561190f5761190f6118b6565b8160405280935085815286868601111561192857600080fd5b858560208301376000602087830101525050509392505050565b6000806040838503121561195557600080fd5b61195e8361189a565b9150602083013567ffffffffffffffff81111561197a57600080fd5b8301601f8101851361198b57600080fd5b61199a858235602084016118cc565b9150509250929050565b60005b838110156119bf5781810151838201526020016119a7565b50506000910152565b600081518084526119e08160208601602086016119a4565b601f01601f19169290920160200192915050565b7fff00000000000000000000000000000000000000000000000000000000000000881681526000602060e081840152611a3060e084018a6119c8565b8381036040850152611a42818a6119c8565b606085018990526001600160a01b038816608086015260a0850187905284810360c0860152855180825283870192509083019060005b81811015611a9457835183529284019291840191600101611a78565b50909c9b505050505050505050505050565b60208152600061150660208301846119c8565b60008060008060608587031215611acf57600080fd5b611ad88561189a565b935060208501359250604085013567ffffffffffffffff811115611afb57600080fd5b611b07878288016116e1565b95989497509550505050565b600080600060408486031215611b2857600080fd5b611b318461189a565b9250602084013567ffffffffffffffff811115611b4d57600080fd5b611b59868287016116e1565b9497909650939450505050565b634e487b7160e01b600052603260045260246000fd5b600060018201611b9c57634e487b7160e01b600052601160045260246000fd5b5060010190565b600081518084526020808501945080840160005b83811015611bd357815187529582019590820190600101611bb7565b509495945050505050565b608081526000611bf16080830187611ba3565b8281036020840152611c038187611ba3565b90508281036040840152611c1781866119c8565b90508281036060840152611c2b81856119c8565b979650505050505050565b600060208284031215611c4857600080fd5b5051919050565b600181811c90821680611c6357607f821691505b602082108103611c8357634e487b7160e01b600052602260045260246000fd5b50919050565b60007f07ffffffffffffffffffffffffffffffffffffffffffffffffffffffffffffff831115611cb857600080fd5b8260051b80858437919091019392505050565b8183823760009101908152919050565b6001600160a01b038516815283602082015260606040820152816060820152818360808301376000818301608090810191909152601f909201601f191601019392505050565b60008085851115611d3157600080fd5b83861115611d3e57600080fd5b5050820193919092039150565b6001600160e01b03198135818116916004851015611d735780818660040360031b1b83161692505b505092915050565b600060208284031215611d8d57600080fd5b813567ffffffffffffffff811115611da457600080fd5b8201601f81018413611db557600080fd5b611dc4848235602084016118cc565b949350505050565b606081526000611ddf60608301866119c8565b6001600160a01b039490941660208301525060400152919050565b6001600160e01b03198316815260008251611e1c8160048501602087016119a4565b919091016004019392505050565b601f821115610dbc57600081815260208120601f850160051c81016020861015611e515750805b601f850160051c820191505b81811015611e7057828155600101611e5d565b505050505050565b815167ffffffffffffffff811115611e9257611e926118b6565b611ea681611ea08454611c4f565b84611e2a565b602080601f831160018114611edb5760008415611ec35750858301515b600019600386901b1c1916600185901b178555611e70565b600085815260208120601f198616915b82811015611f0a57888601518255948401946001909101908401611eeb565b5085821015611f285787850151600019600388901b60f8161c191681555b5050505050600190811b01905550565b60008251611f4a8184602087016119a4565b919091019291505056fea2646970667358221220e75871576ab866c7bc9ede21ce79b44919cf618dbafa74e6543caad0a03cfbe664736f6c63430008140033",
  "linkReferences": {},
  "deployedLinkReferences": {}
}