{
  "_format": "hh-sol-artifact-1",
  "contractName": "NotoFactory",
  "sourceName": "contracts/domains/noto/NotoFactory.sol",
  "abi": [
    {
      "inputs": [],
      "stateMutability": "nonpayable",
      "type": "constructor"
    },
    {
      "inputs": [],
      "name": "ERC1167FailedCreateClone",
      "type": "error"
    },
    {
      "inputs": [
        {
          "internalType": "address",
          "name": "owner",
          "type": "address"
        }
      ],
      "name": "OwnableInvalidOwner",
      "type": "error"
    },
    {
      "inputs": [
        {
          "internalType": "address",
          "name": "account",
          "type": "address"
        }
      ],
      "name": "OwnableUnauthorizedAccount",
      "type": "error"
    },
    {
      "anonymous": false,
      "inputs": [
        {
          "indexed": true,
          "internalType": "address",
          "name": "previousOwner",
          "type": "address"
        },
        {
          "indexed": true,
          "internalType": "address",
          "name": "newOwner",
          "type": "address"
        }
      ],
      "name": "OwnershipTransferred",
      "type": "event"
    },
    {
      "anonymous": false,
      "inputs": [
        {
          "indexed": true,
          "internalType": "bytes32",
          "name": "txId",
          "type": "bytes32"
        },
        {
          "indexed": true,
          "internalType": "address",
          "name": "instance",
          "type": "address"
        },
        {
          "indexed": false,
          "internalType": "bytes",
          "name": "config",
          "type": "bytes"
        }
      ],
      "name": "PaladinRegisterSmartContract_V0",
      "type": "event"
    },
    {
      "inputs": [
        {
          "internalType": "bytes32",
          "name": "transactionId",
          "type": "bytes32"
        },
        {
          "internalType": "address",
          "name": "notary",
          "type": "address"
        },
        {
          "internalType": "bytes",
          "name": "config",
          "type": "bytes"
        }
      ],
      "name": "deploy",
      "outputs": [],
      "stateMutability": "nonpayable",
      "type": "function"
    },
    {
      "inputs": [
        {
          "internalType": "string",
          "name": "name",
          "type": "string"
        },
        {
          "internalType": "bytes32",
          "name": "transactionId",
          "type": "bytes32"
        },
        {
          "internalType": "address",
          "name": "notary",
          "type": "address"
        },
        {
          "internalType": "bytes",
          "name": "config",
          "type": "bytes"
        }
      ],
      "name": "deployImplementation",
      "outputs": [],
      "stateMutability": "nonpayable",
      "type": "function"
    },
    {
      "inputs": [],
      "name": "owner",
      "outputs": [
        {
          "internalType": "address",
          "name": "",
          "type": "address"
        }
      ],
      "stateMutability": "view",
      "type": "function"
    },
    {
      "inputs": [
        {
          "internalType": "string",
          "name": "name",
          "type": "string"
        },
        {
          "internalType": "address",
          "name": "implementation",
          "type": "address"
        }
      ],
      "name": "registerImplementation",
      "outputs": [],
      "stateMutability": "nonpayable",
      "type": "function"
    },
    {
      "inputs": [],
      "name": "renounceOwnership",
      "outputs": [],
      "stateMutability": "nonpayable",
      "type": "function"
    },
    {
      "inputs": [
        {
          "internalType": "address",
          "name": "newOwner",
          "type": "address"
        }
      ],
      "name": "transferOwnership",
      "outputs": [],
      "stateMutability": "nonpayable",
      "type": "function"
    }
  ],
  "bytecode": "0x608060405234801561001057600080fd5b50338061003757604051631e4fbdf760e01b81526000600482015260240160405180910390fd5b610040816100b4565b5060405161004d90610104565b604051809103906000f080158015610069573d6000803e3d6000fd5b5060405166191959985d5b1d60ca1b815260019060070190815260405190819003602001902080546001600160a01b03929092166001600160a01b0319909216919091179055610111565b600080546001600160a01b038381166001600160a01b0319831681178455604051919092169283917f8be0079c531659141344cd1fd0a4f28419497f9722a3daafe3b4186f6b6457e09190a35050565b6120d4806108c883390190565b6107a8806101206000396000f3fe608060405234801561001057600080fd5b50600436106100725760003560e01c806387fe19b51161005057806387fe19b5146100a75780638da5cb5b146100ba578063f2fde38b146100d957600080fd5b80632781212e146100775780635d7712dc1461008c578063715018a61461009f575b600080fd5b61008a610085366004610493565b6100ec565b005b61008a61009a3660046104ed565b610149565b61008a6101a5565b61008a6100b5366004610541565b6101b9565b600054604080516001600160a01b039092168252519081900360200190f35b61008a6100e73660046105ce565b6101d6565b6101436001604051610121907f64656661756c7400000000000000000000000000000000000000000000000000815260070190565b908152604051908190036020019020546001600160a01b031685858585610232565b50505050565b610151610305565b80600184846040516101649291906105f0565b90815260405190819003602001902080546001600160a01b039290921673ffffffffffffffffffffffffffffffffffffffff19909216919091179055505050565b6101ad610305565b6101b7600061034b565b565b6101ce600187876040516101219291906105f0565b505050505050565b6101de610305565b6001600160a01b038116610226576040517f1e4fbdf7000000000000000000000000000000000000000000000000000000008152600060048201526024015b60405180910390fd5b61022f8161034b565b50565b600061023d866103a8565b90506000816001600160a01b031663d1f578948686866040518463ffffffff1660e01b815260040161027193929190610600565b6000604051808303816000875af1158015610290573d6000803e3d6000fd5b505050506040513d6000823e601f3d908101601f191682016040526102b89190810190610692565b9050816001600160a01b0316867fd77f43af9eba6f7c0ea72f4bad6bc58c3bd49e2cb299e128c91293b7ebc17f43836040516102f4919061073f565b60405180910390a350505050505050565b6000546001600160a01b031633146101b7576040517f118cdaa700000000000000000000000000000000000000000000000000000000815233600482015260240161021d565b600080546001600160a01b0383811673ffffffffffffffffffffffffffffffffffffffff19831681178455604051919092169283917f8be0079c531659141344cd1fd0a4f28419497f9722a3daafe3b4186f6b6457e09190a35050565b6000763d602d80600a3d3981f3363d3d373d3d3d363d730000008260601b60e81c176000526e5af43d82803e903d91602b57fd5bf38260781b17602052603760096000f090506001600160a01b03811661042e576040517fc2f868f400000000000000000000000000000000000000000000000000000000815260040160405180910390fd5b919050565b80356001600160a01b038116811461042e57600080fd5b60008083601f84011261045c57600080fd5b50813567ffffffffffffffff81111561047457600080fd5b60208301915083602082850101111561048c57600080fd5b9250929050565b600080600080606085870312156104a957600080fd5b843593506104b960208601610433565b9250604085013567ffffffffffffffff8111156104d557600080fd5b6104e18782880161044a565b95989497509550505050565b60008060006040848603121561050257600080fd5b833567ffffffffffffffff81111561051957600080fd5b6105258682870161044a565b9094509250610538905060208501610433565b90509250925092565b6000806000806000806080878903121561055a57600080fd5b863567ffffffffffffffff8082111561057257600080fd5b61057e8a838b0161044a565b90985096506020890135955086915061059960408a01610433565b945060608901359150808211156105af57600080fd5b506105bc89828a0161044a565b979a9699509497509295939492505050565b6000602082840312156105e057600080fd5b6105e982610433565b9392505050565b8183823760009101908152919050565b6001600160a01b038416815260406020820152816040820152818360608301376000818301606090810191909152601f909201601f1916010192915050565b7f4e487b7100000000000000000000000000000000000000000000000000000000600052604160045260246000fd5b60005b83811015610689578181015183820152602001610671565b50506000910152565b6000602082840312156106a457600080fd5b815167ffffffffffffffff808211156106bc57600080fd5b818401915084601f8301126106d057600080fd5b8151818111156106e2576106e261063f565b604051601f8201601f19908116603f0116810190838211818310171561070a5761070a61063f565b8160405282815287602084870101111561072357600080fd5b61073483602083016020880161066e565b979650505050505050565b602081526000825180602084015261075e81604085016020870161066e565b601f01601f1916919091016040019291505056fea264697066735822122018e594eab41dfdea6134acd56192754af74ebeb52d5de3e7cf8899b12bf6c1a364736f6c6343000814003360a06040523060805234801561001457600080fd5b5061001d610022565b6100d4565b7ff0c57e16840df040f15088dc2f81fe391c3923bec73e23a9662efc9c229c6a00805468010000000000000000900460ff16156100725760405163f92ee8a960e01b815260040160405180910390fd5b80546001600160401b03908116146100d15780546001600160401b0319166001600160401b0390811782556040519081527fc7f505b2f371ae2175ee4913f4499e1f2633a7b5936321eed1cdaeb6115181d29060200160405180910390a15b50565b608051611fd76100fd60003960008181610c2101528181610c4a0152610dd00152611fd76000f3fe6080604052600436106100d25760003560e01c80635f20994d1161007f5780639ec1d667116100595780639ec1d66714610250578063ad3cb1cc14610270578063b8be39d7146102c6578063d1f57894146102e657600080fd5b80635f20994d146101b75780636e0f1298146101f757806384b0196e1461022857600080fd5b80634f1ef286116100b05780634f1ef2861461016c57806352d1902d1461017f5780635adbade7146101a257600080fd5b80630c57c6d5146100d75780631cb9a344146100f957806325ddff731461014c575b600080fd5b3480156100e357600080fd5b506100f76100f236600461173b565b610306565b005b34801561010557600080fd5b5061012f6101143660046117d5565b6000908152600160205260409020546001600160a01b031690565b6040516001600160a01b0390911681526020015b60405180910390f35b34801561015857600080fd5b506100f76101673660046117ee565b6103bf565b6100f761017a36600461195a565b6104a7565b34801561018b57600080fd5b506101946104c6565b604051908152602001610143565b3480156101ae57600080fd5b50610194600081565b3480156101c357600080fd5b506101e76101d23660046117d5565b60009081526020819052604090205460ff1690565b6040519015158152602001610143565b34801561020357600080fd5b5061020f600160f01b81565b6040516001600160e01b03199091168152602001610143565b34801561023457600080fd5b5061023d6104f5565b6040516101439796959493929190611a0c565b34801561025c57600080fd5b506100f761026b3660046117ee565b6105f6565b34801561027c57600080fd5b506102b96040518060400160405280600581526020017f352e302e3000000000000000000000000000000000000000000000000000000081525081565b6040516101439190611abe565b3480156102d257600080fd5b506100f76102e1366004611ad1565b61078a565b3480156102f257600080fd5b506102b9610301366004611b3c565b6107a9565b61030f336109b1565b60606103b68188888080602002602001604051908101604052809392919081815260200183836020028082843760009201919091525050604080516020601f8c018190048102820181019092528a815292508a915089908190840183828082843760009201919091525050604080516020601f8b018190048102820181019092528981529250899150889081908401838280828437600092019190915250610a0692505050565b50505050505050565b6103c8336109b1565b61049d88888080602002602001604051908101604052809392919081815260200183836020028082843760009201919091525050604080516020808c0282810182019093528b82529093508b92508a91829185019084908082843760009201919091525050604080516020601f8b01819004810282018101909252898152925089915088908190840183828082843760009201919091525050604080516020601f8a018190048102820181019092528881529250889150879081908401838280828437600092019190915250610a0692505050565b5050505050505050565b6104af610c16565b6104b882610ccf565b6104c28282610cd8565b5050565b60006104d0610dc5565b507f360894a13ba1a3210667c828492db98dca3e2076cc3735a920a3ca505d382bbc90565b600060608082808083817fa16a46d94261c7517cc8ff89f61c0ce93598e3c849801011dee649a6a557d100805490915015801561053457506001810154155b61059f576040517f08c379a000000000000000000000000000000000000000000000000000000000815260206004820152601560248201527f4549503731323a20556e696e697469616c697a6564000000000000000000000060448201526064015b60405180910390fd5b6105a7610e0e565b6105af610ee3565b604080516000808252602082019092527f0f000000000000000000000000000000000000000000000000000000000000009c939b5091995046985030975095509350915050565b6000610606898989898787610f34565b6000818152600160205260409020549091506001600160a01b0316331461068257600081815260016020526040908190205490517faa3c89a1000000000000000000000000000000000000000000000000000000008152600481018390526001600160a01b039091166024820152336044820152606401610596565b61075789898080602002602001604051908101604052809392919081815260200183836020028082843760009201919091525050604080516020808d0282810182019093528c82529093508c92508b91829185019084908082843760009201919091525050604080516020601f8c018190048102820181019092528a815292508a915089908190840183828082843760009201919091525050604080516020601f8b018190048102820181019092528981529250899150889081908401838280828437600092019190915250610a0692505050565b6000908152600160205260409020805473ffffffffffffffffffffffffffffffffffffffff191690555050505050505050565b610793336109b1565b6107a1868686868686611015565b505050505050565b7ff0c57e16840df040f15088dc2f81fe391c3923bec73e23a9662efc9c229c6a0080546060919068010000000000000000810460ff16159067ffffffffffffffff166000811580156107f85750825b905060008267ffffffffffffffff1660011480156108155750303b155b905081158015610823575080155b1561085a576040517ff92ee8a900000000000000000000000000000000000000000000000000000000815260040160405180910390fd5b845467ffffffffffffffff19166001178555831561088e57845468ff00000000000000001916680100000000000000001785555b6109026040518060400160405280600481526020017f6e6f746f000000000000000000000000000000000000000000000000000000008152506040518060400160405280600581526020017f302e302e31000000000000000000000000000000000000000000000000000000815250611093565b6002805473ffffffffffffffffffffffffffffffffffffffff19166001600160a01b038b16179055600061093689896110a5565b6001600160a01b038b16602082015260006040820152905061095781611191565b96505083156109a557845468ff000000000000000019168555604051600181527fc7f505b2f371ae2175ee4913f4499e1f2633a7b5936321eed1cdaeb6115181d29060200160405180910390a15b50505050509392505050565b6002546001600160a01b03828116911614610a03576040517f830743c90000000000000000000000000000000000000000000000000000000081526001600160a01b0382166004820152602401610596565b50565b60005b8451811015610ae557600080868381518110610a2757610a27611b8f565b602090810291909101810151825281019190915260400160009081205460ff1615159003610a9e57848181518110610a6157610a61611b8f565b60200260200101516040517f8b8ff76e00000000000000000000000000000000000000000000000000000000815260040161059691815260200190565b600080868381518110610ab357610ab3611b8f565b6020908102919091018101518252810191909152604001600020805460ff19169055610ade81611ba5565b9050610a09565b5060005b8351811015610bd257600080858381518110610b0757610b07611b8f565b60209081029190910181015182528101919091526040016000205460ff161515600103610b7d57838181518110610b4057610b40611b8f565b60200260200101516040517ff011771d00000000000000000000000000000000000000000000000000000000815260040161059691815260200190565b6001600080868481518110610b9457610b94611b8f565b6020026020010151815260200190815260200160002060006101000a81548160ff02191690831515021790555080610bcb90611ba5565b9050610ae9565b507f1f158419f9be0e2f7500ff70784bdcf23e591d40cf4a7903d900a5718156d26e84848484604051610c089493929190611c07565b60405180910390a150505050565b306001600160a01b037f0000000000000000000000000000000000000000000000000000000000000000161480610caf57507f00000000000000000000000000000000000000000000000000000000000000006001600160a01b0316610ca37f360894a13ba1a3210667c828492db98dca3e2076cc3735a920a3ca505d382bbc546001600160a01b031690565b6001600160a01b031614155b15610ccd5760405163703e46dd60e11b815260040160405180910390fd5b565b610a03336109b1565b816001600160a01b03166352d1902d6040518163ffffffff1660e01b8152600401602060405180830381865afa925050508015610d32575060408051601f3d908101601f19168201909252610d2f91810190611c5f565b60015b610d5a57604051634c9c8ce360e01b81526001600160a01b0383166004820152602401610596565b7f360894a13ba1a3210667c828492db98dca3e2076cc3735a920a3ca505d382bbc8114610db6576040517faa1d49a400000000000000000000000000000000000000000000000000000000815260048101829052602401610596565b610dc083836111f4565b505050565b306001600160a01b037f00000000000000000000000000000000000000000000000000000000000000001614610ccd5760405163703e46dd60e11b815260040160405180910390fd5b7fa16a46d94261c7517cc8ff89f61c0ce93598e3c849801011dee649a6a557d10280546060917fa16a46d94261c7517cc8ff89f61c0ce93598e3c849801011dee649a6a557d10091610e5f90611c78565b80601f0160208091040260200160405190810160405280929190818152602001828054610e8b90611c78565b8015610ed85780601f10610ead57610100808354040283529160200191610ed8565b820191906000526020600020905b815481529060010190602001808311610ebb57829003601f168201915b505050505091505090565b7fa16a46d94261c7517cc8ff89f61c0ce93598e3c849801011dee649a6a557d10380546060917fa16a46d94261c7517cc8ff89f61c0ce93598e3c849801011dee649a6a557d10091610e5f90611c78565b6000807f8680a0f190c5d2b22fc4e0a097fdfc5c206ed94420c7f3783040268c2d95571e8888604051602001610f6b929190611cb2565b604051602081830303815290604052805190602001208787604051602001610f94929190611cb2565b604051602081830303815290604052805190602001208686604051610fba929190611cf4565b604051908190038120610fe89493929160200193845260208401929092526040830152606082015260800190565b6040516020818303038152906040528051906020012090506110098161124a565b98975050505050505050565b60008581526001602052604090819020805473ffffffffffffffffffffffffffffffffffffffff19166001600160a01b038916179055517fe1d739165793e39d23932a8bbf260ff8f37a31163cb41909361420e1e4d151aa9061108390889088908890889088908890611d2d565b60405180910390a1505050505050565b61109b611292565b6104c282826112f9565b60408051606080820183528152600060208201819052918101829052906110cf6004828587611d76565b6110d891611da0565b90507fffff0000000000000000000000000000000000000000000000000000000000006001600160e01b031982160161114d5760408051606080820183528152600060208201819052918101919091526111358460048188611d76565b8101906111429190611dd0565b8152915061118b9050565b6040517fd401fafe0000000000000000000000000000000000000000000000000000000081526001600160e01b031982166004820152602401610596565b92915050565b606060008260000151836020015184604001516040516020016111b693929190611e21565b60408051601f198184030181529082905291506111dd90600160f01b908390602001611e4f565b604051602081830303815290604052915050919050565b6111fd8261136c565b6040516001600160a01b038316907fbc7cd75a20ee27fd9adebab32041f755214dbc6bffa90cc0225b39da2e5c2d3b90600090a280511561124257610dc082826113f0565b6104c2611466565b600061118b61125761149e565b836040517f19010000000000000000000000000000000000000000000000000000000000008152600281019290925260228201526042902090565b7ff0c57e16840df040f15088dc2f81fe391c3923bec73e23a9662efc9c229c6a005468010000000000000000900460ff16610ccd576040517fd7e6bcf800000000000000000000000000000000000000000000000000000000815260040160405180910390fd5b611301611292565b7fa16a46d94261c7517cc8ff89f61c0ce93598e3c849801011dee649a6a557d1007fa16a46d94261c7517cc8ff89f61c0ce93598e3c849801011dee649a6a557d10261134d8482611ec5565b506003810161135c8382611ec5565b5060008082556001909101555050565b806001600160a01b03163b6000036113a257604051634c9c8ce360e01b81526001600160a01b0382166004820152602401610596565b7f360894a13ba1a3210667c828492db98dca3e2076cc3735a920a3ca505d382bbc805473ffffffffffffffffffffffffffffffffffffffff19166001600160a01b0392909216919091179055565b6060600080846001600160a01b03168460405161140d9190611f85565b600060405180830381855af49150503d8060008114611448576040519150601f19603f3d011682016040523d82523d6000602084013e61144d565b606091505b509150915061145d8583836114ad565b95945050505050565b3415610ccd576040517fb398979f00000000000000000000000000000000000000000000000000000000815260040160405180910390fd5b60006114a8611525565b905090565b6060826114c2576114bd82611599565b61151e565b81511580156114d957506001600160a01b0384163b155b1561151b576040517f9996b3150000000000000000000000000000000000000000000000000000000081526001600160a01b0385166004820152602401610596565b50805b9392505050565b60007f8b73c3c69bb8fe3d512ecc4cf759cc79239f7b179b0ffacaa9a75d522b39400f6115506115db565b611558611657565b60408051602081019490945283019190915260608201524660808201523060a082015260c00160405160208183030381529060405280519060200120905090565b8051156115a95780518082602001fd5b6040517f1425ea4200000000000000000000000000000000000000000000000000000000815260040160405180910390fd5b60007fa16a46d94261c7517cc8ff89f61c0ce93598e3c849801011dee649a6a557d10081611607610e0e565b80519091501561161f57805160209091012092915050565b8154801561162e579392505050565b7fc5d2460186f7233c927e7db2dcc703c0e500b653ca82273b7bfad8045d85a470935050505090565b60007fa16a46d94261c7517cc8ff89f61c0ce93598e3c849801011dee649a6a557d10081611683610ee3565b80519091501561169b57805160209091012092915050565b6001820154801561162e579392505050565b60008083601f8401126116bf57600080fd5b50813567ffffffffffffffff8111156116d757600080fd5b6020830191508360208260051b85010111156116f257600080fd5b9250929050565b60008083601f84011261170b57600080fd5b50813567ffffffffffffffff81111561172357600080fd5b6020830191508360208285010111156116f257600080fd5b6000806000806000806060878903121561175457600080fd5b863567ffffffffffffffff8082111561176c57600080fd5b6117788a838b016116ad565b9098509650602089013591508082111561179157600080fd5b61179d8a838b016116f9565b909650945060408901359150808211156117b657600080fd5b506117c389828a016116f9565b979a9699509497509295939492505050565b6000602082840312156117e757600080fd5b5035919050565b6000806000806000806000806080898b03121561180a57600080fd5b883567ffffffffffffffff8082111561182257600080fd5b61182e8c838d016116ad565b909a50985060208b013591508082111561184757600080fd5b6118538c838d016116ad565b909850965060408b013591508082111561186c57600080fd5b6118788c838d016116f9565b909650945060608b013591508082111561189157600080fd5b5061189e8b828c016116f9565b999c989b5096995094979396929594505050565b80356001600160a01b03811681146118c957600080fd5b919050565b634e487b7160e01b600052604160045260246000fd5b600067ffffffffffffffff808411156118ff576118ff6118ce565b604051601f8501601f19908116603f01168101908282118183101715611927576119276118ce565b8160405280935085815286868601111561194057600080fd5b858560208301376000602087830101525050509392505050565b6000806040838503121561196d57600080fd5b611976836118b2565b9150602083013567ffffffffffffffff81111561199257600080fd5b8301601f810185136119a357600080fd5b6119b2858235602084016118e4565b9150509250929050565b60005b838110156119d75781810151838201526020016119bf565b50506000910152565b600081518084526119f88160208601602086016119bc565b601f01601f19169290920160200192915050565b7fff00000000000000000000000000000000000000000000000000000000000000881681526000602060e081840152611a4860e084018a6119e0565b8381036040850152611a5a818a6119e0565b606085018990526001600160a01b038816608086015260a0850187905284810360c0860152855180825283870192509083019060005b81811015611aac57835183529284019291840191600101611a90565b50909c9b505050505050505050505050565b60208152600061151e60208301846119e0565b60008060008060008060808789031215611aea57600080fd5b611af3876118b2565b955060208701359450604087013567ffffffffffffffff80821115611b1757600080fd5b611b238a838b016116f9565b909650945060608901359150808211156117b657600080fd5b600080600060408486031215611b5157600080fd5b611b5a846118b2565b9250602084013567ffffffffffffffff811115611b7657600080fd5b611b82868287016116f9565b9497909650939450505050565b634e487b7160e01b600052603260045260246000fd5b600060018201611bc557634e487b7160e01b600052601160045260246000fd5b5060010190565b600081518084526020808501945080840160005b83811015611bfc57815187529582019590820190600101611be0565b509495945050505050565b608081526000611c1a6080830187611bcc565b8281036020840152611c2c8187611bcc565b90508281036040840152611c4081866119e0565b90508281036060840152611c5481856119e0565b979650505050505050565b600060208284031215611c7157600080fd5b5051919050565b600181811c90821680611c8c57607f821691505b602082108103611cac57634e487b7160e01b600052602260045260246000fd5b50919050565b60007f07ffffffffffffffffffffffffffffffffffffffffffffffffffffffffffffff831115611ce157600080fd5b8260051b80858437919091019392505050565b8183823760009101908152919050565b81835281816020850137506000828201602090810191909152601f909101601f19169091010190565b6001600160a01b0387168152856020820152608060408201526000611d56608083018688611d04565b8281036060840152611d69818587611d04565b9998505050505050505050565b60008085851115611d8657600080fd5b83861115611d9357600080fd5b5050820193919092039150565b6001600160e01b03198135818116916004851015611dc85780818660040360031b1b83161692505b505092915050565b600060208284031215611de257600080fd5b813567ffffffffffffffff811115611df957600080fd5b8201601f81018413611e0a57600080fd5b611e19848235602084016118e4565b949350505050565b606081526000611e3460608301866119e0565b6001600160a01b039490941660208301525060400152919050565b6001600160e01b03198316815260008251611e718160048501602087016119bc565b919091016004019392505050565b601f821115610dc057600081815260208120601f850160051c81016020861015611ea65750805b601f850160051c820191505b818110156107a157828155600101611eb2565b815167ffffffffffffffff811115611edf57611edf6118ce565b611ef381611eed8454611c78565b84611e7f565b602080601f831160018114611f285760008415611f105750858301515b600019600386901b1c1916600185901b1785556107a1565b600085815260208120601f198616915b82811015611f5757888601518255948401946001909101908401611f38565b5085821015611f755787850151600019600388901b60f8161c191681555b5050505050600190811b01905550565b60008251611f978184602087016119bc565b919091019291505056fea26469706673582212200f30673bffa4f7d559d8a870b015ed18f0be726281640b491e61dd0ddacd190a64736f6c63430008140033",
  "linkReferences": {},
  "deployedLinkReferences": {}
}