{
  "_format": "hh-sol-artifact-1",
  "contractName": "Swap",
  "sourceName": "contracts/private/Swap.sol",
  "abi": [
    {
      "inputs": [
        {
          "components": [
            {
              "internalType": "address",
              "name": "holder1",
              "type": "address"
            },
            {
              "internalType": "address",
              "name": "holder2",
              "type": "address"
            },
            {
              "internalType": "address",
              "name": "tokenAddress1",
              "type": "address"
            },
            {
              "internalType": "address",
              "name": "tokenAddress2",
              "type": "address"
            },
            {
              "internalType": "uint256",
              "name": "tokenValue1",
              "type": "uint256"
            },
            {
              "internalType": "uint256",
              "name": "tokenValue2",
              "type": "uint256"
            },
            {
              "internalType": "string",
              "name": "tradeData1",
              "type": "string"
            },
            {
              "internalType": "string",
              "name": "tradeData2",
              "type": "string"
            }
          ],
          "internalType": "struct Swap.TradeRequestInput",
          "name": "inputData",
          "type": "tuple"
        }
      ],
      "stateMutability": "nonpayable",
      "type": "constructor"
    },
    {
      "anonymous": false,
      "inputs": [
        {
          "indexed": true,
          "internalType": "address",
          "name": "sender",
          "type": "address"
        }
      ],
      "name": "TradeCancelled",
      "type": "event"
    },
    {
      "anonymous": false,
      "inputs": [
        {
          "indexed": true,
          "internalType": "address",
          "name": "sender",
          "type": "address"
        }
      ],
      "name": "TradeExecuted",
      "type": "event"
    },
    {
      "anonymous": false,
      "inputs": [
        {
          "indexed": true,
          "internalType": "address",
          "name": "sender",
          "type": "address"
        }
      ],
      "name": "TradePrepared",
      "type": "event"
    },
    {
      "anonymous": false,
      "inputs": [
        {
          "indexed": true,
          "internalType": "address",
          "name": "operator",
          "type": "address"
        },
        {
          "indexed": true,
          "internalType": "address",
          "name": "holder1",
          "type": "address"
        },
        {
          "indexed": true,
          "internalType": "address",
          "name": "holder2",
          "type": "address"
        }
      ],
      "name": "TradeRequested",
      "type": "event"
    },
    {
      "inputs": [],
      "name": "cancel",
      "outputs": [],
      "stateMutability": "nonpayable",
      "type": "function"
    },
    {
      "inputs": [],
      "name": "execute",
      "outputs": [],
      "stateMutability": "nonpayable",
      "type": "function"
    },
    {
      "inputs": [
        {
          "components": [
            {
              "components": [
                {
                  "internalType": "bytes32",
                  "name": "id",
                  "type": "bytes32"
                },
                {
                  "internalType": "bytes32",
                  "name": "schema",
                  "type": "bytes32"
                },
                {
                  "internalType": "bytes",
                  "name": "data",
                  "type": "bytes"
                }
              ],
              "internalType": "struct Swap.FullState[]",
              "name": "inputs",
              "type": "tuple[]"
            },
            {
              "components": [
                {
                  "internalType": "bytes32",
                  "name": "id",
                  "type": "bytes32"
                },
                {
                  "internalType": "bytes32",
                  "name": "schema",
                  "type": "bytes32"
                },
                {
                  "internalType": "bytes",
                  "name": "data",
                  "type": "bytes"
                }
              ],
              "internalType": "struct Swap.FullState[]",
              "name": "outputs",
              "type": "tuple[]"
            }
          ],
          "internalType": "struct Swap.StateData",
          "name": "states",
          "type": "tuple"
        }
      ],
      "name": "prepare",
      "outputs": [],
      "stateMutability": "nonpayable",
      "type": "function"
    },
    {
      "inputs": [],
      "name": "prepared",
      "outputs": [
        {
          "internalType": "bool",
          "name": "",
          "type": "bool"
        }
      ],
      "stateMutability": "view",
      "type": "function"
    },
    {
      "inputs": [],
      "name": "trade",
      "outputs": [
        {
          "internalType": "address",
          "name": "holder1",
          "type": "address"
        },
        {
          "internalType": "address",
          "name": "holder2",
          "type": "address"
        },
        {
          "components": [
            {
              "internalType": "address",
              "name": "tokenAddress",
              "type": "address"
            },
            {
              "internalType": "uint256",
              "name": "tokenValue",
              "type": "uint256"
            },
            {
              "components": [
                {
                  "components": [
                    {
                      "internalType": "bytes32",
                      "name": "id",
                      "type": "bytes32"
                    },
                    {
                      "internalType": "bytes32",
                      "name": "schema",
                      "type": "bytes32"
                    },
                    {
                      "internalType": "bytes",
                      "name": "data",
                      "type": "bytes"
                    }
                  ],
                  "internalType": "struct Swap.FullState[]",
                  "name": "inputs",
                  "type": "tuple[]"
                },
                {
                  "components": [
                    {
                      "internalType": "bytes32",
                      "name": "id",
                      "type": "bytes32"
                    },
                    {
                      "internalType": "bytes32",
                      "name": "schema",
                      "type": "bytes32"
                    },
                    {
                      "internalType": "bytes",
                      "name": "data",
                      "type": "bytes"
                    }
                  ],
                  "internalType": "struct Swap.FullState[]",
                  "name": "outputs",
                  "type": "tuple[]"
                }
              ],
              "internalType": "struct Swap.StateData",
              "name": "states",
              "type": "tuple"
            },
            {
              "internalType": "bool",
              "name": "prepared",
              "type": "bool"
            },
            {
              "internalType": "string",
              "name": "data",
              "type": "string"
            }
          ],
          "internalType": "struct Swap.UserTradeData",
          "name": "userTradeData1",
          "type": "tuple"
        },
        {
          "components": [
            {
              "internalType": "address",
              "name": "tokenAddress",
              "type": "address"
            },
            {
              "internalType": "uint256",
              "name": "tokenValue",
              "type": "uint256"
            },
            {
              "components": [
                {
                  "components": [
                    {
                      "internalType": "bytes32",
                      "name": "id",
                      "type": "bytes32"
                    },
                    {
                      "internalType": "bytes32",
                      "name": "schema",
                      "type": "bytes32"
                    },
                    {
                      "internalType": "bytes",
                      "name": "data",
                      "type": "bytes"
                    }
                  ],
                  "internalType": "struct Swap.FullState[]",
                  "name": "inputs",
                  "type": "tuple[]"
                },
                {
                  "components": [
                    {
                      "internalType": "bytes32",
                      "name": "id",
                      "type": "bytes32"
                    },
                    {
                      "internalType": "bytes32",
                      "name": "schema",
                      "type": "bytes32"
                    },
                    {
                      "internalType": "bytes",
                      "name": "data",
                      "type": "bytes"
                    }
                  ],
                  "internalType": "struct Swap.FullState[]",
                  "name": "outputs",
                  "type": "tuple[]"
                }
              ],
              "internalType": "struct Swap.StateData",
              "name": "states",
              "type": "tuple"
            },
            {
              "internalType": "bool",
              "name": "prepared",
              "type": "bool"
            },
            {
              "internalType": "string",
              "name": "data",
              "type": "string"
            }
          ],
          "internalType": "struct Swap.UserTradeData",
          "name": "userTradeData2",
          "type": "tuple"
        },
        {
          "internalType": "enum Swap.State",
          "name": "state",
          "type": "uint8"
        }
      ],
      "stateMutability": "view",
      "type": "function"
    }
  ],
  "bytecode": "0x60806040523480156200001157600080fd5b50604051620015233803806200152383398101604081905262000034916200020a565b8051600080546001600160a01b039283166001600160a01b031991821617909155602083015160018054918416918316919091179055604083015160028054919093169116179055608081015160035560c081015160079062000098908262000395565b506060810151600880546001600160a01b0319166001600160a01b0390921691909117905560a081015160095560e0810151600d90620000d9908262000395565b5050600e805460ff1916905562000461565b634e487b7160e01b600052604160045260246000fd5b60405161010081016001600160401b0381118282101715620001275762000127620000eb565b60405290565b604051601f8201601f191681016001600160401b0381118282101715620001585762000158620000eb565b604052919050565b80516001600160a01b03811681146200017857600080fd5b919050565b600082601f8301126200018f57600080fd5b81516001600160401b03811115620001ab57620001ab620000eb565b6020620001c1601f8301601f191682016200012d565b8281528582848701011115620001d657600080fd5b60005b83811015620001f6578581018301518282018401528201620001d9565b506000928101909101919091529392505050565b6000602082840312156200021d57600080fd5b81516001600160401b03808211156200023557600080fd5b9083019061010082860312156200024b57600080fd5b6200025562000101565b620002608362000160565b8152620002706020840162000160565b6020820152620002836040840162000160565b6040820152620002966060840162000160565b60608201526080830151608082015260a083015160a082015260c083015182811115620002c257600080fd5b620002d0878286016200017d565b60c08301525060e083015182811115620002e957600080fd5b620002f7878286016200017d565b60e08301525095945050505050565b600181811c908216806200031b57607f821691505b6020821081036200033c57634e487b7160e01b600052602260045260246000fd5b50919050565b601f8211156200039057600081815260208120601f850160051c810160208610156200036b5750805b601f850160051c820191505b818110156200038c5782815560010162000377565b5050505b505050565b81516001600160401b03811115620003b157620003b1620000eb565b620003c981620003c2845462000306565b8462000342565b602080601f831160018114620004015760008415620003e85750858301515b600019600386901b1c1916600185901b1785556200038c565b600085815260208120601f198616915b82811015620004325788860151825594840194600190910190840162000411565b5085821015620004515787850151600019600388901b60f8161c191681555b5050505050600190811b01905550565b6110b280620004716000396000f3fe608060405234801561001057600080fd5b50600436106100675760003560e01c80638092db55116100505780638092db5514610098578063b18f1993146100b0578063ea8a1af0146100c357600080fd5b80631f0ba6c91461006c578063614619541461008e575b600080fd5b6100746100cb565b604051610085959493929190610b4a565b60405180910390f35b6100966106b0565b005b6100a0610755565b6040519015158152602001610085565b6100966100be366004610bb9565b610771565b610096610953565b600080546001546040805160a081018252600280546001600160a01b03908116835260035460208085019190915284516004805460609381028301840188528288018181529985169a989094169895969495948701949193909284929184918a9085015b828210156102075783829060005260206000209060030201604051806060016040529081600082015481526020016001820154815260200160028201805461017690610bfb565b80601f01602080910402602001604051908101604052809291908181526020018280546101a290610bfb565b80156101ef5780601f106101c4576101008083540402835291602001916101ef565b820191906000526020600020905b8154815290600101906020018083116101d257829003601f168201915b5050505050815250508152602001906001019061012f565b50505050815260200160018201805480602002602001604051908101604052809291908181526020016000905b8282101561030c5783829060005260206000209060030201604051806060016040529081600082015481526020016001820154815260200160028201805461027b90610bfb565b80601f01602080910402602001604051908101604052809291908181526020018280546102a790610bfb565b80156102f45780601f106102c9576101008083540402835291602001916102f4565b820191906000526020600020905b8154815290600101906020018083116102d757829003601f168201915b50505050508152505081526020019060010190610234565b505050915250508152600482015460ff161515602082015260058201805460409092019161033990610bfb565b80601f016020809104026020016040519081016040528092919081815260200182805461036590610bfb565b80156103b25780601f10610387576101008083540402835291602001916103b2565b820191906000526020600020905b81548152906001019060200180831161039557829003601f168201915b5050509190925250506040805160a0810182526008850180546001600160a01b0316825260098601546020808401919091528351600a880180546060938102830184018752828701818152989998959750939587019491939092849291849160009085015b828210156104ef5783829060005260206000209060030201604051806060016040529081600082015481526020016001820154815260200160028201805461045e90610bfb565b80601f016020809104026020016040519081016040528092919081815260200182805461048a90610bfb565b80156104d75780601f106104ac576101008083540402835291602001916104d7565b820191906000526020600020905b8154815290600101906020018083116104ba57829003601f168201915b50505050508152505081526020019060010190610417565b50505050815260200160018201805480602002602001604051908101604052809291908181526020016000905b828210156105f45783829060005260206000209060030201604051806060016040529081600082015481526020016001820154815260200160028201805461056390610bfb565b80601f016020809104026020016040519081016040528092919081815260200182805461058f90610bfb565b80156105dc5780601f106105b1576101008083540402835291602001916105dc565b820191906000526020600020905b8154815290600101906020018083116105bf57829003601f168201915b5050505050815250508152602001906001019061051c565b505050915250508152600482015460ff161515602082015260058201805460409092019161062190610bfb565b80601f016020809104026020016040519081016040528092919081815260200182805461064d90610bfb565b801561069a5780601f1061066f5761010080835404028352916020019161069a565b820191906000526020600020905b81548152906001019060200180831161067d57829003601f168201915b50505091909252505050600e9091015460ff1685565b6000600e5460ff1660028111156106c9576106c9610b34565b1461071b5760405162461bcd60e51b815260206004820152601460248201527f5472616465206973206e6f742070656e64696e6700000000000000000000000060448201526064015b60405180910390fd5b600e805460ff1916600117905560405133907f9afc18ef29745bcaa1dbe847f7b1272b52d12fd3d7527267750b6e4d821950b490600090a2565b60065460009060ff16801561076c5750600c5460ff165b905090565b6000600e5460ff16600281111561078a5761078a610b34565b146107d75760405162461bcd60e51b815260206004820152601460248201527f5472616465206973206e6f742070656e64696e670000000000000000000000006044820152606401610712565b6000546001600160a01b0316330361085e5760065460ff161561083c5760405162461bcd60e51b815260206004820152601f60248201527f54726164652068617320616c7265616479206265656e207072657061726564006044820152606401610712565b6006805460ff191660011790558060046108568282610f4e565b905050610925565b6001546001600160a01b031633036108dd57600c5460ff16156108c35760405162461bcd60e51b815260206004820152601f60248201527f54726164652068617320616c7265616479206265656e207072657061726564006044820152606401610712565b600c805460ff1916600117905580600a6108568282610f4e565b60405162461bcd60e51b815260206004820152600e60248201527f496e76616c696420686f6c6465720000000000000000000000000000000000006044820152606401610712565b60405133907fa81f289d7382f23fa191ba95b5fdcf0dd13c7c5e800184605d7418adc3b9644690600090a250565b6000600e5460ff16600281111561096c5761096c610b34565b146109b95760405162461bcd60e51b815260206004820152601460248201527f5472616465206973206e6f742070656e64696e670000000000000000000000006044820152606401610712565b600e805460ff1916600217905560405133907fbd9b0d8f9d224c898f55ec0a0cc63dbef10a9e2c719e7cf5e24e2daa01cc7f4590600090a2565b6000815180845260005b81811015610a19576020818501810151868301820152016109fd565b506000602082860101526020601f19601f83011685010191505092915050565b6000815180845260208085019450848260051b860182860160005b85811015610a9e5783830389528151805184528581015186850152604090810151606091850182905290610a8a818601836109f3565b9a87019a9450505090840190600101610a54565b5090979650505050505050565b6001600160a01b038151168252602081015160208301526000604082015160a060408501528051604060a0860152610ae660e0860182610a39565b905060208201519150609f198582030160c0860152610b058183610a39565b91505060608301511515606085015260808301518482036080860152610b2b82826109f3565b95945050505050565b634e487b7160e01b600052602160045260246000fd5b60006001600160a01b03808816835280871660208401525060a06040830152610b7660a0830186610aab565b8281036060840152610b888186610aab565b91505060038310610ba957634e487b7160e01b600052602160045260246000fd5b8260808301529695505050505050565b600060208284031215610bcb57600080fd5b813567ffffffffffffffff811115610be257600080fd5b820160408185031215610bf457600080fd5b9392505050565b600181811c90821680610c0f57607f821691505b602082108103610c2f57634e487b7160e01b600052602260045260246000fd5b50919050565b6000808335601e19843603018112610c4c57600080fd5b83018035915067ffffffffffffffff821115610c6757600080fd5b6020019150600581901b3603821315610c7f57600080fd5b9250929050565b60008235605e19833603018112610c9c57600080fd5b9190910192915050565b634e487b7160e01b600052604160045260246000fd5b60038082029081048214610ce057634e487b7160e01b600052601160045260246000fd5b919050565b5b81811015610cfa5760008155600101610ce6565b5050565b601f821115610d3a57806000526020600020601f840160051c81016020851015610d255750805b610d37601f850160051c830182610ce5565b50505b505050565b81358155600160208084013582840155600283016040850135601e19863603018112610d6a57600080fd5b8501803567ffffffffffffffff811115610d8357600080fd5b8036038483011315610d9457600080fd5b610da881610da28554610bfb565b85610cfe565b6000601f821160018114610dde5760008315610dc657508382018601355b600019600385901b1c1916600184901b178555610e37565b600085815260209020601f19841690835b82811015610e0e57868501890135825593880193908901908801610def565b5084821015610e2d5760001960f88660031b161c198885880101351681555b50508683881b0185555b505050505050505050565b68010000000000000000831115610e5b57610e5b610ca6565b805483825580841015610f0857610e7181610cbc565b610e7a85610cbc565b6000848152602081209283019291909101905b82821015610f04578082556001818184015560028301610ead8154610bfb565b8015610ef657601f80821160018114610ec857858455610ef3565b600084815260209020610ee483850160051c8201878301610ce5565b50600084815260208120818655555b50505b505050600382019150610e8d565b5050505b5060008181526020812083915b85811015610f4657610f30610f2a8487610c86565b83610d3f565b6020929092019160039190910190600101610f15565b505050505050565b610f588283610c35565b68010000000000000000811115610f7157610f71610ca6565b82548184558082101561101e57610f8781610cbc565b610f9083610cbc565b6000868152602081209283019291909101905b8282101561101a578082556001818184015560028301610fc38154610bfb565b801561100c57601f80821160018114610fde57858455611009565b600084815260209020610ffa83850160051c8201878301610ce5565b50600084815260208120818655555b50505b505050600382019150610fa3565b5050505b5060008381526020812083915b8381101561105657611040610f2a8487610c86565b602092909201916003919091019060010161102b565b50505050506110686020830183610c35565b611076818360018601610e42565b5050505056fea264697066735822122040ba5b5592491a914dcb29b58138e1799e9cf5a50a5092a8c45cabbfa075bac864736f6c63430008140033",
  "linkReferences": {},
  "deployedLinkReferences": {}
}