{
  "_format": "hh-sol-artifact-1",
  "contractName": "Groth16Verifier_AnonEnc",
  "sourceName": "contracts/lib/verifier_anon_enc.sol",
  "abi": [
    {
      "inputs": [
        {
          "internalType": "uint256[2]",
          "name": "_pA",
          "type": "uint256[2]"
        },
        {
          "internalType": "uint256[2][2]",
          "name": "_pB",
          "type": "uint256[2][2]"
        },
        {
          "internalType": "uint256[2]",
          "name": "_pC",
          "type": "uint256[2]"
        },
        {
          "internalType": "uint256[9]",
          "name": "_pubSignals",
          "type": "uint256[9]"
        }
      ],
      "name": "verifyProof",
      "outputs": [
        {
          "internalType": "bool",
          "name": "",
          "type": "bool"
        }
      ],
      "stateMutability": "view",
      "type": "function"
    }
  ],
  "bytecode": "0x608060405234801561001057600080fd5b506108f8806100206000396000f3fe608060405234801561001057600080fd5b506004361061002b5760003560e01c8063c542c93b14610030575b600080fd5b61004a60048036038101906100459190610823565b610060565b60405161005791906108a7565b60405180910390f35b600061070d565b7f30644e72e131a029b85045b68181585d2833e84879b9709143e1f593f00000018110610098576000805260206000f35b50565b600060405183815284602082015285604082015260408160608360076107d05a03fa9150816100ce576000805260206000f35b825160408201526020830151606082015260408360808360066107d05a03fa9150816100fe576000805260206000f35b505050505050565b600060808601600087017f0c9801b33ba5184b906df3813b52b8209e6b6d009cd29629f43d2ef06e2e058681527f279aa4a29c25964e95a428f51b814affb9cc9c174f4ef51319d909999f924ace60208201526101a960008801357f054f3026ac49633d54db5790edced4276c3fcb60260955604d1d12167c8642057f22fd10cffc86fd553bf23cf06313d1ac439692e87553ce88225225d542b5d86b8461009b565b6101f960208801357f20baca4c5c719c6cf4660fbd5455a11a6052027c4a7f0da09c419b27958911347f27679ab7567502489a59891f9ba4338b859e6e13a03fe2a49871f9abc3f7e2e78461009b565b61024960408801357f2953c4991cf48884ab1a29025e0c3824e8ed604e9e7729bbf51265bca8c929dd7f292a5acdec8fe644abd83ca63db22f3596aeaa61cb9b9ee584e60fe341411db48461009b565b61029960608801357f0a3d16716222d3c46bd4219803ec09cb0e81a8240e597d47cfc198929054074c7f12c0379f2904d71b3f75c5d767ed82a2ae8417ceb600a101c1577cb6a2f37ac38461009b565b6102e860808801357f2b8d47bedba2a0a80ced03f16f7c9c7fb715d3a29db33f14938f378ed6eb8fb47e98504efc0710647525cfb42469ec234ad00023589157f6f93cef460aa3961a8461009b565b61033860a08801357f11beefd0b7ef1d4a7fdc654c0e781f2e4bcb85456caf4797ba4d4917e4e25daf7f043abf65716320db67262eb8bed1e3766868644c0756b8af982e95c0e80e58c78461009b565b61038860c08801357f1971e554bd379c3645e5d922dd5578807c98c2e22e02419aea52c9f518c8d2e77f2b337239d5c6c7770c120e816c7e3623163983f452035439676e1ec15ff1ec428461009b565b6103d860e08801357f10fa3b97888c294a669d2410a5277400316b382901a97e65e7339dec00813a6b7f2d27a81a694b0a610b6581d050b4890a4cbd2d97fc9bc481d8c7f427db5816be8461009b565b6104296101008801357f188e0ed603726dd2fa64a13417f185040cc1e0578d97b571c5da1629ca38eebe7f03420afd2a4f774064c13ce1c17c6a60c3931864cb00b38b81aafb86e8b352308461009b565b833582527f30644e72e131a029b85045b68181585d97816a916871ca8d3c208c16d87cfd4760208501357f30644e72e131a029b85045b68181585d97816a916871ca8d3c208c16d87cfd4703066020830152843560408301526020850135606083015260408501356080830152606085013560a08301527f2d4d9aa7e302d9df41749d5507949d05dbea33fbb16c643b22f599a2be6df2e260c08301527f14bedd503c37ceb061d8ec60209fe345ce89830a19230301f076caff004d192660e08301527f0967032fcbf776d1afc985f88877f182d38480a653f2decaa9794cbc3bf3060c6101008301527f0e187847ad4c798374d0d6732bf501847dd68bc0e071241e0213bc7fc13db7ab6101208301527f304cfbd1e08a704a99f5e847d93f8c3caafddec46b7a0d379da69a4d112346a76101408301527f1739c1b1a457a8c7313123d24d2f9192f896b7c63eea05a9d57f06547ad0cec8610160830152600088015161018083015260206000018801516101a08301527f198e9393920d483a7260bfb731fb5d25f1aa493335a9e71297e485b7aef312c26101c08301527f1800deef121f1e76426a00665e5c4479674322d4f75edadd46debd5cd992f6ed6101e08301527f090689d0585ff075ec9e99ad690c3395bc4b313370b38ef355acdadcd122975b6102008301527f12c85ea5db8c6deb4aab71808dcb408fe3d1e7690c43d37b4ce6cc0166fa7daa610220830152853561024083015260208601356102608301527f198e9393920d483a7260bfb731fb5d25f1aa493335a9e71297e485b7aef312c26102808301527f1800deef121f1e76426a00665e5c4479674322d4f75edadd46debd5cd992f6ed6102a08301527f090689d0585ff075ec9e99ad690c3395bc4b313370b38ef355acdadcd122975b6102c08301527f12c85ea5db8c6deb4aab71808dcb408fe3d1e7690c43d37b4ce6cc0166fa7daa6102e08301526020826103008460086107d05a03fa82518116935050505095945050505050565b60405161038081016040526107256000840135610067565b6107326020840135610067565b61073f6040840135610067565b61074c6060840135610067565b6107596080840135610067565b61076660a0840135610067565b61077360c0840135610067565b61078060e0840135610067565b61078e610100840135610067565b61079c610120840135610067565b6107a9818486888a610106565b8060005260206000f35b600080fd5b600080fd5b6000819050826020600202820111156107d9576107d86107b8565b5b92915050565b6000819050826040600202820111156107fb576107fa6107b8565b5b92915050565b60008190508260206009028201111561081d5761081c6107b8565b5b92915050565b600080600080610220858703121561083e5761083d6107b3565b5b600061084c878288016107bd565b945050604061085d878288016107df565b93505060c061086e878288016107bd565b92505061010061088087828801610801565b91505092959194509250565b60008115159050919050565b6108a18161088c565b82525050565b60006020820190506108bc6000830184610898565b9291505056fea264697066735822122074486175e64572d3575100403338f62e948ac219f8e5bae2192d1e64ec72ab8164736f6c63430008140033",
  "linkReferences": {},
  "deployedLinkReferences": {}
}