{
  "_format": "hh-sol-artifact-1",
  "contractName": "Zeto_AnonEnc",
  "sourceName": "contracts/zeto_anon_enc.sol",
  "abi": [
    {
      "inputs": [
        {
          "internalType": "address",
          "name": "target",
          "type": "address"
        }
      ],
      "name": "AddressEmptyCode",
      "type": "error"
    },
    {
      "inputs": [
        {
          "internalType": "address",
          "name": "implementation",
          "type": "address"
        }
      ],
      "name": "ERC1967InvalidImplementation",
      "type": "error"
    },
    {
      "inputs": [],
      "name": "ERC1967NonPayable",
      "type": "error"
    },
    {
      "inputs": [],
      "name": "FailedInnerCall",
      "type": "error"
    },
    {
      "inputs": [
        {
          "internalType": "address",
          "name": "addr",
          "type": "address"
        }
      ],
      "name": "IdentityNotRegistered",
      "type": "error"
    },
    {
      "inputs": [],
      "name": "InvalidInitialization",
      "type": "error"
    },
    {
      "inputs": [],
      "name": "NotInitializing",
      "type": "error"
    },
    {
      "inputs": [
        {
          "internalType": "address",
          "name": "owner",
          "type": "address"
        }
      ],
      "name": "OwnableInvalidOwner",
      "type": "error"
    },
    {
      "inputs": [
        {
          "internalType": "address",
          "name": "account",
          "type": "address"
        }
      ],
      "name": "OwnableUnauthorizedAccount",
      "type": "error"
    },
    {
      "inputs": [
        {
          "internalType": "uint256",
          "name": "utxo",
          "type": "uint256"
        }
      ],
      "name": "UTXOAlreadyOwned",
      "type": "error"
    },
    {
      "inputs": [
        {
          "internalType": "uint256",
          "name": "utxo",
          "type": "uint256"
        }
      ],
      "name": "UTXOAlreadySpent",
      "type": "error"
    },
    {
      "inputs": [
        {
          "internalType": "uint256",
          "name": "utxo",
          "type": "uint256"
        }
      ],
      "name": "UTXODuplicate",
      "type": "error"
    },
    {
      "inputs": [
        {
          "internalType": "uint256",
          "name": "utxo",
          "type": "uint256"
        }
      ],
      "name": "UTXONotMinted",
      "type": "error"
    },
    {
      "inputs": [],
      "name": "UUPSUnauthorizedCallContext",
      "type": "error"
    },
    {
      "inputs": [
        {
          "internalType": "bytes32",
          "name": "slot",
          "type": "bytes32"
        }
      ],
      "name": "UUPSUnsupportedProxiableUUID",
      "type": "error"
    },
    {
      "anonymous": false,
      "inputs": [
        {
          "indexed": false,
          "internalType": "uint64",
          "name": "version",
          "type": "uint64"
        }
      ],
      "name": "Initialized",
      "type": "event"
    },
    {
      "anonymous": false,
      "inputs": [
        {
          "indexed": true,
          "internalType": "address",
          "name": "previousOwner",
          "type": "address"
        },
        {
          "indexed": true,
          "internalType": "address",
          "name": "newOwner",
          "type": "address"
        }
      ],
      "name": "OwnershipTransferred",
      "type": "event"
    },
    {
      "anonymous": false,
      "inputs": [
        {
          "indexed": false,
          "internalType": "uint256[]",
          "name": "outputs",
          "type": "uint256[]"
        },
        {
          "indexed": true,
          "internalType": "address",
          "name": "submitter",
          "type": "address"
        }
      ],
      "name": "UTXOMint",
      "type": "event"
    },
    {
      "anonymous": false,
      "inputs": [
        {
          "indexed": false,
          "internalType": "uint256[]",
          "name": "inputs",
          "type": "uint256[]"
        },
        {
          "indexed": false,
          "internalType": "uint256[]",
          "name": "outputs",
          "type": "uint256[]"
        },
        {
          "indexed": true,
          "internalType": "address",
          "name": "submitter",
          "type": "address"
        }
      ],
      "name": "UTXOTransfer",
      "type": "event"
    },
    {
      "anonymous": false,
      "inputs": [
        {
          "indexed": false,
          "internalType": "uint256[]",
          "name": "inputs",
          "type": "uint256[]"
        },
        {
          "indexed": false,
          "internalType": "uint256[]",
          "name": "outputs",
          "type": "uint256[]"
        },
        {
          "indexed": false,
          "internalType": "uint256",
          "name": "encryptionNonce",
          "type": "uint256"
        },
        {
          "indexed": false,
          "internalType": "uint256[]",
          "name": "encryptedValues",
          "type": "uint256[]"
        },
        {
          "indexed": true,
          "internalType": "address",
          "name": "submitter",
          "type": "address"
        }
      ],
      "name": "UTXOTransferWithEncryptedValues",
      "type": "event"
    },
    {
      "anonymous": false,
      "inputs": [
        {
          "indexed": true,
          "internalType": "address",
          "name": "implementation",
          "type": "address"
        }
      ],
      "name": "Upgraded",
      "type": "event"
    },
    {
      "inputs": [],
      "name": "UPGRADE_INTERFACE_VERSION",
      "outputs": [
        {
          "internalType": "string",
          "name": "",
          "type": "string"
        }
      ],
      "stateMutability": "view",
      "type": "function"
    },
    {
      "inputs": [
        {
          "internalType": "contract Groth16Verifier_CheckHashesValue",
          "name": "_depositVerifier",
          "type": "address"
        },
        {
          "internalType": "contract Groth16Verifier_CheckInputsOutputsValue",
          "name": "_withdrawVerifier",
          "type": "address"
        }
      ],
      "name": "__ZetoFungibleWithdraw_init",
      "outputs": [],
      "stateMutability": "nonpayable",
      "type": "function"
    },
    {
      "inputs": [
        {
          "internalType": "contract Groth16Verifier_CheckHashesValue",
          "name": "_depositVerifier",
          "type": "address"
        }
      ],
      "name": "__ZetoFungible_init",
      "outputs": [],
      "stateMutability": "nonpayable",
      "type": "function"
    },
    {
      "inputs": [
        {
          "internalType": "uint256",
          "name": "amount",
          "type": "uint256"
        },
        {
          "internalType": "uint256",
          "name": "utxo",
          "type": "uint256"
        },
        {
          "components": [
            {
              "internalType": "uint256[2]",
              "name": "pA",
              "type": "uint256[2]"
            },
            {
              "internalType": "uint256[2][2]",
              "name": "pB",
              "type": "uint256[2][2]"
            },
            {
              "internalType": "uint256[2]",
              "name": "pC",
              "type": "uint256[2]"
            }
          ],
          "internalType": "struct Commonlib.Proof",
          "name": "proof",
          "type": "tuple"
        }
      ],
      "name": "_deposit",
      "outputs": [],
      "stateMutability": "nonpayable",
      "type": "function"
    },
    {
      "inputs": [
        {
          "internalType": "uint256",
          "name": "amount",
          "type": "uint256"
        },
        {
          "internalType": "uint256[2]",
          "name": "inputs",
          "type": "uint256[2]"
        },
        {
          "internalType": "uint256",
          "name": "output",
          "type": "uint256"
        },
        {
          "components": [
            {
              "internalType": "uint256[2]",
              "name": "pA",
              "type": "uint256[2]"
            },
            {
              "internalType": "uint256[2][2]",
              "name": "pB",
              "type": "uint256[2][2]"
            },
            {
              "internalType": "uint256[2]",
              "name": "pC",
              "type": "uint256[2]"
            }
          ],
          "internalType": "struct Commonlib.Proof",
          "name": "proof",
          "type": "tuple"
        }
      ],
      "name": "_withdraw",
      "outputs": [],
      "stateMutability": "nonpayable",
      "type": "function"
    },
    {
      "inputs": [
        {
          "internalType": "uint256",
          "name": "amount",
          "type": "uint256"
        },
        {
          "internalType": "uint256",
          "name": "utxo",
          "type": "uint256"
        },
        {
          "components": [
            {
              "internalType": "uint256[2]",
              "name": "pA",
              "type": "uint256[2]"
            },
            {
              "internalType": "uint256[2][2]",
              "name": "pB",
              "type": "uint256[2][2]"
            },
            {
              "internalType": "uint256[2]",
              "name": "pC",
              "type": "uint256[2]"
            }
          ],
          "internalType": "struct Commonlib.Proof",
          "name": "proof",
          "type": "tuple"
        }
      ],
      "name": "deposit",
      "outputs": [],
      "stateMutability": "nonpayable",
      "type": "function"
    },
    {
      "inputs": [
        {
          "internalType": "address",
          "name": "initialOwner",
          "type": "address"
        },
        {
          "internalType": "contract Groth16Verifier_AnonEnc",
          "name": "_verifier",
          "type": "address"
        },
        {
          "internalType": "contract Groth16Verifier_CheckHashesValue",
          "name": "_depositVerifier",
          "type": "address"
        },
        {
          "internalType": "contract Groth16Verifier_CheckInputsOutputsValue",
          "name": "_withdrawVerifier",
          "type": "address"
        }
      ],
      "name": "initialize",
      "outputs": [],
      "stateMutability": "nonpayable",
      "type": "function"
    },
    {
      "inputs": [
        {
          "components": [
            {
              "internalType": "uint256[2]",
              "name": "pA",
              "type": "uint256[2]"
            },
            {
              "internalType": "uint256[2][2]",
              "name": "pB",
              "type": "uint256[2][2]"
            },
            {
              "internalType": "uint256[2]",
              "name": "pC",
              "type": "uint256[2]"
            }
          ],
          "internalType": "struct Commonlib.Proof",
          "name": "proof",
          "type": "tuple"
        }
      ],
      "name": "lockProof",
      "outputs": [],
      "stateMutability": "nonpayable",
      "type": "function"
    },
    {
      "inputs": [
        {
          "internalType": "uint256[]",
          "name": "utxos",
          "type": "uint256[]"
        }
      ],
      "name": "mint",
      "outputs": [],
      "stateMutability": "nonpayable",
      "type": "function"
    },
    {
      "inputs": [],
      "name": "owner",
      "outputs": [
        {
          "internalType": "address",
          "name": "",
          "type": "address"
        }
      ],
      "stateMutability": "view",
      "type": "function"
    },
    {
      "inputs": [],
      "name": "proxiableUUID",
      "outputs": [
        {
          "internalType": "bytes32",
          "name": "",
          "type": "bytes32"
        }
      ],
      "stateMutability": "view",
      "type": "function"
    },
    {
      "inputs": [],
      "name": "renounceOwnership",
      "outputs": [],
      "stateMutability": "nonpayable",
      "type": "function"
    },
    {
      "inputs": [
        {
          "internalType": "contract IERC20",
          "name": "_erc20",
          "type": "address"
        }
      ],
      "name": "setERC20",
      "outputs": [],
      "stateMutability": "nonpayable",
      "type": "function"
    },
    {
      "inputs": [
        {
          "internalType": "uint256",
          "name": "txo",
          "type": "uint256"
        }
      ],
      "name": "spent",
      "outputs": [
        {
          "internalType": "bool",
          "name": "",
          "type": "bool"
        }
      ],
      "stateMutability": "view",
      "type": "function"
    },
    {
      "inputs": [
        {
          "internalType": "uint256[2]",
          "name": "inputs",
          "type": "uint256[2]"
        },
        {
          "internalType": "uint256[2]",
          "name": "outputs",
          "type": "uint256[2]"
        },
        {
          "internalType": "uint256",
          "name": "encryptionNonce",
          "type": "uint256"
        },
        {
          "internalType": "uint256[4]",
          "name": "encryptedValues",
          "type": "uint256[4]"
        },
        {
          "components": [
            {
              "internalType": "uint256[2]",
              "name": "pA",
              "type": "uint256[2]"
            },
            {
              "internalType": "uint256[2][2]",
              "name": "pB",
              "type": "uint256[2][2]"
            },
            {
              "internalType": "uint256[2]",
              "name": "pC",
              "type": "uint256[2]"
            }
          ],
          "internalType": "struct Commonlib.Proof",
          "name": "proof",
          "type": "tuple"
        }
      ],
      "name": "transfer",
      "outputs": [
        {
          "internalType": "bool",
          "name": "",
          "type": "bool"
        }
      ],
      "stateMutability": "nonpayable",
      "type": "function"
    },
    {
      "inputs": [
        {
          "internalType": "address",
          "name": "newOwner",
          "type": "address"
        }
      ],
      "name": "transferOwnership",
      "outputs": [],
      "stateMutability": "nonpayable",
      "type": "function"
    },
    {
      "inputs": [
        {
          "internalType": "address",
          "name": "newImplementation",
          "type": "address"
        },
        {
          "internalType": "bytes",
          "name": "data",
          "type": "bytes"
        }
      ],
      "name": "upgradeToAndCall",
      "outputs": [],
      "stateMutability": "payable",
      "type": "function"
    },
    {
      "inputs": [
        {
          "internalType": "uint256",
          "name": "amount",
          "type": "uint256"
        },
        {
          "internalType": "uint256[2]",
          "name": "inputs",
          "type": "uint256[2]"
        },
        {
          "internalType": "uint256",
          "name": "output",
          "type": "uint256"
        },
        {
          "components": [
            {
              "internalType": "uint256[2]",
              "name": "pA",
              "type": "uint256[2]"
            },
            {
              "internalType": "uint256[2][2]",
              "name": "pB",
              "type": "uint256[2][2]"
            },
            {
              "internalType": "uint256[2]",
              "name": "pC",
              "type": "uint256[2]"
            }
          ],
          "internalType": "struct Commonlib.Proof",
          "name": "proof",
          "type": "tuple"
        }
      ],
      "name": "withdraw",
      "outputs": [],
      "stateMutability": "nonpayable",
      "type": "function"
    }
  ],
  "bytecode": "0x60a06040523073ffffffffffffffffffffffffffffffffffffffff1660809073ffffffffffffffffffffffffffffffffffffffff1681525034801561004357600080fd5b50608051613dca61006d600039600081816113a5015281816113fa01526115b50152613dca6000f3fe6080604052600436106101095760003560e01c8063c29a6fda11610095578063f399f12211610064578063f399f1221461031e578063f643610314610347578063f756356a14610384578063f8c8765e146103ad578063f8e93ef9146103d657610109565b8063c29a6fda14610266578063d5b5cc231461028f578063dd8075f6146102cc578063f2fde38b146102f557610109565b80637cadc655116100dc5780637cadc655146101955780638da5cb5b146101be5780639fcc50af146101e9578063ad3cb1cc14610212578063bd0a20fb1461023d57610109565b80634f1ef2861461010e57806352d1902d1461012a5780636976c26c14610155578063715018a61461017e575b600080fd5b61012860048036038101906101239190612b54565b6103ff565b005b34801561013657600080fd5b5061013f61041e565b60405161014c9190612bc9565b60405180910390f35b34801561016157600080fd5b5061017c60048036038101906101779190612cf5565b610451565b005b34801561018a57600080fd5b506101936104a3565b005b3480156101a157600080fd5b506101bc60048036038101906101b79190612dd9565b6104b7565b005b3480156101ca57600080fd5b506101d361050d565b6040516101e09190612e28565b60405180910390f35b3480156101f557600080fd5b50610210600480360381019061020b9190612e43565b610545565b005b34801561021e57600080fd5b50610227610591565b6040516102349190612eef565b60405180910390f35b34801561024957600080fd5b50610264600480360381019061025f9190612f11565b6105ca565b005b34801561027257600080fd5b5061028d60048036038101906102889190612fa3565b610653565b005b34801561029b57600080fd5b506102b660048036038101906102b19190612fd0565b61069f565b6040516102c39190613018565b60405180910390f35b3480156102d857600080fd5b506102f360048036038101906102ee9190612cf5565b6106ef565b005b34801561030157600080fd5b5061031c60048036038101906103179190613033565b61096f565b005b34801561032a57600080fd5b5061034560048036038101906103409190613060565b6109f5565b005b34801561035357600080fd5b5061036e6004803603810190610369919061313f565b610a57565b60405161037b9190613018565b60405180910390f35b34801561039057600080fd5b506103ab60048036038101906103a69190612f11565b610f9d565b005b3480156103b957600080fd5b506103d460048036038101906103cf91906131fa565b6111b2565b005b3480156103e257600080fd5b506103fd60048036038101906103f89190613324565b61138f565b005b6104076113a3565b61041082611489565b61041a8282611494565b5050565b60006104286115b3565b7f360894a13ba1a3210667c828492db98dca3e2076cc3735a920a3ca505d382bbc60001b905090565b61047183604051806040016040528085815260200160008152508361163a565b5061047e848484846106ef565b61049d8360405180604001604052808581526020016000815250611c3b565b50505050565b6104ab611d20565b6104b56000611da7565b565b6104bf611e7e565b6104c882610545565b80600460006101000a81548173ffffffffffffffffffffffffffffffffffffffff021916908373ffffffffffffffffffffffffffffffffffffffff1602179055505050565b600080610518611ebe565b90508060000160009054906101000a900473ffffffffffffffffffffffffffffffffffffffff1691505090565b61054d611e7e565b80600260006101000a81548173ffffffffffffffffffffffffffffffffffffffff021916908373ffffffffffffffffffffffffffffffffffffffff16021790555050565b6040518060400160405280600581526020017f352e302e3000000000000000000000000000000000000000000000000000000081525081565b6105d5838383610f9d565b6000600167ffffffffffffffff8111156105f2576105f1612a29565b5b6040519080825280602002602001820160405280156106205781602001602082028036833780820191505090505b50905082816000815181106106385761063761336d565b5b60200260200101818152505061064d81611ee6565b50505050565b61065b611d20565b80600360006101000a81548173ffffffffffffffffffffffffffffffffffffffff021916908373ffffffffffffffffffffffffffffffffffffffff16021790555050565b60006002808111156106b4576106b361339c565b5b6001600084815260200190815260200160002060009054906101000a900460ff1660028111156106e7576106e661339c565b5b149050919050565b6106f7612935565b848160006004811061070c5761070b61336d565b5b602002018181525050836000600281106107295761072861336d565b5b6020020151816001600481106107425761074161336d565b5b6020020181815250508360016002811061075f5761075e61336d565b5b6020020151816002600481106107785761077761336d565b5b60200201818152505082816003600481106107965761079561336d565b5b602002018181525050600460009054906101000a900473ffffffffffffffffffffffffffffffffffffffff1673ffffffffffffffffffffffffffffffffffffffff16635fe8c13b83600001846040018560c001856040518563ffffffff1660e01b8152600401610809949392919061354e565b602060405180830381865afa158015610826573d6000803e3d6000fd5b505050506040513d601f19601f8201168201806040525081019061084a91906135c1565b610889576040517f08c379a00000000000000000000000000000000000000000000000000000000081526004016108809061363a565b60405180910390fd5b600360009054906101000a900473ffffffffffffffffffffffffffffffffffffffff1673ffffffffffffffffffffffffffffffffffffffff1663a9059cbb33876040518363ffffffff1660e01b81526004016108e6929190613669565b6020604051808303816000875af1158015610905573d6000803e3d6000fd5b505050506040513d601f19601f8201168201806040525081019061092991906135c1565b610968576040517f08c379a000000000000000000000000000000000000000000000000000000000815260040161095f906136de565b60405180910390fd5b5050505050565b610977611d20565b600073ffffffffffffffffffffffffffffffffffffffff168173ffffffffffffffffffffffffffffffffffffffff16036109e95760006040517f1e4fbdf70000000000000000000000000000000000000000000000000000000081526004016109e09190612e28565b60405180910390fd5b6109f281611da7565b50565b6000610a00826120c1565b90503360008083815260200190815260200160002060006101000a81548173ffffffffffffffffffffffffffffffffffffffff021916908373ffffffffffffffffffffffffffffffffffffffff1602179055505050565b6000610a6486868461163a565b610aa3576040517f08c379a0000000000000000000000000000000000000000000000000000000008152600401610a9a9061374a565b60405180910390fd5b610aab612957565b83600060048110610abf57610abe61336d565b5b602002015181600060098110610ad857610ad761336d565b5b60200201818152505083600160048110610af557610af461336d565b5b602002015181600160098110610b0e57610b0d61336d565b5b60200201818152505083600260048110610b2b57610b2a61336d565b5b602002015181600260098110610b4457610b4361336d565b5b60200201818152505083600360048110610b6157610b6061336d565b5b602002015181600360098110610b7a57610b7961336d565b5b60200201818152505086600060028110610b9757610b9661336d565b5b602002015181600460098110610bb057610baf61336d565b5b60200201818152505086600160028110610bcd57610bcc61336d565b5b602002015181600560098110610be657610be561336d565b5b60200201818152505085600060028110610c0357610c0261336d565b5b602002015181600660098110610c1c57610c1b61336d565b5b60200201818152505085600160028110610c3957610c3861336d565b5b602002015181600760098110610c5257610c5161336d565b5b6020020181815250508481600860098110610c7057610c6f61336d565b5b602002018181525050600560009054906101000a900473ffffffffffffffffffffffffffffffffffffffff1673ffffffffffffffffffffffffffffffffffffffff1663c542c93b84600001856040018660c001856040518563ffffffff1660e01b8152600401610ce394939291906137ee565b602060405180830381865afa158015610d00573d6000803e3d6000fd5b505050506040513d601f19601f82011682018060405250810190610d2491906135c1565b610d63576040517f08c379a0000000000000000000000000000000000000000000000000000000008152600401610d5a9061363a565b60405180910390fd5b610d6d8787611c3b565b6000600267ffffffffffffffff811115610d8a57610d89612a29565b5b604051908082528060200260200182016040528015610db85781602001602082028036833780820191505090505b5090506000600267ffffffffffffffff811115610dd857610dd7612a29565b5b604051908082528060200260200182016040528015610e065781602001602082028036833780820191505090505b5090506000600467ffffffffffffffff811115610e2657610e25612a29565b5b604051908082528060200260200182016040528015610e545781602001602082028036833780820191505090505b50905060005b6002811015610ee2578a8160028110610e7657610e7561336d565b5b6020020151848281518110610e8e57610e8d61336d565b5b602002602001018181525050898160028110610ead57610eac61336d565b5b6020020151838281518110610ec557610ec461336d565b5b60200260200101818152505080610edb90613864565b9050610e5a565b5060005b6004811015610f3757878160048110610f0257610f0161336d565b5b6020020151828281518110610f1a57610f1961336d565b5b60200260200101818152505080610f3090613864565b9050610ee6565b503373ffffffffffffffffffffffffffffffffffffffff167f72dc40b0a49e76cc102bfb8ef133ae779a443ee1e07dd37044aa6a3bec1b27d984848b85604051610f849493929190613943565b60405180910390a2600194505050505095945050505050565b610fa561297a565b8381600060028110610fba57610fb961336d565b5b6020020181815250508281600160028110610fd857610fd761336d565b5b602002018181525050600260009054906101000a900473ffffffffffffffffffffffffffffffffffffffff1673ffffffffffffffffffffffffffffffffffffffff1663f5c9d69e83600001846040018560c001856040518563ffffffff1660e01b815260040161104b9493929190613a21565b602060405180830381865afa158015611068573d6000803e3d6000fd5b505050506040513d601f19601f8201168201806040525081019061108c91906135c1565b6110cb576040517f08c379a00000000000000000000000000000000000000000000000000000000081526004016110c29061363a565b60405180910390fd5b600360009054906101000a900473ffffffffffffffffffffffffffffffffffffffff1673ffffffffffffffffffffffffffffffffffffffff166323b872dd3330876040518463ffffffff1660e01b815260040161112a93929190613a68565b6020604051808303816000875af1158015611149573d6000803e3d6000fd5b505050506040513d601f19601f8201168201806040525081019061116d91906135c1565b6111ac576040517f08c379a00000000000000000000000000000000000000000000000000000000081526004016111a3906136de565b60405180910390fd5b50505050565b60006111bc612263565b905060008160000160089054906101000a900460ff1615905060008260000160009054906101000a900467ffffffffffffffff1690506000808267ffffffffffffffff1614801561120a5750825b9050600060018367ffffffffffffffff1614801561123f575060003073ffffffffffffffffffffffffffffffffffffffff163b145b90508115801561124d575080155b15611284576040517ff92ee8a900000000000000000000000000000000000000000000000000000000815260040160405180910390fd5b60018560000160006101000a81548167ffffffffffffffff021916908367ffffffffffffffff16021790555083156112d45760018560000160086101000a81548160ff0219169083151502179055505b6112dd8961228b565b6112e787876104b7565b87600560006101000a81548173ffffffffffffffffffffffffffffffffffffffff021916908373ffffffffffffffffffffffffffffffffffffffff16021790555083156113845760008560000160086101000a81548160ff0219169083151502179055507fc7f505b2f371ae2175ee4913f4499e1f2633a7b5936321eed1cdaeb6115181d2600160405161137b9190613af8565b60405180910390a15b505050505050505050565b611397611d20565b6113a081611ee6565b50565b7f000000000000000000000000000000000000000000000000000000000000000073ffffffffffffffffffffffffffffffffffffffff163073ffffffffffffffffffffffffffffffffffffffff16148061145057507f000000000000000000000000000000000000000000000000000000000000000073ffffffffffffffffffffffffffffffffffffffff1661143761229f565b73ffffffffffffffffffffffffffffffffffffffff1614155b15611487576040517fe07c8dba00000000000000000000000000000000000000000000000000000000815260040160405180910390fd5b565b611491611d20565b50565b8173ffffffffffffffffffffffffffffffffffffffff166352d1902d6040518163ffffffff1660e01b8152600401602060405180830381865afa9250505080156114fc57506040513d601f19601f820116820180604052508101906114f99190613b3f565b60015b61153d57816040517f4c9c8ce30000000000000000000000000000000000000000000000000000000081526004016115349190612e28565b60405180910390fd5b7f360894a13ba1a3210667c828492db98dca3e2076cc3735a920a3ca505d382bbc60001b81146115a457806040517faa1d49a400000000000000000000000000000000000000000000000000000000815260040161159b9190612bc9565b60405180910390fd5b6115ae83836122f6565b505050565b7f000000000000000000000000000000000000000000000000000000000000000073ffffffffffffffffffffffffffffffffffffffff163073ffffffffffffffffffffffffffffffffffffffff1614611638576040517fe07c8dba00000000000000000000000000000000000000000000000000000000815260040160405180910390fd5b565b60008060006116498686612369565b9150915060005b82518110156118b257600083828151811061166e5761166d61336d565b5b602002602001015103156118a1576000811180156116cb5750826001826116959190613b6c565b815181106116a6576116a561336d565b5b60200260200101518382815181106116c1576116c061336d565b5b6020026020010151145b15611727578281815181106116e3576116e261336d565b5b60200260200101516040517fdd57483100000000000000000000000000000000000000000000000000000000815260040161171e9190613ba0565b60405180910390fd5b6000600281111561173b5761173a61339c565b5b600160008584815181106117525761175161336d565b5b6020026020010151815260200190815260200160002060009054906101000a900460ff1660028111156117885761178761339c565b5b036117e4578281815181106117a05761179f61336d565b5b60200260200101516040517f839251270000000000000000000000000000000000000000000000000000000081526004016117db9190613ba0565b60405180910390fd5b6002808111156117f7576117f661339c565b5b6001600085848151811061180e5761180d61336d565b5b6020026020010151815260200190815260200160002060009054906101000a900460ff1660028111156118445761184361339c565b5b036118a05782818151811061185c5761185b61336d565b5b60200260200101516040517f41a06d280000000000000000000000000000000000000000000000000000000081526004016118979190613ba0565b60405180910390fd5b5b806118ab90613864565b9050611650565b5060005b8151811015611b185760008282815181106118d4576118d361336d565b5b60200260200101510315611b07576000811180156119315750816001826118fb9190613b6c565b8151811061190c5761190b61336d565b5b60200260200101518282815181106119275761192661336d565b5b6020026020010151145b1561198d578181815181106119495761194861336d565b5b60200260200101516040517fdd5748310000000000000000000000000000000000000000000000000000000081526004016119849190613ba0565b60405180910390fd5b6002808111156119a05761199f61339c565b5b600160008484815181106119b7576119b661336d565b5b6020026020010151815260200190815260200160002060009054906101000a900460ff1660028111156119ed576119ec61339c565b5b03611a4957818181518110611a0557611a0461336d565b5b60200260200101516040517f41a06d28000000000000000000000000000000000000000000000000000000008152600401611a409190613ba0565b60405180910390fd5b60016002811115611a5d57611a5c61339c565b5b60016000848481518110611a7457611a7361336d565b5b6020026020010151815260200190815260200160002060009054906101000a900460ff166002811115611aaa57611aa961339c565b5b03611b0657818181518110611ac257611ac161336d565b5b60200260200101516040517f79e1da47000000000000000000000000000000000000000000000000000000008152600401611afd9190613ba0565b60405180910390fd5b5b80611b1190613864565b90506118b6565b506000611b24856120c1565b9050600073ffffffffffffffffffffffffffffffffffffffff1660008083815260200190815260200160002060009054906101000a900473ffffffffffffffffffffffffffffffffffffffff1673ffffffffffffffffffffffffffffffffffffffff1614611c2d573373ffffffffffffffffffffffffffffffffffffffff1660008083815260200190815260200160002060009054906101000a900473ffffffffffffffffffffffffffffffffffffffff1673ffffffffffffffffffffffffffffffffffffffff1614611c2c576040517f08c379a0000000000000000000000000000000000000000000000000000000008152600401611c2390613c2d565b60405180910390fd5b5b600193505050509392505050565b60005b6002811015611cab57600260016000858460028110611c6057611c5f61336d565b5b6020020151815260200190815260200160002060006101000a81548160ff02191690836002811115611c9557611c9461339c565b5b021790555080611ca490613864565b9050611c3e565b5060005b6002811015611d1b576001806000848460028110611cd057611ccf61336d565b5b6020020151815260200190815260200160002060006101000a81548160ff02191690836002811115611d0557611d0461339c565b5b021790555080611d1490613864565b9050611caf565b505050565b611d286124d7565b73ffffffffffffffffffffffffffffffffffffffff16611d4661050d565b73ffffffffffffffffffffffffffffffffffffffff1614611da557611d696124d7565b6040517f118cdaa7000000000000000000000000000000000000000000000000000000008152600401611d9c9190612e28565b60405180910390fd5b565b6000611db1611ebe565b905060008160000160009054906101000a900473ffffffffffffffffffffffffffffffffffffffff169050828260000160006101000a81548173ffffffffffffffffffffffffffffffffffffffff021916908373ffffffffffffffffffffffffffffffffffffffff1602179055508273ffffffffffffffffffffffffffffffffffffffff168173ffffffffffffffffffffffffffffffffffffffff167f8be0079c531659141344cd1fd0a4f28419497f9722a3daafe3b4186f6b6457e060405160405180910390a3505050565b611e866124df565b611ebc576040517fd7e6bcf800000000000000000000000000000000000000000000000000000000815260040160405180910390fd5b565b60007f9016d09d72d40fdae2fd8ceac6b6234c7706214fd39c1cd1e609a0528c199300905090565b60005b815181101561206f576000828281518110611f0757611f0661336d565b5b6020026020010151905060016002811115611f2557611f2461339c565b5b6001600083815260200190815260200160002060009054906101000a900460ff166002811115611f5857611f5761339c565b5b03611f9a57806040517f79e1da47000000000000000000000000000000000000000000000000000000008152600401611f919190613ba0565b60405180910390fd5b600280811115611fad57611fac61339c565b5b6001600083815260200190815260200160002060009054906101000a900460ff166002811115611fe057611fdf61339c565b5b0361202257806040517f41a06d280000000000000000000000000000000000000000000000000000000081526004016120199190613ba0565b60405180910390fd5b600180600083815260200190815260200160002060006101000a81548160ff021916908360028111156120585761205761339c565b5b0217905550508061206890613864565b9050611ee9565b503373ffffffffffffffffffffffffffffffffffffffff167fdb80d3b089e1589711b813197a50a3f7b4060a86e3fdf5b549366090f4e6d904826040516120b69190613c4d565b60405180910390a250565b600080604051806101000160405280846000016000600281106120e7576120e661336d565b5b60200201358152602001846000016001600281106121085761210761336d565b5b60200201358152602001846040016000600281106121295761212861336d565b5b604002016000600281106121405761213f61336d565b5b60200201358152602001846040016000600281106121615761216061336d565b5b604002016001600281106121785761217761336d565b5b60200201358152602001846040016001600281106121995761219861336d565b5b604002016000600281106121b0576121af61336d565b5b60200201358152602001846040016001600281106121d1576121d061336d565b5b604002016001600281106121e8576121e761336d565b5b602002013581526020018460c0016000600281106122095761220861336d565b5b602002013581526020018460c00160016002811061222a5761222961336d565b5b60200201358152509050806040516020016122459190613d1a565b60405160208183030381529060405280519060200120915050919050565b60007ff0c57e16840df040f15088dc2f81fe391c3923bec73e23a9662efc9c229c6a00905090565b612293611e7e565b61229c816124ff565b50565b60006122cd7f360894a13ba1a3210667c828492db98dca3e2076cc3735a920a3ca505d382bbc60001b612513565b60000160009054906101000a900473ffffffffffffffffffffffffffffffffffffffff16905090565b6122ff8261251d565b8173ffffffffffffffffffffffffffffffffffffffff167fbc7cd75a20ee27fd9adebab32041f755214dbc6bffa90cc0225b39da2e5c2d3b60405160405180910390a260008151111561235c5761235682826125ea565b50612365565b61236461266e565b5b5050565b6060806000600267ffffffffffffffff81111561238957612388612a29565b5b6040519080825280602002602001820160405280156123b75781602001602082028036833780820191505090505b5090506000600267ffffffffffffffff8111156123d7576123d6612a29565b5b6040519080825280602002602001820160405280156124055781602001602082028036833780820191505090505b50905060005b600281101561245c578681600281106124275761242661336d565b5b602002015183828151811061243f5761243e61336d565b5b6020026020010181815250508061245590613864565b905061240b565b5060005b60028110156124b15785816002811061247c5761247b61336d565b5b60200201518282815181106124945761249361336d565b5b602002602001018181525050806124aa90613864565b9050612460565b506124bb826126ab565b91506124c6816126ab565b905081819350935050509250929050565b600033905090565b60006124e9612263565b60000160089054906101000a900460ff16905090565b612507611e7e565b612510816126e0565b50565b6000819050919050565b60008173ffffffffffffffffffffffffffffffffffffffff163b0361257957806040517f4c9c8ce30000000000000000000000000000000000000000000000000000000081526004016125709190612e28565b60405180910390fd5b806125a67f360894a13ba1a3210667c828492db98dca3e2076cc3735a920a3ca505d382bbc60001b612513565b60000160006101000a81548173ffffffffffffffffffffffffffffffffffffffff021916908373ffffffffffffffffffffffffffffffffffffffff16021790555050565b60606000808473ffffffffffffffffffffffffffffffffffffffff16846040516126149190613d7d565b600060405180830381855af49150503d806000811461264f576040519150601f19603f3d011682016040523d82523d6000602084013e612654565b606091505b50915091506126648583836126f4565b9250505092915050565b60003411156126a9576040517fb398979f00000000000000000000000000000000000000000000000000000000815260040160405180910390fd5b565b606060006126b883612783565b90506126d76126c68261278d565b6126cf8361279a565b6127b26127bf565b82915050919050565b6126e8611e7e565b6126f18161284f565b50565b60608261270957612704826128d5565b61277b565b60008251148015612731575060008473ffffffffffffffffffffffffffffffffffffffff163b145b1561277357836040517f9996b31500000000000000000000000000000000000000000000000000000000815260040161276a9190612e28565b60405180910390fd5b81905061277c565b5b9392505050565b6060819050919050565b6000602082019050919050565b600060208251026127aa8361278d565b019050919050565b6000818310905092915050565b60408383031061284a5760006127d48461291a565b9050600084905060006020860190505b84811015612823576128026127f88261291a565b848663ffffffff16565b15612818576020820191506128178282612925565b5b6020810190506127e4565b5061282e8582612925565b6128398582856127bf565b6128476020820185856127bf565b50505b505050565b612857611e7e565b600073ffffffffffffffffffffffffffffffffffffffff168173ffffffffffffffffffffffffffffffffffffffff16036128c95760006040517f1e4fbdf70000000000000000000000000000000000000000000000000000000081526004016128c09190612e28565b60405180910390fd5b6128d281611da7565b50565b6000815111156128e85780518082602001fd5b6040517f1425ea4200000000000000000000000000000000000000000000000000000000815260040160405180910390fd5b600081519050919050565b8151815180845281835250505050565b6040518060800160405280600490602082028036833780820191505090505090565b604051806101200160405280600990602082028036833780820191505090505090565b6040518060400160405280600290602082028036833780820191505090505090565b6000604051905090565b600080fd5b600080fd5b600073ffffffffffffffffffffffffffffffffffffffff82169050919050565b60006129db826129b0565b9050919050565b6129eb816129d0565b81146129f657600080fd5b50565b600081359050612a08816129e2565b92915050565b600080fd5b600080fd5b6000601f19601f8301169050919050565b7f4e487b7100000000000000000000000000000000000000000000000000000000600052604160045260246000fd5b612a6182612a18565b810181811067ffffffffffffffff82111715612a8057612a7f612a29565b5b80604052505050565b6000612a9361299c565b9050612a9f8282612a58565b919050565b600067ffffffffffffffff821115612abf57612abe612a29565b5b612ac882612a18565b9050602081019050919050565b82818337600083830152505050565b6000612af7612af284612aa4565b612a89565b905082815260208101848484011115612b1357612b12612a13565b5b612b1e848285612ad5565b509392505050565b600082601f830112612b3b57612b3a612a0e565b5b8135612b4b848260208601612ae4565b91505092915050565b60008060408385031215612b6b57612b6a6129a6565b5b6000612b79858286016129f9565b925050602083013567ffffffffffffffff811115612b9a57612b996129ab565b5b612ba685828601612b26565b9150509250929050565b6000819050919050565b612bc381612bb0565b82525050565b6000602082019050612bde6000830184612bba565b92915050565b6000819050919050565b612bf781612be4565b8114612c0257600080fd5b50565b600081359050612c1481612bee565b92915050565b600067ffffffffffffffff821115612c3557612c34612a29565b5b602082029050919050565b600080fd5b6000612c58612c5384612c1a565b612a89565b90508060208402830185811115612c7257612c71612c40565b5b835b81811015612c9b5780612c878882612c05565b845260208401935050602081019050612c74565b5050509392505050565b600082601f830112612cba57612cb9612a0e565b5b6002612cc7848285612c45565b91505092915050565b600080fd5b60006101008284031215612cec57612ceb612cd0565b5b81905092915050565b6000806000806101808587031215612d1057612d0f6129a6565b5b6000612d1e87828801612c05565b9450506020612d2f87828801612ca5565b9350506060612d4087828801612c05565b9250506080612d5187828801612cd5565b91505092959194509250565b6000612d68826129d0565b9050919050565b612d7881612d5d565b8114612d8357600080fd5b50565b600081359050612d9581612d6f565b92915050565b6000612da6826129d0565b9050919050565b612db681612d9b565b8114612dc157600080fd5b50565b600081359050612dd381612dad565b92915050565b60008060408385031215612df057612def6129a6565b5b6000612dfe85828601612d86565b9250506020612e0f85828601612dc4565b9150509250929050565b612e22816129d0565b82525050565b6000602082019050612e3d6000830184612e19565b92915050565b600060208284031215612e5957612e586129a6565b5b6000612e6784828501612d86565b91505092915050565b600081519050919050565b600082825260208201905092915050565b60005b83811015612eaa578082015181840152602081019050612e8f565b60008484015250505050565b6000612ec182612e70565b612ecb8185612e7b565b9350612edb818560208601612e8c565b612ee481612a18565b840191505092915050565b60006020820190508181036000830152612f098184612eb6565b905092915050565b60008060006101408486031215612f2b57612f2a6129a6565b5b6000612f3986828701612c05565b9350506020612f4a86828701612c05565b9250506040612f5b86828701612cd5565b9150509250925092565b6000612f70826129d0565b9050919050565b612f8081612f65565b8114612f8b57600080fd5b50565b600081359050612f9d81612f77565b92915050565b600060208284031215612fb957612fb86129a6565b5b6000612fc784828501612f8e565b91505092915050565b600060208284031215612fe657612fe56129a6565b5b6000612ff484828501612c05565b91505092915050565b60008115159050919050565b61301281612ffd565b82525050565b600060208201905061302d6000830184613009565b92915050565b600060208284031215613049576130486129a6565b5b6000613057848285016129f9565b91505092915050565b60006101008284031215613077576130766129a6565b5b600061308584828501612cd5565b91505092915050565b600067ffffffffffffffff8211156130a9576130a8612a29565b5b602082029050919050565b60006130c76130c28461308e565b612a89565b905080602084028301858111156130e1576130e0612c40565b5b835b8181101561310a57806130f68882612c05565b8452602084019350506020810190506130e3565b5050509392505050565b600082601f83011261312957613128612a0e565b5b60046131368482856130b4565b91505092915050565b6000806000806000610220868803121561315c5761315b6129a6565b5b600061316a88828901612ca5565b955050604061317b88828901612ca5565b945050608061318c88828901612c05565b93505060a061319d88828901613114565b9250506101206131af88828901612cd5565b9150509295509295909350565b60006131c7826129d0565b9050919050565b6131d7816131bc565b81146131e257600080fd5b50565b6000813590506131f4816131ce565b92915050565b60008060008060808587031215613214576132136129a6565b5b6000613222878288016129f9565b9450506020613233878288016131e5565b935050604061324487828801612d86565b925050606061325587828801612dc4565b91505092959194509250565b600067ffffffffffffffff82111561327c5761327b612a29565b5b602082029050602081019050919050565b60006132a061329b84613261565b612a89565b905080838252602082019050602084028301858111156132c3576132c2612c40565b5b835b818110156132ec57806132d88882612c05565b8452602084019350506020810190506132c5565b5050509392505050565b600082601f83011261330b5761330a612a0e565b5b813561331b84826020860161328d565b91505092915050565b60006020828403121561333a576133396129a6565b5b600082013567ffffffffffffffff811115613358576133576129ab565b5b613364848285016132f6565b91505092915050565b7f4e487b7100000000000000000000000000000000000000000000000000000000600052603260045260246000fd5b7f4e487b7100000000000000000000000000000000000000000000000000000000600052602160045260246000fd5b82818337505050565b6133e0604083836133cb565b5050565b600060029050919050565b600081905092915050565b6000819050919050565b613410604083836133cb565b5050565b60006134208383613404565b60408301905092915050565b600082905092915050565b6000604082019050919050565b61344d816133e4565b61345781846133ef565b9250613462826133fa565b8060005b8381101561349b57613478828461342c565b6134828782613414565b965061348d83613437565b925050600181019050613466565b505050505050565b600060049050919050565b600081905092915050565b6000819050919050565b6134cc81612be4565b82525050565b60006134de83836134c3565b60208301905092915050565b6000602082019050919050565b613500816134a3565b61350a81846134ae565b9250613515826134b9565b8060005b8381101561354657815161352d87826134d2565b9650613538836134ea565b925050600181019050613519565b505050505050565b60006101808201905061356460008301876133d4565b6135716040830186613444565b61357e60c08301856133d4565b61358c6101008301846134f7565b95945050505050565b61359e81612ffd565b81146135a957600080fd5b50565b6000815190506135bb81613595565b92915050565b6000602082840312156135d7576135d66129a6565b5b60006135e5848285016135ac565b91505092915050565b7f496e76616c69642070726f6f6600000000000000000000000000000000000000600082015250565b6000613624600d83612e7b565b915061362f826135ee565b602082019050919050565b6000602082019050818103600083015261365381613617565b9050919050565b61366381612be4565b82525050565b600060408201905061367e6000830185612e19565b61368b602083018461365a565b9392505050565b7f4661696c656420746f207472616e7366657220455243323020746f6b656e7300600082015250565b60006136c8601f83612e7b565b91506136d382613692565b602082019050919050565b600060208201905081810360008301526136f7816136bb565b9050919050565b7f496e76616c6964207472616e73616374696f6e2070726f706f73616c00000000600082015250565b6000613734601c83612e7b565b915061373f826136fe565b602082019050919050565b6000602082019050818103600083015261376381613727565b9050919050565b600060099050919050565b600081905092915050565b6000819050919050565b6000602082019050919050565b6137a08161376a565b6137aa8184613775565b92506137b582613780565b8060005b838110156137e65781516137cd87826134d2565b96506137d88361378a565b9250506001810190506137b9565b505050505050565b60006102208201905061380460008301876133d4565b6138116040830186613444565b61381e60c08301856133d4565b61382c610100830184613797565b95945050505050565b7f4e487b7100000000000000000000000000000000000000000000000000000000600052601160045260246000fd5b600061386f82612be4565b91507fffffffffffffffffffffffffffffffffffffffffffffffffffffffffffffffff82036138a1576138a0613835565b5b600182019050919050565b600081519050919050565b600082825260208201905092915050565b6000819050602082019050919050565b6000602082019050919050565b60006138f0826138ac565b6138fa81856138b7565b9350613905836138c8565b8060005b8381101561393657815161391d88826134d2565b9750613928836138d8565b925050600181019050613909565b5085935050505092915050565b6000608082019050818103600083015261395d81876138e5565b9050818103602083015261397181866138e5565b9050613980604083018561365a565b818103606083015261399281846138e5565b905095945050505050565b600060029050919050565b600081905092915050565b6000819050919050565b6000602082019050919050565b6139d38161399d565b6139dd81846139a8565b92506139e8826139b3565b8060005b83811015613a19578151613a0087826134d2565b9650613a0b836139bd565b9250506001810190506139ec565b505050505050565b600061014082019050613a3760008301876133d4565b613a446040830186613444565b613a5160c08301856133d4565b613a5f6101008301846139ca565b95945050505050565b6000606082019050613a7d6000830186612e19565b613a8a6020830185612e19565b613a97604083018461365a565b949350505050565b6000819050919050565b600067ffffffffffffffff82169050919050565b6000819050919050565b6000613ae2613add613ad884613a9f565b613abd565b613aa9565b9050919050565b613af281613ac7565b82525050565b6000602082019050613b0d6000830184613ae9565b92915050565b613b1c81612bb0565b8114613b2757600080fd5b50565b600081519050613b3981613b13565b92915050565b600060208284031215613b5557613b546129a6565b5b6000613b6384828501613b2a565b91505092915050565b6000613b7782612be4565b9150613b8283612be4565b9250828203905081811115613b9a57613b99613835565b5b92915050565b6000602082019050613bb5600083018461365a565b92915050565b7f4c6f636b65642070726f6f662063616e206f6e6c79206265207375626d69747460008201527f656420627920746865206c6f636b657220616464726573730000000000000000602082015250565b6000613c17603883612e7b565b9150613c2282613bbb565b604082019050919050565b60006020820190508181036000830152613c4681613c0a565b9050919050565b60006020820190508181036000830152613c6781846138e5565b905092915050565b600060089050919050565b600081905092915050565b6000819050919050565b613c9881612be4565b82525050565b6000613caa8383613c8f565b60208301905092915050565b6000602082019050919050565b613ccc81613c6f565b613cd68184613c7a565b9250613ce182613c85565b8060005b83811015613d12578151613cf98782613c9e565b9650613d0483613cb6565b925050600181019050613ce5565b505050505050565b6000613d268284613cc3565b6101008201915081905092915050565b600081519050919050565b600081905092915050565b6000613d5782613d36565b613d618185613d41565b9350613d71818560208601612e8c565b80840191505092915050565b6000613d898284613d4c565b91508190509291505056fea2646970667358221220e2cfbcf821c1b35b212b21900264326edefc4c1f3f5f939bed8882d62ca2467264736f6c63430008140033",
  "linkReferences": {},
  "deployedLinkReferences": {}
}