{
  "_format": "hh-sol-artifact-1",
  "contractName": "ZetoFactory",
  "sourceName": "contracts/zeto/ZetoFactory.sol",
  "abi": [
    {
      "inputs": [],
      "name": "ERC1167FailedCreateClone",
      "type": "error"
    },
    {
      "anonymous": false,
      "inputs": [
        {
          "indexed": true,
          "internalType": "bytes32",
          "name": "txId",
          "type": "bytes32"
        },
        {
          "indexed": true,
          "internalType": "address",
          "name": "instance",
          "type": "address"
        },
        {
          "indexed": true,
          "internalType": "address",
          "name": "domain",
          "type": "address"
        },
        {
          "indexed": false,
          "internalType": "bytes",
          "name": "data",
          "type": "bytes"
        }
      ],
      "name": "PaladinNewSmartContractByFactory_V0",
      "type": "event"
    },
    {
      "anonymous": false,
      "inputs": [
        {
          "indexed": true,
          "internalType": "bytes32",
          "name": "txId",
          "type": "bytes32"
        },
        {
          "indexed": true,
          "internalType": "address",
          "name": "domain",
          "type": "address"
        },
        {
          "indexed": false,
          "internalType": "bytes",
          "name": "data",
          "type": "bytes"
        }
      ],
      "name": "PaladinNewSmartContract_V0",
      "type": "event"
    },
    {
      "anonymous": false,
      "inputs": [
        {
          "indexed": true,
          "internalType": "bytes32",
          "name": "id",
          "type": "bytes32"
        },
        {
          "indexed": false,
          "internalType": "bytes32[]",
          "name": "inputs",
          "type": "bytes32[]"
        },
        {
          "indexed": false,
          "internalType": "bytes32[]",
          "name": "outputs",
          "type": "bytes32[]"
        },
        {
          "indexed": false,
          "internalType": "bytes",
          "name": "data",
          "type": "bytes"
        }
      ],
      "name": "PaladinPrivateTransaction_V0",
      "type": "event"
    },
    {
      "anonymous": false,
      "inputs": [
        {
          "indexed": true,
          "internalType": "address",
          "name": "zetoToken",
          "type": "address"
        }
      ],
      "name": "ZetoTokenDeployed",
      "type": "event"
    },
    {
      "inputs": [
        {
          "internalType": "bytes32",
          "name": "transactionId",
          "type": "bytes32"
        },
        {
          "internalType": "string",
          "name": "tokenName",
          "type": "string"
        },
        {
          "internalType": "address",
          "name": "initialOwner",
          "type": "address"
        },
        {
          "internalType": "bytes",
          "name": "data",
          "type": "bytes"
        }
      ],
      "name": "deploy",
      "outputs": [],
      "stateMutability": "nonpayable",
      "type": "function"
    },
    {
      "inputs": [
        {
          "internalType": "string",
          "name": "name",
          "type": "string"
        },
        {
          "internalType": "address",
          "name": "initialOwner",
          "type": "address"
        }
      ],
      "name": "deployZetoFungibleToken",
      "outputs": [
        {
          "internalType": "address",
          "name": "",
          "type": "address"
        }
      ],
      "stateMutability": "nonpayable",
      "type": "function"
    },
    {
      "inputs": [
        {
          "internalType": "string",
          "name": "name",
          "type": "string"
        },
        {
          "internalType": "address",
          "name": "initialOwner",
          "type": "address"
        }
      ],
      "name": "deployZetoNonFungibleToken",
      "outputs": [
        {
          "internalType": "address",
          "name": "",
          "type": "address"
        }
      ],
      "stateMutability": "nonpayable",
      "type": "function"
    },
    {
      "inputs": [
        {
          "internalType": "string",
          "name": "name",
          "type": "string"
        },
        {
          "components": [
            {
              "internalType": "address",
              "name": "implementation",
              "type": "address"
            },
            {
              "internalType": "address",
              "name": "depositVerifier",
              "type": "address"
            },
            {
              "internalType": "address",
              "name": "withdrawVerifier",
              "type": "address"
            },
            {
              "internalType": "address",
              "name": "verifier",
              "type": "address"
            }
          ],
          "internalType": "struct ZetoTokenFactory.ImplementationInfo",
          "name": "implementation",
          "type": "tuple"
        }
      ],
      "name": "registerImplementation",
      "outputs": [],
      "stateMutability": "nonpayable",
      "type": "function"
    }
  ],
  "bytecode": "0x608060405234801561001057600080fd5b50610b07806100206000396000f3fe608060405234801561001057600080fd5b506004361061004c5760003560e01c8063157d4e2114610051578063c100c69d14610080578063d7c567d614610095578063e8ee750b146100a8575b600080fd5b61006461005f3660046108c3565b6100bb565b6040516001600160a01b03909116815260200160405180910390f35b61009361008e366004610911565b6102b5565b005b6100646100a33660046108c3565b610316565b6100936100b63660046109a3565b6105ba565b6000806000846040516100ce9190610a82565b908152604080516020928190038301812060808201835280546001600160a01b0390811680845260018301548216958401959095526002820154811693830193909352600301549091166060820152915061017f5760405162461bcd60e51b815260206004820152602660248201527f466163746f72793a206661696c656420746f2066696e6420696d706c656d656e6044820152653a30ba34b7b760d11b60648201526084015b60405180910390fd5b600061018e8260000151610755565b90506001600160a01b0381166101f65760405162461bcd60e51b815260206004820152602760248201527f466163746f72793a206661696c656420746f20636c6f6e6520696d706c656d65604482015266373a30ba34b7b760c91b6064820152608401610176565b60608201516040517f485cc9550000000000000000000000000000000000000000000000000000000081526001600160a01b03868116600483015291821660248201529082169063485cc955906044015b600060405180830381600087803b15801561026157600080fd5b505af1158015610275573d6000803e3d6000fd5b50506040516001600160a01b03841692507f61a122822c33eb587240ac03c263df8e525c975793c9d3118d54888abdb036279150600090a2949350505050565b60006102c18484610316565b9050306001600160a01b0316816001600160a01b0316867fee35388dedada64879d062daba7379d8fdfd91167b74d128fe4948fd230985bf856040516103079190610a9e565b60405180910390a45050505050565b6000806000846040516103299190610a82565b908152604080516020928190038301812060808201835280546001600160a01b039081168084526001830154821695840195909552600282015481169383019390935260030154909116606082015291506103d55760405162461bcd60e51b815260206004820152602660248201527f466163746f72793a206661696c656420746f2066696e6420696d706c656d656e6044820152653a30ba34b7b760d11b6064820152608401610176565b60208101516001600160a01b03166104555760405162461bcd60e51b815260206004820152602c60248201527f466163746f72793a206465706f7369745665726966696572206164647265737360448201527f20697320726571756972656400000000000000000000000000000000000000006064820152608401610176565b60408101516001600160a01b03166104d55760405162461bcd60e51b815260206004820152602d60248201527f466163746f72793a20776974686472617756657269666965722061646472657360448201527f73206973207265717569726564000000000000000000000000000000000000006064820152608401610176565b60006104e48260000151610755565b90506001600160a01b03811661054c5760405162461bcd60e51b815260206004820152602760248201527f466163746f72793a206661696c656420746f20636c6f6e6520696d706c656d65604482015266373a30ba34b7b760c91b6064820152608401610176565b6060820151602083015160408085015190517ff8c8765e0000000000000000000000000000000000000000000000000000000081526001600160a01b03888116600483015293841660248201529183166044830152821660648201529082169063f8c8765e90608401610247565b80516001600160a01b03166106375760405162461bcd60e51b815260206004820152602b60248201527f466163746f72793a20696d706c656d656e746174696f6e20616464726573732060448201527f69732072657175697265640000000000000000000000000000000000000000006064820152608401610176565b60608101516001600160a01b03166106b75760405162461bcd60e51b815260206004820152602560248201527f466163746f72793a20766572696669657220616464726573732069732072657160448201527f75697265640000000000000000000000000000000000000000000000000000006064820152608401610176565b806000836040516106c89190610a82565b9081526040805160209281900383019020835181547fffffffffffffffffffffffff00000000000000000000000000000000000000009081166001600160a01b039283161783559385015160018301805486169183169190911790559184015160028201805485169184169190911790556060909301516003909301805490921692169190911790555050565b6000763d602d80600a3d3981f3363d3d373d3d3d363d730000008260601b60e81c176000526e5af43d82803e903d91602b57fd5bf38260781b17602052603760096000f090506001600160a01b0381166107db576040517fc2f868f400000000000000000000000000000000000000000000000000000000815260040160405180910390fd5b919050565b7f4e487b7100000000000000000000000000000000000000000000000000000000600052604160045260246000fd5b600067ffffffffffffffff8084111561082a5761082a6107e0565b604051601f8501601f19908116603f01168101908282118183101715610852576108526107e0565b8160405280935085815286868601111561086b57600080fd5b858560208301376000602087830101525050509392505050565b600082601f83011261089657600080fd5b6108a58383356020850161080f565b9392505050565b80356001600160a01b03811681146107db57600080fd5b600080604083850312156108d657600080fd5b823567ffffffffffffffff8111156108ed57600080fd5b6108f985828601610885565b925050610908602084016108ac565b90509250929050565b6000806000806080858703121561092757600080fd5b84359350602085013567ffffffffffffffff8082111561094657600080fd5b61095288838901610885565b9450610960604088016108ac565b9350606087013591508082111561097657600080fd5b508501601f8101871361098857600080fd5b6109978782356020840161080f565b91505092959194509250565b60008082840360a08112156109b757600080fd5b833567ffffffffffffffff808211156109cf57600080fd5b6109db87838801610885565b94506080601f19840112156109ef57600080fd5b60405192506080830191508282108183111715610a0e57610a0e6107e0565b50604052610a1e602085016108ac565b8152610a2c604085016108ac565b6020820152610a3d606085016108ac565b6040820152610a4e608085016108ac565b6060820152809150509250929050565b60005b83811015610a79578181015183820152602001610a61565b50506000910152565b60008251610a94818460208701610a5e565b9190910192915050565b6020815260008251806020840152610abd816040850160208701610a5e565b601f01601f1916919091016040019291505056fea26469706673582212203dcd9589ebd5f74a22ceaa8cfd01a6225863954717dbd858c6dc72a81b0fc88464736f6c63430008140033",
  "linkReferences": {},
  "deployedLinkReferences": {}
}