{
  "_format": "hh-sol-artifact-1",
  "contractName": "Zeto_NfAnon",
  "sourceName": "contracts/zeto_nf_anon.sol",
  "abi": [
    {
      "inputs": [
        {
          "internalType": "address",
          "name": "target",
          "type": "address"
        }
      ],
      "name": "AddressEmptyCode",
      "type": "error"
    },
    {
      "inputs": [
        {
          "internalType": "address",
          "name": "implementation",
          "type": "address"
        }
      ],
      "name": "ERC1967InvalidImplementation",
      "type": "error"
    },
    {
      "inputs": [],
      "name": "ERC1967NonPayable",
      "type": "error"
    },
    {
      "inputs": [],
      "name": "FailedInnerCall",
      "type": "error"
    },
    {
      "inputs": [
        {
          "internalType": "address",
          "name": "addr",
          "type": "address"
        }
      ],
      "name": "IdentityNotRegistered",
      "type": "error"
    },
    {
      "inputs": [],
      "name": "InvalidInitialization",
      "type": "error"
    },
    {
      "inputs": [],
      "name": "NotInitializing",
      "type": "error"
    },
    {
      "inputs": [
        {
          "internalType": "address",
          "name": "owner",
          "type": "address"
        }
      ],
      "name": "OwnableInvalidOwner",
      "type": "error"
    },
    {
      "inputs": [
        {
          "internalType": "address",
          "name": "account",
          "type": "address"
        }
      ],
      "name": "OwnableUnauthorizedAccount",
      "type": "error"
    },
    {
      "inputs": [
        {
          "internalType": "uint256",
          "name": "utxo",
          "type": "uint256"
        }
      ],
      "name": "UTXOAlreadyOwned",
      "type": "error"
    },
    {
      "inputs": [
        {
          "internalType": "uint256",
          "name": "utxo",
          "type": "uint256"
        }
      ],
      "name": "UTXOAlreadySpent",
      "type": "error"
    },
    {
      "inputs": [
        {
          "internalType": "uint256",
          "name": "utxo",
          "type": "uint256"
        }
      ],
      "name": "UTXODuplicate",
      "type": "error"
    },
    {
      "inputs": [
        {
          "internalType": "uint256",
          "name": "utxo",
          "type": "uint256"
        }
      ],
      "name": "UTXONotMinted",
      "type": "error"
    },
    {
      "inputs": [],
      "name": "UUPSUnauthorizedCallContext",
      "type": "error"
    },
    {
      "inputs": [
        {
          "internalType": "bytes32",
          "name": "slot",
          "type": "bytes32"
        }
      ],
      "name": "UUPSUnsupportedProxiableUUID",
      "type": "error"
    },
    {
      "anonymous": false,
      "inputs": [
        {
          "indexed": false,
          "internalType": "uint64",
          "name": "version",
          "type": "uint64"
        }
      ],
      "name": "Initialized",
      "type": "event"
    },
    {
      "anonymous": false,
      "inputs": [
        {
          "indexed": true,
          "internalType": "address",
          "name": "previousOwner",
          "type": "address"
        },
        {
          "indexed": true,
          "internalType": "address",
          "name": "newOwner",
          "type": "address"
        }
      ],
      "name": "OwnershipTransferred",
      "type": "event"
    },
    {
      "anonymous": false,
      "inputs": [
        {
          "indexed": false,
          "internalType": "uint256[]",
          "name": "outputs",
          "type": "uint256[]"
        },
        {
          "indexed": true,
          "internalType": "address",
          "name": "submitter",
          "type": "address"
        }
      ],
      "name": "UTXOMint",
      "type": "event"
    },
    {
      "anonymous": false,
      "inputs": [
        {
          "indexed": false,
          "internalType": "uint256[]",
          "name": "inputs",
          "type": "uint256[]"
        },
        {
          "indexed": false,
          "internalType": "uint256[]",
          "name": "outputs",
          "type": "uint256[]"
        },
        {
          "indexed": true,
          "internalType": "address",
          "name": "submitter",
          "type": "address"
        }
      ],
      "name": "UTXOTransfer",
      "type": "event"
    },
    {
      "anonymous": false,
      "inputs": [
        {
          "indexed": false,
          "internalType": "uint256[]",
          "name": "inputs",
          "type": "uint256[]"
        },
        {
          "indexed": false,
          "internalType": "uint256[]",
          "name": "outputs",
          "type": "uint256[]"
        },
        {
          "indexed": false,
          "internalType": "uint256",
          "name": "encryptionNonce",
          "type": "uint256"
        },
        {
          "indexed": false,
          "internalType": "uint256[]",
          "name": "encryptedValues",
          "type": "uint256[]"
        },
        {
          "indexed": true,
          "internalType": "address",
          "name": "submitter",
          "type": "address"
        }
      ],
      "name": "UTXOTransferWithEncryptedValues",
      "type": "event"
    },
    {
      "anonymous": false,
      "inputs": [
        {
          "indexed": true,
          "internalType": "address",
          "name": "implementation",
          "type": "address"
        }
      ],
      "name": "Upgraded",
      "type": "event"
    },
    {
      "inputs": [],
      "name": "UPGRADE_INTERFACE_VERSION",
      "outputs": [
        {
          "internalType": "string",
          "name": "",
          "type": "string"
        }
      ],
      "stateMutability": "view",
      "type": "function"
    },
    {
      "inputs": [
        {
          "internalType": "address",
          "name": "initialOwner",
          "type": "address"
        },
        {
          "internalType": "contract Groth16Verifier_NfAnon",
          "name": "_verifier",
          "type": "address"
        }
      ],
      "name": "initialize",
      "outputs": [],
      "stateMutability": "nonpayable",
      "type": "function"
    },
    {
      "inputs": [
        {
          "components": [
            {
              "internalType": "uint256[2]",
              "name": "pA",
              "type": "uint256[2]"
            },
            {
              "internalType": "uint256[2][2]",
              "name": "pB",
              "type": "uint256[2][2]"
            },
            {
              "internalType": "uint256[2]",
              "name": "pC",
              "type": "uint256[2]"
            }
          ],
          "internalType": "struct Commonlib.Proof",
          "name": "proof",
          "type": "tuple"
        }
      ],
      "name": "lockProof",
      "outputs": [],
      "stateMutability": "nonpayable",
      "type": "function"
    },
    {
      "inputs": [
        {
          "internalType": "uint256[]",
          "name": "utxos",
          "type": "uint256[]"
        }
      ],
      "name": "mint",
      "outputs": [],
      "stateMutability": "nonpayable",
      "type": "function"
    },
    {
      "inputs": [],
      "name": "owner",
      "outputs": [
        {
          "internalType": "address",
          "name": "",
          "type": "address"
        }
      ],
      "stateMutability": "view",
      "type": "function"
    },
    {
      "inputs": [],
      "name": "proxiableUUID",
      "outputs": [
        {
          "internalType": "bytes32",
          "name": "",
          "type": "bytes32"
        }
      ],
      "stateMutability": "view",
      "type": "function"
    },
    {
      "inputs": [],
      "name": "renounceOwnership",
      "outputs": [],
      "stateMutability": "nonpayable",
      "type": "function"
    },
    {
      "inputs": [
        {
          "internalType": "uint256",
          "name": "txo",
          "type": "uint256"
        }
      ],
      "name": "spent",
      "outputs": [
        {
          "internalType": "bool",
          "name": "",
          "type": "bool"
        }
      ],
      "stateMutability": "view",
      "type": "function"
    },
    {
      "inputs": [
        {
          "internalType": "uint256",
          "name": "input",
          "type": "uint256"
        },
        {
          "internalType": "uint256",
          "name": "output",
          "type": "uint256"
        },
        {
          "components": [
            {
              "internalType": "uint256[2]",
              "name": "pA",
              "type": "uint256[2]"
            },
            {
              "internalType": "uint256[2][2]",
              "name": "pB",
              "type": "uint256[2][2]"
            },
            {
              "internalType": "uint256[2]",
              "name": "pC",
              "type": "uint256[2]"
            }
          ],
          "internalType": "struct Commonlib.Proof",
          "name": "proof",
          "type": "tuple"
        }
      ],
      "name": "transfer",
      "outputs": [
        {
          "internalType": "bool",
          "name": "",
          "type": "bool"
        }
      ],
      "stateMutability": "nonpayable",
      "type": "function"
    },
    {
      "inputs": [
        {
          "internalType": "address",
          "name": "newOwner",
          "type": "address"
        }
      ],
      "name": "transferOwnership",
      "outputs": [],
      "stateMutability": "nonpayable",
      "type": "function"
    },
    {
      "inputs": [
        {
          "internalType": "address",
          "name": "newImplementation",
          "type": "address"
        },
        {
          "internalType": "bytes",
          "name": "data",
          "type": "bytes"
        }
      ],
      "name": "upgradeToAndCall",
      "outputs": [],
      "stateMutability": "payable",
      "type": "function"
    }
  ],
  "bytecode": "0x60a06040523073ffffffffffffffffffffffffffffffffffffffff1660809073ffffffffffffffffffffffffffffffffffffffff1681525034801561004357600080fd5b50608051612c6c61006d600039600081816109f401528181610a490152610c040152612c6c6000f3fe60806040526004361061009c5760003560e01c80638da5cb5b116100645780638da5cb5b14610165578063ad3cb1cc14610190578063d5b5cc23146101bb578063f2fde38b146101f8578063f399f12214610221578063f8e93ef91461024a5761009c565b8063485cc955146100a15780634f1ef286146100ca57806352d1902d146100e657806356c48ef214610111578063715018a61461014e575b600080fd5b3480156100ad57600080fd5b506100c860048036038101906100c39190611f35565b610273565b005b6100e460048036038101906100df91906120bb565b610444565b005b3480156100f257600080fd5b506100fb610463565b6040516101089190612130565b60405180910390f35b34801561011d57600080fd5b50610138600480360381019061013391906121a6565b610496565b6040516101459190612215565b60405180910390f35b34801561015a57600080fd5b506101636107ed565b005b34801561017157600080fd5b5061017a610801565b604051610187919061223f565b60405180910390f35b34801561019c57600080fd5b506101a5610839565b6040516101b291906122d9565b60405180910390f35b3480156101c757600080fd5b506101e260048036038101906101dd91906122fb565b610872565b6040516101ef9190612215565b60405180910390f35b34801561020457600080fd5b5061021f600480360381019061021a9190612328565b6108c2565b005b34801561022d57600080fd5b5061024860048036038101906102439190612355565b610948565b005b34801561025657600080fd5b50610271600480360381019061026c919061244b565b6109aa565b005b600061027d6109b6565b905060008160000160089054906101000a900460ff1615905060008260000160009054906101000a900467ffffffffffffffff1690506000808267ffffffffffffffff161480156102cb5750825b9050600060018367ffffffffffffffff16148015610300575060003073ffffffffffffffffffffffffffffffffffffffff163b145b90508115801561030e575080155b15610345576040517ff92ee8a900000000000000000000000000000000000000000000000000000000815260040160405180910390fd5b60018560000160006101000a81548167ffffffffffffffff021916908367ffffffffffffffff16021790555083156103955760018560000160086101000a81548160ff0219169083151502179055505b61039e876109de565b85600260006101000a81548173ffffffffffffffffffffffffffffffffffffffff021916908373ffffffffffffffffffffffffffffffffffffffff160217905550831561043b5760008560000160086101000a81548160ff0219169083151502179055507fc7f505b2f371ae2175ee4913f4499e1f2633a7b5936321eed1cdaeb6115181d2600160405161043291906124ed565b60405180910390a15b50505050505050565b61044c6109f2565b61045582610ad8565b61045f8282610ae3565b5050565b600061046d610c02565b7f360894a13ba1a3210667c828492db98dca3e2076cc3735a920a3ca505d382bbc60001b905090565b60006104cd604051806040016040528086815260200160008152506040518060400160405280868152602001600081525084610c89565b61050c576040517f08c379a000000000000000000000000000000000000000000000000000000000815260040161050390612554565b60405180910390fd5b610514611e63565b848160006002811061052957610528612574565b5b602002018181525050838160016002811061054757610546612574565b5b602002018181525050600260009054906101000a900473ffffffffffffffffffffffffffffffffffffffff1673ffffffffffffffffffffffffffffffffffffffff1663f5c9d69e84600001856040018660c001856040518563ffffffff1660e01b81526004016105ba9493929190612726565b602060405180830381865afa1580156105d7573d6000803e3d6000fd5b505050506040513d601f19601f820116820180604052508101906105fb9190612799565b61063a576040517f08c379a000000000000000000000000000000000000000000000000000000000815260040161063190612812565b60405180910390fd5b60026001600087815260200190815260200160002060006101000a81548160ff0219169083600281111561067157610670612832565b5b0217905550600180600086815260200190815260200160002060006101000a81548160ff021916908360028111156106ac576106ab612832565b5b02179055506000600167ffffffffffffffff8111156106ce576106cd611f90565b5b6040519080825280602002602001820160405280156106fc5781602001602082028036833780820191505090505b5090506000600167ffffffffffffffff81111561071c5761071b611f90565b5b60405190808252806020026020018201604052801561074a5781602001602082028036833780820191505090505b509050868260008151811061076257610761612574565b5b602002602001018181525050858160008151811061078357610782612574565b5b6020026020010181815250503373ffffffffffffffffffffffffffffffffffffffff167f496fa6eb603ec479463eabcc539fa6dea4116d09a8b84ef626b22e537512714a83836040516107d79291906128f8565b60405180910390a2600193505050509392505050565b6107f561128a565b6107ff6000611311565b565b60008061080c6113e8565b90508060000160009054906101000a900473ffffffffffffffffffffffffffffffffffffffff1691505090565b6040518060400160405280600581526020017f352e302e3000000000000000000000000000000000000000000000000000000081525081565b600060028081111561088757610886612832565b5b6001600084815260200190815260200160002060009054906101000a900460ff1660028111156108ba576108b9612832565b5b149050919050565b6108ca61128a565b600073ffffffffffffffffffffffffffffffffffffffff168173ffffffffffffffffffffffffffffffffffffffff160361093c5760006040517f1e4fbdf7000000000000000000000000000000000000000000000000000000008152600401610933919061223f565b60405180910390fd5b61094581611311565b50565b600061095382611410565b90503360008083815260200190815260200160002060006101000a81548173ffffffffffffffffffffffffffffffffffffffff021916908373ffffffffffffffffffffffffffffffffffffffff1602179055505050565b6109b3816115b2565b50565b60007ff0c57e16840df040f15088dc2f81fe391c3923bec73e23a9662efc9c229c6a00905090565b6109e661178d565b6109ef816117cd565b50565b7f000000000000000000000000000000000000000000000000000000000000000073ffffffffffffffffffffffffffffffffffffffff163073ffffffffffffffffffffffffffffffffffffffff161480610a9f57507f000000000000000000000000000000000000000000000000000000000000000073ffffffffffffffffffffffffffffffffffffffff16610a866117e1565b73ffffffffffffffffffffffffffffffffffffffff1614155b15610ad6576040517fe07c8dba00000000000000000000000000000000000000000000000000000000815260040160405180910390fd5b565b610ae061128a565b50565b8173ffffffffffffffffffffffffffffffffffffffff166352d1902d6040518163ffffffff1660e01b8152600401602060405180830381865afa925050508015610b4b57506040513d601f19601f82011682018060405250810190610b48919061295b565b60015b610b8c57816040517f4c9c8ce3000000000000000000000000000000000000000000000000000000008152600401610b83919061223f565b60405180910390fd5b7f360894a13ba1a3210667c828492db98dca3e2076cc3735a920a3ca505d382bbc60001b8114610bf357806040517faa1d49a4000000000000000000000000000000000000000000000000000000008152600401610bea9190612130565b60405180910390fd5b610bfd8383611838565b505050565b7f000000000000000000000000000000000000000000000000000000000000000073ffffffffffffffffffffffffffffffffffffffff163073ffffffffffffffffffffffffffffffffffffffff1614610c87576040517fe07c8dba00000000000000000000000000000000000000000000000000000000815260040160405180910390fd5b565b6000806000610c9886866118ab565b9150915060005b8251811015610f01576000838281518110610cbd57610cbc612574565b5b60200260200101510315610ef057600081118015610d1a575082600182610ce491906129b7565b81518110610cf557610cf4612574565b5b6020026020010151838281518110610d1057610d0f612574565b5b6020026020010151145b15610d7657828181518110610d3257610d31612574565b5b60200260200101516040517fdd574831000000000000000000000000000000000000000000000000000000008152600401610d6d91906129fa565b60405180910390fd5b60006002811115610d8a57610d89612832565b5b60016000858481518110610da157610da0612574565b5b6020026020010151815260200190815260200160002060009054906101000a900460ff166002811115610dd757610dd6612832565b5b03610e3357828181518110610def57610dee612574565b5b60200260200101516040517f83925127000000000000000000000000000000000000000000000000000000008152600401610e2a91906129fa565b60405180910390fd5b600280811115610e4657610e45612832565b5b60016000858481518110610e5d57610e5c612574565b5b6020026020010151815260200190815260200160002060009054906101000a900460ff166002811115610e9357610e92612832565b5b03610eef57828181518110610eab57610eaa612574565b5b60200260200101516040517f41a06d28000000000000000000000000000000000000000000000000000000008152600401610ee691906129fa565b60405180910390fd5b5b80610efa90612a15565b9050610c9f565b5060005b8151811015611167576000828281518110610f2357610f22612574565b5b6020026020010151031561115657600081118015610f80575081600182610f4a91906129b7565b81518110610f5b57610f5a612574565b5b6020026020010151828281518110610f7657610f75612574565b5b6020026020010151145b15610fdc57818181518110610f9857610f97612574565b5b60200260200101516040517fdd574831000000000000000000000000000000000000000000000000000000008152600401610fd391906129fa565b60405180910390fd5b600280811115610fef57610fee612832565b5b6001600084848151811061100657611005612574565b5b6020026020010151815260200190815260200160002060009054906101000a900460ff16600281111561103c5761103b612832565b5b036110985781818151811061105457611053612574565b5b60200260200101516040517f41a06d2800000000000000000000000000000000000000000000000000000000815260040161108f91906129fa565b60405180910390fd5b600160028111156110ac576110ab612832565b5b600160008484815181106110c3576110c2612574565b5b6020026020010151815260200190815260200160002060009054906101000a900460ff1660028111156110f9576110f8612832565b5b036111555781818151811061111157611110612574565b5b60200260200101516040517f79e1da4700000000000000000000000000000000000000000000000000000000815260040161114c91906129fa565b60405180910390fd5b5b8061116090612a15565b9050610f05565b50600061117385611410565b9050600073ffffffffffffffffffffffffffffffffffffffff1660008083815260200190815260200160002060009054906101000a900473ffffffffffffffffffffffffffffffffffffffff1673ffffffffffffffffffffffffffffffffffffffff161461127c573373ffffffffffffffffffffffffffffffffffffffff1660008083815260200190815260200160002060009054906101000a900473ffffffffffffffffffffffffffffffffffffffff1673ffffffffffffffffffffffffffffffffffffffff161461127b576040517f08c379a000000000000000000000000000000000000000000000000000000000815260040161127290612acf565b60405180910390fd5b5b600193505050509392505050565b611292611a19565b73ffffffffffffffffffffffffffffffffffffffff166112b0610801565b73ffffffffffffffffffffffffffffffffffffffff161461130f576112d3611a19565b6040517f118cdaa7000000000000000000000000000000000000000000000000000000008152600401611306919061223f565b60405180910390fd5b565b600061131b6113e8565b905060008160000160009054906101000a900473ffffffffffffffffffffffffffffffffffffffff169050828260000160006101000a81548173ffffffffffffffffffffffffffffffffffffffff021916908373ffffffffffffffffffffffffffffffffffffffff1602179055508273ffffffffffffffffffffffffffffffffffffffff168173ffffffffffffffffffffffffffffffffffffffff167f8be0079c531659141344cd1fd0a4f28419497f9722a3daafe3b4186f6b6457e060405160405180910390a3505050565b60007f9016d09d72d40fdae2fd8ceac6b6234c7706214fd39c1cd1e609a0528c199300905090565b6000806040518061010001604052808460000160006002811061143657611435612574565b5b602002013581526020018460000160016002811061145757611456612574565b5b602002013581526020018460400160006002811061147857611477612574565b5b6040020160006002811061148f5761148e612574565b5b60200201358152602001846040016000600281106114b0576114af612574565b5b604002016001600281106114c7576114c6612574565b5b60200201358152602001846040016001600281106114e8576114e7612574565b5b604002016000600281106114ff576114fe612574565b5b60200201358152602001846040016001600281106115205761151f612574565b5b6040020160016002811061153757611536612574565b5b602002013581526020018460c00160006002811061155857611557612574565b5b602002013581526020018460c00160016002811061157957611578612574565b5b60200201358152509050806040516020016115949190612b9a565b60405160208183030381529060405280519060200120915050919050565b60005b815181101561173b5760008282815181106115d3576115d2612574565b5b60200260200101519050600160028111156115f1576115f0612832565b5b6001600083815260200190815260200160002060009054906101000a900460ff16600281111561162457611623612832565b5b0361166657806040517f79e1da4700000000000000000000000000000000000000000000000000000000815260040161165d91906129fa565b60405180910390fd5b60028081111561167957611678612832565b5b6001600083815260200190815260200160002060009054906101000a900460ff1660028111156116ac576116ab612832565b5b036116ee57806040517f41a06d280000000000000000000000000000000000000000000000000000000081526004016116e591906129fa565b60405180910390fd5b600180600083815260200190815260200160002060006101000a81548160ff0219169083600281111561172457611723612832565b5b0217905550508061173490612a15565b90506115b5565b503373ffffffffffffffffffffffffffffffffffffffff167fdb80d3b089e1589711b813197a50a3f7b4060a86e3fdf5b549366090f4e6d904826040516117829190612bb6565b60405180910390a250565b611795611a21565b6117cb576040517fd7e6bcf800000000000000000000000000000000000000000000000000000000815260040160405180910390fd5b565b6117d561178d565b6117de81611a41565b50565b600061180f7f360894a13ba1a3210667c828492db98dca3e2076cc3735a920a3ca505d382bbc60001b611a55565b60000160009054906101000a900473ffffffffffffffffffffffffffffffffffffffff16905090565b61184182611a5f565b8173ffffffffffffffffffffffffffffffffffffffff167fbc7cd75a20ee27fd9adebab32041f755214dbc6bffa90cc0225b39da2e5c2d3b60405160405180910390a260008151111561189e576118988282611b2c565b506118a7565b6118a6611bb0565b5b5050565b6060806000600267ffffffffffffffff8111156118cb576118ca611f90565b5b6040519080825280602002602001820160405280156118f95781602001602082028036833780820191505090505b5090506000600267ffffffffffffffff81111561191957611918611f90565b5b6040519080825280602002602001820160405280156119475781602001602082028036833780820191505090505b50905060005b600281101561199e5786816002811061196957611968612574565b5b602002015183828151811061198157611980612574565b5b6020026020010181815250508061199790612a15565b905061194d565b5060005b60028110156119f3578581600281106119be576119bd612574565b5b60200201518282815181106119d6576119d5612574565b5b602002602001018181525050806119ec90612a15565b90506119a2565b506119fd82611bed565b9150611a0881611bed565b905081819350935050509250929050565b600033905090565b6000611a2b6109b6565b60000160089054906101000a900460ff16905090565b611a4961178d565b611a5281611c22565b50565b6000819050919050565b60008173ffffffffffffffffffffffffffffffffffffffff163b03611abb57806040517f4c9c8ce3000000000000000000000000000000000000000000000000000000008152600401611ab2919061223f565b60405180910390fd5b80611ae87f360894a13ba1a3210667c828492db98dca3e2076cc3735a920a3ca505d382bbc60001b611a55565b60000160006101000a81548173ffffffffffffffffffffffffffffffffffffffff021916908373ffffffffffffffffffffffffffffffffffffffff16021790555050565b60606000808473ffffffffffffffffffffffffffffffffffffffff1684604051611b569190612c1f565b600060405180830381855af49150503d8060008114611b91576040519150601f19603f3d011682016040523d82523d6000602084013e611b96565b606091505b5091509150611ba6858383611ca8565b9250505092915050565b6000341115611beb576040517fb398979f00000000000000000000000000000000000000000000000000000000815260040160405180910390fd5b565b60606000611bfa83611d37565b9050611c19611c0882611d41565b611c1183611d4e565b611d66611d73565b82915050919050565b611c2a61178d565b600073ffffffffffffffffffffffffffffffffffffffff168173ffffffffffffffffffffffffffffffffffffffff1603611c9c5760006040517f1e4fbdf7000000000000000000000000000000000000000000000000000000008152600401611c93919061223f565b60405180910390fd5b611ca581611311565b50565b606082611cbd57611cb882611e03565b611d2f565b60008251148015611ce5575060008473ffffffffffffffffffffffffffffffffffffffff163b145b15611d2757836040517f9996b315000000000000000000000000000000000000000000000000000000008152600401611d1e919061223f565b60405180910390fd5b819050611d30565b5b9392505050565b6060819050919050565b6000602082019050919050565b60006020825102611d5e83611d41565b019050919050565b6000818310905092915050565b604083830310611dfe576000611d8884611e48565b9050600084905060006020860190505b84811015611dd757611db6611dac82611e48565b848663ffffffff16565b15611dcc57602082019150611dcb8282611e53565b5b602081019050611d98565b50611de28582611e53565b611ded858285611d73565b611dfb602082018585611d73565b50505b505050565b600081511115611e165780518082602001fd5b6040517f1425ea4200000000000000000000000000000000000000000000000000000000815260040160405180910390fd5b600081519050919050565b8151815180845281835250505050565b6040518060400160405280600290602082028036833780820191505090505090565b6000604051905090565b600080fd5b600080fd5b600073ffffffffffffffffffffffffffffffffffffffff82169050919050565b6000611ec482611e99565b9050919050565b611ed481611eb9565b8114611edf57600080fd5b50565b600081359050611ef181611ecb565b92915050565b6000611f0282611eb9565b9050919050565b611f1281611ef7565b8114611f1d57600080fd5b50565b600081359050611f2f81611f09565b92915050565b60008060408385031215611f4c57611f4b611e8f565b5b6000611f5a85828601611ee2565b9250506020611f6b85828601611f20565b9150509250929050565b600080fd5b600080fd5b6000601f19601f8301169050919050565b7f4e487b7100000000000000000000000000000000000000000000000000000000600052604160045260246000fd5b611fc882611f7f565b810181811067ffffffffffffffff82111715611fe757611fe6611f90565b5b80604052505050565b6000611ffa611e85565b90506120068282611fbf565b919050565b600067ffffffffffffffff82111561202657612025611f90565b5b61202f82611f7f565b9050602081019050919050565b82818337600083830152505050565b600061205e6120598461200b565b611ff0565b90508281526020810184848401111561207a57612079611f7a565b5b61208584828561203c565b509392505050565b600082601f8301126120a2576120a1611f75565b5b81356120b284826020860161204b565b91505092915050565b600080604083850312156120d2576120d1611e8f565b5b60006120e085828601611ee2565b925050602083013567ffffffffffffffff81111561210157612100611e94565b5b61210d8582860161208d565b9150509250929050565b6000819050919050565b61212a81612117565b82525050565b60006020820190506121456000830184612121565b92915050565b6000819050919050565b61215e8161214b565b811461216957600080fd5b50565b60008135905061217b81612155565b92915050565b600080fd5b6000610100828403121561219d5761219c612181565b5b81905092915050565b600080600061014084860312156121c0576121bf611e8f565b5b60006121ce8682870161216c565b93505060206121df8682870161216c565b92505060406121f086828701612186565b9150509250925092565b60008115159050919050565b61220f816121fa565b82525050565b600060208201905061222a6000830184612206565b92915050565b61223981611eb9565b82525050565b60006020820190506122546000830184612230565b92915050565b600081519050919050565b600082825260208201905092915050565b60005b83811015612294578082015181840152602081019050612279565b60008484015250505050565b60006122ab8261225a565b6122b58185612265565b93506122c5818560208601612276565b6122ce81611f7f565b840191505092915050565b600060208201905081810360008301526122f381846122a0565b905092915050565b60006020828403121561231157612310611e8f565b5b600061231f8482850161216c565b91505092915050565b60006020828403121561233e5761233d611e8f565b5b600061234c84828501611ee2565b91505092915050565b6000610100828403121561236c5761236b611e8f565b5b600061237a84828501612186565b91505092915050565b600067ffffffffffffffff82111561239e5761239d611f90565b5b602082029050602081019050919050565b600080fd5b60006123c76123c284612383565b611ff0565b905080838252602082019050602084028301858111156123ea576123e96123af565b5b835b8181101561241357806123ff888261216c565b8452602084019350506020810190506123ec565b5050509392505050565b600082601f83011261243257612431611f75565b5b81356124428482602086016123b4565b91505092915050565b60006020828403121561246157612460611e8f565b5b600082013567ffffffffffffffff81111561247f5761247e611e94565b5b61248b8482850161241d565b91505092915050565b6000819050919050565b600067ffffffffffffffff82169050919050565b6000819050919050565b60006124d76124d26124cd84612494565b6124b2565b61249e565b9050919050565b6124e7816124bc565b82525050565b600060208201905061250260008301846124de565b92915050565b7f496e76616c6964207472616e73616374696f6e2070726f706f73616c00000000600082015250565b600061253e601c83612265565b915061254982612508565b602082019050919050565b6000602082019050818103600083015261256d81612531565b9050919050565b7f4e487b7100000000000000000000000000000000000000000000000000000000600052603260045260246000fd5b82818337505050565b6125b8604083836125a3565b5050565b600060029050919050565b600081905092915050565b6000819050919050565b6125e8604083836125a3565b5050565b60006125f883836125dc565b60408301905092915050565b600082905092915050565b6000604082019050919050565b612625816125bc565b61262f81846125c7565b925061263a826125d2565b8060005b83811015612673576126508284612604565b61265a87826125ec565b96506126658361260f565b92505060018101905061263e565b505050505050565b600060029050919050565b600081905092915050565b6000819050919050565b6126a48161214b565b82525050565b60006126b6838361269b565b60208301905092915050565b6000602082019050919050565b6126d88161267b565b6126e28184612686565b92506126ed82612691565b8060005b8381101561271e57815161270587826126aa565b9650612710836126c2565b9250506001810190506126f1565b505050505050565b60006101408201905061273c60008301876125ac565b612749604083018661261c565b61275660c08301856125ac565b6127646101008301846126cf565b95945050505050565b612776816121fa565b811461278157600080fd5b50565b6000815190506127938161276d565b92915050565b6000602082840312156127af576127ae611e8f565b5b60006127bd84828501612784565b91505092915050565b7f496e76616c69642070726f6f6600000000000000000000000000000000000000600082015250565b60006127fc600d83612265565b9150612807826127c6565b602082019050919050565b6000602082019050818103600083015261282b816127ef565b9050919050565b7f4e487b7100000000000000000000000000000000000000000000000000000000600052602160045260246000fd5b600081519050919050565b600082825260208201905092915050565b6000819050602082019050919050565b6000602082019050919050565b60006128a582612861565b6128af818561286c565b93506128ba8361287d565b8060005b838110156128eb5781516128d288826126aa565b97506128dd8361288d565b9250506001810190506128be565b5085935050505092915050565b60006040820190508181036000830152612912818561289a565b90508181036020830152612926818461289a565b90509392505050565b61293881612117565b811461294357600080fd5b50565b6000815190506129558161292f565b92915050565b60006020828403121561297157612970611e8f565b5b600061297f84828501612946565b91505092915050565b7f4e487b7100000000000000000000000000000000000000000000000000000000600052601160045260246000fd5b60006129c28261214b565b91506129cd8361214b565b92508282039050818111156129e5576129e4612988565b5b92915050565b6129f48161214b565b82525050565b6000602082019050612a0f60008301846129eb565b92915050565b6000612a208261214b565b91507fffffffffffffffffffffffffffffffffffffffffffffffffffffffffffffffff8203612a5257612a51612988565b5b600182019050919050565b7f4c6f636b65642070726f6f662063616e206f6e6c79206265207375626d69747460008201527f656420627920746865206c6f636b657220616464726573730000000000000000602082015250565b6000612ab9603883612265565b9150612ac482612a5d565b604082019050919050565b60006020820190508181036000830152612ae881612aac565b9050919050565b600060089050919050565b600081905092915050565b6000819050919050565b612b188161214b565b82525050565b6000612b2a8383612b0f565b60208301905092915050565b6000602082019050919050565b612b4c81612aef565b612b568184612afa565b9250612b6182612b05565b8060005b83811015612b92578151612b798782612b1e565b9650612b8483612b36565b925050600181019050612b65565b505050505050565b6000612ba68284612b43565b6101008201915081905092915050565b60006020820190508181036000830152612bd0818461289a565b905092915050565b600081519050919050565b600081905092915050565b6000612bf982612bd8565b612c038185612be3565b9350612c13818560208601612276565b80840191505092915050565b6000612c2b8284612bee565b91508190509291505056fea2646970667358221220514efe6628e5b12e5799ed111a9463057652d840e03685348798ad67ef8edc2864736f6c63430008140033",
  "linkReferences": {},
  "deployedLinkReferences": {}
}