{
  "_format": "hh-sol-artifact-1",
  "contractName": "NotoFactory",
  "sourceName": "contracts/domains/noto/NotoFactory.sol",
  "abi": [
    {
      "inputs": [],
      "stateMutability": "nonpayable",
      "type": "constructor"
    },
    {
      "inputs": [],
      "name": "ERC1167FailedCreateClone",
      "type": "error"
    },
    {
      "inputs": [
        {
          "internalType": "address",
          "name": "owner",
          "type": "address"
        }
      ],
      "name": "OwnableInvalidOwner",
      "type": "error"
    },
    {
      "inputs": [
        {
          "internalType": "address",
          "name": "account",
          "type": "address"
        }
      ],
      "name": "OwnableUnauthorizedAccount",
      "type": "error"
    },
    {
      "anonymous": false,
      "inputs": [
        {
          "indexed": true,
          "internalType": "address",
          "name": "previousOwner",
          "type": "address"
        },
        {
          "indexed": true,
          "internalType": "address",
          "name": "newOwner",
          "type": "address"
        }
      ],
      "name": "OwnershipTransferred",
      "type": "event"
    },
    {
      "anonymous": false,
      "inputs": [
        {
          "indexed": true,
          "internalType": "bytes32",
          "name": "txId",
          "type": "bytes32"
        },
        {
          "indexed": true,
          "internalType": "address",
          "name": "instance",
          "type": "address"
        },
        {
          "indexed": false,
          "internalType": "bytes",
          "name": "config",
          "type": "bytes"
        }
      ],
      "name": "PaladinRegisterSmartContract_V0",
      "type": "event"
    },
    {
      "inputs": [
        {
          "internalType": "bytes32",
          "name": "transactionId",
          "type": "bytes32"
        },
        {
          "internalType": "address",
          "name": "notary",
          "type": "address"
        },
        {
          "internalType": "bytes",
          "name": "config",
          "type": "bytes"
        }
      ],
      "name": "deploy",
      "outputs": [],
      "stateMutability": "nonpayable",
      "type": "function"
    },
    {
      "inputs": [
        {
          "internalType": "string",
          "name": "name",
          "type": "string"
        },
        {
          "internalType": "bytes32",
          "name": "transactionId",
          "type": "bytes32"
        },
        {
          "internalType": "address",
          "name": "notary",
          "type": "address"
        },
        {
          "internalType": "bytes",
          "name": "config",
          "type": "bytes"
        }
      ],
      "name": "deployImplementation",
      "outputs": [],
      "stateMutability": "nonpayable",
      "type": "function"
    },
    {
      "inputs": [],
      "name": "owner",
      "outputs": [
        {
          "internalType": "address",
          "name": "",
          "type": "address"
        }
      ],
      "stateMutability": "view",
      "type": "function"
    },
    {
      "inputs": [
        {
          "internalType": "string",
          "name": "name",
          "type": "string"
        },
        {
          "internalType": "address",
          "name": "implementation",
          "type": "address"
        }
      ],
      "name": "registerImplementation",
      "outputs": [],
      "stateMutability": "nonpayable",
      "type": "function"
    },
    {
      "inputs": [],
      "name": "renounceOwnership",
      "outputs": [],
      "stateMutability": "nonpayable",
      "type": "function"
    },
    {
      "inputs": [
        {
          "internalType": "address",
          "name": "newOwner",
          "type": "address"
        }
      ],
      "name": "transferOwnership",
      "outputs": [],
      "stateMutability": "nonpayable",
      "type": "function"
    }
  ],
  "bytecode": "0x608060405234801561001057600080fd5b50338061003757604051631e4fbdf760e01b81526000600482015260240160405180910390fd5b610040816100b4565b5060405161004d90610104565b604051809103906000f080158015610069573d6000803e3d6000fd5b5060405166191959985d5b1d60ca1b815260019060070190815260405190819003602001902080546001600160a01b03929092166001600160a01b0319909216919091179055610111565b600080546001600160a01b038381166001600160a01b0319831681178455604051919092169283917f8be0079c531659141344cd1fd0a4f28419497f9722a3daafe3b4186f6b6457e09190a35050565b6120d5806108c883390190565b6107a8806101206000396000f3fe608060405234801561001057600080fd5b50600436106100725760003560e01c806387fe19b51161005057806387fe19b5146100a75780638da5cb5b146100ba578063f2fde38b146100d957600080fd5b80632781212e146100775780635d7712dc1461008c578063715018a61461009f575b600080fd5b61008a610085366004610493565b6100ec565b005b61008a61009a3660046104ed565b610149565b61008a6101a5565b61008a6100b5366004610541565b6101b9565b600054604080516001600160a01b039092168252519081900360200190f35b61008a6100e73660046105ce565b6101d6565b6101436001604051610121907f64656661756c7400000000000000000000000000000000000000000000000000815260070190565b908152604051908190036020019020546001600160a01b031685858585610232565b50505050565b610151610305565b80600184846040516101649291906105f0565b90815260405190819003602001902080546001600160a01b039290921673ffffffffffffffffffffffffffffffffffffffff19909216919091179055505050565b6101ad610305565b6101b7600061034b565b565b6101ce600187876040516101219291906105f0565b505050505050565b6101de610305565b6001600160a01b038116610226576040517f1e4fbdf7000000000000000000000000000000000000000000000000000000008152600060048201526024015b60405180910390fd5b61022f8161034b565b50565b600061023d866103a8565b90506000816001600160a01b031663d1f578948686866040518463ffffffff1660e01b815260040161027193929190610600565b6000604051808303816000875af1158015610290573d6000803e3d6000fd5b505050506040513d6000823e601f3d908101601f191682016040526102b89190810190610692565b9050816001600160a01b0316867fd77f43af9eba6f7c0ea72f4bad6bc58c3bd49e2cb299e128c91293b7ebc17f43836040516102f4919061073f565b60405180910390a350505050505050565b6000546001600160a01b031633146101b7576040517f118cdaa700000000000000000000000000000000000000000000000000000000815233600482015260240161021d565b600080546001600160a01b0383811673ffffffffffffffffffffffffffffffffffffffff19831681178455604051919092169283917f8be0079c531659141344cd1fd0a4f28419497f9722a3daafe3b4186f6b6457e09190a35050565b6000763d602d80600a3d3981f3363d3d373d3d3d363d730000008260601b60e81c176000526e5af43d82803e903d91602b57fd5bf38260781b17602052603760096000f090506001600160a01b03811661042e576040517fc2f868f400000000000000000000000000000000000000000000000000000000815260040160405180910390fd5b919050565b80356001600160a01b038116811461042e57600080fd5b60008083601f84011261045c57600080fd5b50813567ffffffffffffffff81111561047457600080fd5b60208301915083602082850101111561048c57600080fd5b9250929050565b600080600080606085870312156104a957600080fd5b843593506104b960208601610433565b9250604085013567ffffffffffffffff8111156104d557600080fd5b6104e18782880161044a565b95989497509550505050565b60008060006040848603121561050257600080fd5b833567ffffffffffffffff81111561051957600080fd5b6105258682870161044a565b9094509250610538905060208501610433565b90509250925092565b6000806000806000806080878903121561055a57600080fd5b863567ffffffffffffffff8082111561057257600080fd5b61057e8a838b0161044a565b90985096506020890135955086915061059960408a01610433565b945060608901359150808211156105af57600080fd5b506105bc89828a0161044a565b979a9699509497509295939492505050565b6000602082840312156105e057600080fd5b6105e982610433565b9392505050565b8183823760009101908152919050565b6001600160a01b038416815260406020820152816040820152818360608301376000818301606090810191909152601f909201601f1916010192915050565b7f4e487b7100000000000000000000000000000000000000000000000000000000600052604160045260246000fd5b60005b83811015610689578181015183820152602001610671565b50506000910152565b6000602082840312156106a457600080fd5b815167ffffffffffffffff808211156106bc57600080fd5b818401915084601f8301126106d057600080fd5b8151818111156106e2576106e261063f565b604051601f8201601f19908116603f0116810190838211818310171561070a5761070a61063f565b8160405282815287602084870101111561072357600080fd5b61073483602083016020880161066e565b979650505050505050565b602081526000825180602084015261075e81604085016020870161066e565b601f01601f1916919091016040019291505056fea2646970667358221220239e8fdc87cf92dce68a31505134e0dc2b810a552132ca57727963f973f0d0b964736f6c6343000814003360a06040523060805234801561001457600080fd5b5061001d610022565b6100d4565b7ff0c57e16840df040f15088dc2f81fe391c3923bec73e23a9662efc9c229c6a00805468010000000000000000900460ff16156100725760405163f92ee8a960e01b815260040160405180910390fd5b80546001600160401b03908116146100d15780546001600160401b0319166001600160401b0390811782556040519081527fc7f505b2f371ae2175ee4913f4499e1f2633a7b5936321eed1cdaeb6115181d29060200160405180910390a15b50565b608051611fd86100fd60003960008181610c2201528181610c4b0152610dd10152611fd86000f3fe6080604052600436106100d25760003560e01c80636e0f12981161007f57806384b0196e1161005957806384b0196e146102485780639e23a73214610270578063ad3cb1cc14610290578063d1f57894146102e657600080fd5b80636e0f1298146101a957806370f17e9a146101da578063746f6bb71461022857600080fd5b806352d1902d116100b057806352d1902d1461012c5780635adbade7146101545780635f20994d1461016957600080fd5b80630c57c6d5146100d757806325ddff73146100f95780634f1ef28614610119575b600080fd5b3480156100e357600080fd5b506100f76100f236600461173c565b610306565b005b34801561010557600080fd5b506100f76101143660046117d6565b6103bf565b6100f7610127366004611942565b6104a7565b34801561013857600080fd5b506101416104c6565b6040519081526020015b60405180910390f35b34801561016057600080fd5b50610141600081565b34801561017557600080fd5b506101996101843660046119a4565b60009081526001602052604090205460ff1690565b604051901515815260200161014b565b3480156101b557600080fd5b506101c1600160f01b81565b6040516001600160e01b0319909116815260200161014b565b3480156101e657600080fd5b506102106101f53660046119a4565b6000908152600260205260409020546001600160a01b031690565b6040516001600160a01b03909116815260200161014b565b34801561023457600080fd5b506100f76102433660046119bd565b6104f5565b34801561025457600080fd5b5061025d610514565b60405161014b9796959493929190611a78565b34801561027c57600080fd5b506100f761028b3660046117d6565b610615565b34801561029c57600080fd5b506102d96040518060400160405280600581526020017f352e302e3000000000000000000000000000000000000000000000000000000081525081565b60405161014b9190611b2a565b3480156102f257600080fd5b506102d9610301366004611b3d565b6107a9565b61030f336109af565b60606103b68188888080602002602001604051908101604052809392919081815260200183836020028082843760009201919091525050604080516020601f8c018190048102820181019092528a815292508a915089908190840183828082843760009201919091525050604080516020601f8b018190048102820181019092528981529250899150889081908401838280828437600092019190915250610a0492505050565b50505050505050565b6103c8336109af565b61049d88888080602002602001604051908101604052809392919081815260200183836020028082843760009201919091525050604080516020808c0282810182019093528b82529093508b92508a91829185019084908082843760009201919091525050604080516020601f8b01819004810282018101909252898152925089915088908190840183828082843760009201919091525050604080516020601f8a018190048102820181019092528881529250889150879081908401838280828437600092019190915250610a0492505050565b5050505050505050565b6104af610c17565b6104b882610cd0565b6104c28282610cd9565b5050565b60006104d0610dc6565b507f360894a13ba1a3210667c828492db98dca3e2076cc3735a920a3ca505d382bbc90565b6104fe336109af565b61050c868686868686610e0f565b505050505050565b600060608082808083817fa16a46d94261c7517cc8ff89f61c0ce93598e3c849801011dee649a6a557d100805490915015801561055357506001810154155b6105be576040517f08c379a000000000000000000000000000000000000000000000000000000000815260206004820152601560248201527f4549503731323a20556e696e697469616c697a6564000000000000000000000060448201526064015b60405180910390fd5b6105c6610e8d565b6105ce610f62565b604080516000808252602082019092527f0f000000000000000000000000000000000000000000000000000000000000009c939b5091995046985030975095509350915050565b6000610625898989898787610fb3565b6000818152600260205260409020549091506001600160a01b031633146106a157600081815260026020526040908190205490517faa3c89a1000000000000000000000000000000000000000000000000000000008152600481018390526001600160a01b0390911660248201523360448201526064016105b5565b61077689898080602002602001604051908101604052809392919081815260200183836020028082843760009201919091525050604080516020808d0282810182019093528c82529093508c92508b91829185019084908082843760009201919091525050604080516020601f8c018190048102820181019092528a815292508a915089908190840183828082843760009201919091525050604080516020601f8b018190048102820181019092528981529250899150889081908401838280828437600092019190915250610a0492505050565b6000908152600260205260409020805473ffffffffffffffffffffffffffffffffffffffff191690555050505050505050565b7ff0c57e16840df040f15088dc2f81fe391c3923bec73e23a9662efc9c229c6a0080546060919068010000000000000000810460ff16159067ffffffffffffffff166000811580156107f85750825b905060008267ffffffffffffffff1660011480156108155750303b155b905081158015610823575080155b1561085a576040517ff92ee8a900000000000000000000000000000000000000000000000000000000815260040160405180910390fd5b845467ffffffffffffffff19166001178555831561088e57845468ff00000000000000001916680100000000000000001785555b6109026040518060400160405280600481526020017f6e6f746f000000000000000000000000000000000000000000000000000000008152506040518060400160405280600581526020017f302e302e31000000000000000000000000000000000000000000000000000000815250611094565b6000805473ffffffffffffffffffffffffffffffffffffffff19166001600160a01b038b1617815561093489896110a6565b6001600160a01b038b16602082015260006040820152905061095581611192565b96505083156109a357845468ff000000000000000019168555604051600181527fc7f505b2f371ae2175ee4913f4499e1f2633a7b5936321eed1cdaeb6115181d29060200160405180910390a15b50505050509392505050565b6000546001600160a01b03828116911614610a01576040517f830743c90000000000000000000000000000000000000000000000000000000081526001600160a01b03821660048201526024016105b5565b50565b60005b8451811015610ae55760016000868381518110610a2657610a26611b90565b602090810291909101810151825281019190915260400160009081205460ff1615159003610a9d57848181518110610a6057610a60611b90565b60200260200101516040517f8b8ff76e0000000000000000000000000000000000000000000000000000000081526004016105b591815260200190565b60016000868381518110610ab357610ab3611b90565b6020908102919091018101518252810191909152604001600020805460ff19169055610ade81611ba6565b9050610a07565b5060005b8351811015610bd35760016000858381518110610b0857610b08611b90565b60209081029190910181015182528101919091526040016000205460ff161515600103610b7e57838181518110610b4157610b41611b90565b60200260200101516040517ff011771d0000000000000000000000000000000000000000000000000000000081526004016105b591815260200190565b6001806000868481518110610b9557610b95611b90565b6020026020010151815260200190815260200160002060006101000a81548160ff02191690831515021790555080610bcc90611ba6565b9050610ae9565b507f1f158419f9be0e2f7500ff70784bdcf23e591d40cf4a7903d900a5718156d26e84848484604051610c099493929190611c08565b60405180910390a150505050565b306001600160a01b037f0000000000000000000000000000000000000000000000000000000000000000161480610cb057507f00000000000000000000000000000000000000000000000000000000000000006001600160a01b0316610ca47f360894a13ba1a3210667c828492db98dca3e2076cc3735a920a3ca505d382bbc546001600160a01b031690565b6001600160a01b031614155b15610cce5760405163703e46dd60e11b815260040160405180910390fd5b565b610a01336109af565b816001600160a01b03166352d1902d6040518163ffffffff1660e01b8152600401602060405180830381865afa925050508015610d33575060408051601f3d908101601f19168201909252610d3091810190611c60565b60015b610d5b57604051634c9c8ce360e01b81526001600160a01b03831660048201526024016105b5565b7f360894a13ba1a3210667c828492db98dca3e2076cc3735a920a3ca505d382bbc8114610db7576040517faa1d49a4000000000000000000000000000000000000000000000000000000008152600481018290526024016105b5565b610dc183836111f5565b505050565b306001600160a01b037f00000000000000000000000000000000000000000000000000000000000000001614610cce5760405163703e46dd60e11b815260040160405180910390fd5b60008581526002602052604090819020805473ffffffffffffffffffffffffffffffffffffffff19166001600160a01b038916179055517fe1d739165793e39d23932a8bbf260ff8f37a31163cb41909361420e1e4d151aa90610e7d90889088908890889088908890611ca2565b60405180910390a1505050505050565b7fa16a46d94261c7517cc8ff89f61c0ce93598e3c849801011dee649a6a557d10280546060917fa16a46d94261c7517cc8ff89f61c0ce93598e3c849801011dee649a6a557d10091610ede90611ceb565b80601f0160208091040260200160405190810160405280929190818152602001828054610f0a90611ceb565b8015610f575780601f10610f2c57610100808354040283529160200191610f57565b820191906000526020600020905b815481529060010190602001808311610f3a57829003601f168201915b505050505091505090565b7fa16a46d94261c7517cc8ff89f61c0ce93598e3c849801011dee649a6a557d10380546060917fa16a46d94261c7517cc8ff89f61c0ce93598e3c849801011dee649a6a557d10091610ede90611ceb565b6000807f8680a0f190c5d2b22fc4e0a097fdfc5c206ed94420c7f3783040268c2d95571e8888604051602001610fea929190611d25565b604051602081830303815290604052805190602001208787604051602001611013929190611d25565b604051602081830303815290604052805190602001208686604051611039929190611d67565b6040519081900381206110679493929160200193845260208401929092526040830152606082015260800190565b6040516020818303038152906040528051906020012090506110888161124b565b98975050505050505050565b61109c611293565b6104c282826112fa565b60408051606080820183528152600060208201819052918101829052906110d06004828587611d77565b6110d991611da1565b90507fffff0000000000000000000000000000000000000000000000000000000000006001600160e01b031982160161114e5760408051606080820183528152600060208201819052918101919091526111368460048188611d77565b8101906111439190611dd1565b8152915061118c9050565b6040517fd401fafe0000000000000000000000000000000000000000000000000000000081526001600160e01b0319821660048201526024016105b5565b92915050565b606060008260000151836020015184604001516040516020016111b793929190611e22565b60408051601f198184030181529082905291506111de90600160f01b908390602001611e50565b604051602081830303815290604052915050919050565b6111fe8261136d565b6040516001600160a01b038316907fbc7cd75a20ee27fd9adebab32041f755214dbc6bffa90cc0225b39da2e5c2d3b90600090a280511561124357610dc182826113f1565b6104c2611467565b600061118c61125861149f565b836040517f19010000000000000000000000000000000000000000000000000000000000008152600281019290925260228201526042902090565b7ff0c57e16840df040f15088dc2f81fe391c3923bec73e23a9662efc9c229c6a005468010000000000000000900460ff16610cce576040517fd7e6bcf800000000000000000000000000000000000000000000000000000000815260040160405180910390fd5b611302611293565b7fa16a46d94261c7517cc8ff89f61c0ce93598e3c849801011dee649a6a557d1007fa16a46d94261c7517cc8ff89f61c0ce93598e3c849801011dee649a6a557d10261134e8482611ec6565b506003810161135d8382611ec6565b5060008082556001909101555050565b806001600160a01b03163b6000036113a357604051634c9c8ce360e01b81526001600160a01b03821660048201526024016105b5565b7f360894a13ba1a3210667c828492db98dca3e2076cc3735a920a3ca505d382bbc805473ffffffffffffffffffffffffffffffffffffffff19166001600160a01b0392909216919091179055565b6060600080846001600160a01b03168460405161140e9190611f86565b600060405180830381855af49150503d8060008114611449576040519150601f19603f3d011682016040523d82523d6000602084013e61144e565b606091505b509150915061145e8583836114ae565b95945050505050565b3415610cce576040517fb398979f00000000000000000000000000000000000000000000000000000000815260040160405180910390fd5b60006114a9611526565b905090565b6060826114c3576114be8261159a565b61151f565b81511580156114da57506001600160a01b0384163b155b1561151c576040517f9996b3150000000000000000000000000000000000000000000000000000000081526001600160a01b03851660048201526024016105b5565b50805b9392505050565b60007f8b73c3c69bb8fe3d512ecc4cf759cc79239f7b179b0ffacaa9a75d522b39400f6115516115dc565b611559611658565b60408051602081019490945283019190915260608201524660808201523060a082015260c00160405160208183030381529060405280519060200120905090565b8051156115aa5780518082602001fd5b6040517f1425ea4200000000000000000000000000000000000000000000000000000000815260040160405180910390fd5b60007fa16a46d94261c7517cc8ff89f61c0ce93598e3c849801011dee649a6a557d10081611608610e8d565b80519091501561162057805160209091012092915050565b8154801561162f579392505050565b7fc5d2460186f7233c927e7db2dcc703c0e500b653ca82273b7bfad8045d85a470935050505090565b60007fa16a46d94261c7517cc8ff89f61c0ce93598e3c849801011dee649a6a557d10081611684610f62565b80519091501561169c57805160209091012092915050565b6001820154801561162f579392505050565b60008083601f8401126116c057600080fd5b50813567ffffffffffffffff8111156116d857600080fd5b6020830191508360208260051b85010111156116f357600080fd5b9250929050565b60008083601f84011261170c57600080fd5b50813567ffffffffffffffff81111561172457600080fd5b6020830191508360208285010111156116f357600080fd5b6000806000806000806060878903121561175557600080fd5b863567ffffffffffffffff8082111561176d57600080fd5b6117798a838b016116ae565b9098509650602089013591508082111561179257600080fd5b61179e8a838b016116fa565b909650945060408901359150808211156117b757600080fd5b506117c489828a016116fa565b979a9699509497509295939492505050565b6000806000806000806000806080898b0312156117f257600080fd5b883567ffffffffffffffff8082111561180a57600080fd5b6118168c838d016116ae565b909a50985060208b013591508082111561182f57600080fd5b61183b8c838d016116ae565b909850965060408b013591508082111561185457600080fd5b6118608c838d016116fa565b909650945060608b013591508082111561187957600080fd5b506118868b828c016116fa565b999c989b5096995094979396929594505050565b80356001600160a01b03811681146118b157600080fd5b919050565b634e487b7160e01b600052604160045260246000fd5b600067ffffffffffffffff808411156118e7576118e76118b6565b604051601f8501601f19908116603f0116810190828211818310171561190f5761190f6118b6565b8160405280935085815286868601111561192857600080fd5b858560208301376000602087830101525050509392505050565b6000806040838503121561195557600080fd5b61195e8361189a565b9150602083013567ffffffffffffffff81111561197a57600080fd5b8301601f8101851361198b57600080fd5b61199a858235602084016118cc565b9150509250929050565b6000602082840312156119b657600080fd5b5035919050565b600080600080600080608087890312156119d657600080fd5b6119df8761189a565b955060208701359450604087013567ffffffffffffffff80821115611a0357600080fd5b611a0f8a838b016116fa565b909650945060608901359150808211156117b757600080fd5b60005b83811015611a43578181015183820152602001611a2b565b50506000910152565b60008151808452611a64816020860160208601611a28565b601f01601f19169290920160200192915050565b7fff00000000000000000000000000000000000000000000000000000000000000881681526000602060e081840152611ab460e084018a611a4c565b8381036040850152611ac6818a611a4c565b606085018990526001600160a01b038816608086015260a0850187905284810360c0860152855180825283870192509083019060005b81811015611b1857835183529284019291840191600101611afc565b50909c9b505050505050505050505050565b60208152600061151f6020830184611a4c565b600080600060408486031215611b5257600080fd5b611b5b8461189a565b9250602084013567ffffffffffffffff811115611b7757600080fd5b611b83868287016116fa565b9497909650939450505050565b634e487b7160e01b600052603260045260246000fd5b600060018201611bc657634e487b7160e01b600052601160045260246000fd5b5060010190565b600081518084526020808501945080840160005b83811015611bfd57815187529582019590820190600101611be1565b509495945050505050565b608081526000611c1b6080830187611bcd565b8281036020840152611c2d8187611bcd565b90508281036040840152611c418186611a4c565b90508281036060840152611c558185611a4c565b979650505050505050565b600060208284031215611c7257600080fd5b5051919050565b81835281816020850137506000828201602090810191909152601f909101601f19169091010190565b6001600160a01b0387168152856020820152608060408201526000611ccb608083018688611c79565b8281036060840152611cde818587611c79565b9998505050505050505050565b600181811c90821680611cff57607f821691505b602082108103611d1f57634e487b7160e01b600052602260045260246000fd5b50919050565b60007f07ffffffffffffffffffffffffffffffffffffffffffffffffffffffffffffff831115611d5457600080fd5b8260051b80858437919091019392505050565b8183823760009101908152919050565b60008085851115611d8757600080fd5b83861115611d9457600080fd5b5050820193919092039150565b6001600160e01b03198135818116916004851015611dc95780818660040360031b1b83161692505b505092915050565b600060208284031215611de357600080fd5b813567ffffffffffffffff811115611dfa57600080fd5b8201601f81018413611e0b57600080fd5b611e1a848235602084016118cc565b949350505050565b606081526000611e356060830186611a4c565b6001600160a01b039490941660208301525060400152919050565b6001600160e01b03198316815260008251611e72816004850160208701611a28565b919091016004019392505050565b601f821115610dc157600081815260208120601f850160051c81016020861015611ea75750805b601f850160051c820191505b8181101561050c57828155600101611eb3565b815167ffffffffffffffff811115611ee057611ee06118b6565b611ef481611eee8454611ceb565b84611e80565b602080601f831160018114611f295760008415611f115750858301515b600019600386901b1c1916600185901b17855561050c565b600085815260208120601f198616915b82811015611f5857888601518255948401946001909101908401611f39565b5085821015611f765787850151600019600388901b60f8161c191681555b5050505050600190811b01905550565b60008251611f98818460208701611a28565b919091019291505056fea264697066735822122010c38a964d40a56355a3fa07de1dc34d110b703fc2f8f4d7374b239ccfe4c8ca64736f6c63430008140033",
  "linkReferences": {},
  "deployedLinkReferences": {}
}