{
  "_format": "hh-sol-artifact-1",
  "contractName": "PenteFactory",
  "sourceName": "contracts/domains/pente/PenteFactory.sol",
  "abi": [
    {
      "inputs": [],
      "name": "ERC1167FailedCreateClone",
      "type": "error"
    },
    {
      "anonymous": false,
      "inputs": [
        {
          "indexed": true,
          "internalType": "bytes32",
          "name": "txId",
          "type": "bytes32"
        },
        {
          "indexed": true,
          "internalType": "address",
          "name": "instance",
          "type": "address"
        },
        {
          "indexed": false,
          "internalType": "bytes",
          "name": "config",
          "type": "bytes"
        }
      ],
      "name": "PaladinRegisterSmartContract_V0",
      "type": "event"
    },
    {
      "inputs": [
        {
          "internalType": "bytes32",
          "name": "transactionId",
          "type": "bytes32"
        },
        {
          "internalType": "bytes",
          "name": "data",
          "type": "bytes"
        }
      ],
      "name": "newPrivacyGroup",
      "outputs": [],
      "stateMutability": "nonpayable",
      "type": "function"
    }
  ],
  "bytecode": "0x60806040526040516100109061005f565b604051809103906000f08015801561002c573d6000803e3d6000fd5b50600080546001600160a01b0319166001600160a01b039290921691909117905534801561005957600080fd5b5061006c565b612115806103f983390190565b61037e8061007b6000396000f3fe608060405234801561001057600080fd5b506004361061002b5760003560e01c8063f3a5adb214610030575b600080fd5b61004361003e36600461020c565b610045565b005b600080546100689073ffffffffffffffffffffffffffffffffffffffff16610145565b6040517f66e7990d00000000000000000000000000000000000000000000000000000000815290915073ffffffffffffffffffffffffffffffffffffffff8216906366e7990d906100bf908690869060040161030d565b600060405180830381600087803b1580156100d957600080fd5b505af11580156100ed573d6000803e3d6000fd5b505050508073ffffffffffffffffffffffffffffffffffffffff16837fd77f43af9eba6f7c0ea72f4bad6bc58c3bd49e2cb299e128c91293b7ebc17f4384604051610138919061032e565b60405180910390a3505050565b6000763d602d80600a3d3981f3363d3d373d3d3d363d730000008260601b60e81c176000526e5af43d82803e903d91602b57fd5bf38260781b17602052603760096000f0905073ffffffffffffffffffffffffffffffffffffffff81166101d8576040517fc2f868f400000000000000000000000000000000000000000000000000000000815260040160405180910390fd5b919050565b7f4e487b7100000000000000000000000000000000000000000000000000000000600052604160045260246000fd5b6000806040838503121561021f57600080fd5b82359150602083013567ffffffffffffffff8082111561023e57600080fd5b818501915085601f83011261025257600080fd5b813581811115610264576102646101dd565b604051601f8201601f19908116603f0116810190838211818310171561028c5761028c6101dd565b816040528281528860208487010111156102a557600080fd5b8260208601602083013760006020848301015280955050505050509250929050565b6000815180845260005b818110156102ed576020818501810151868301820152016102d1565b506000602082860101526020601f19601f83011685010191505092915050565b82815260406020820152600061032660408301846102c7565b949350505050565b60208152600061034160208301846102c7565b939250505056fea2646970667358221220db02e7bac870de17dcc7f5aea7b2db5623860228f979e5934dcc475715234f3864736f6c6343000814003360a06040523060805234801561001457600080fd5b506080516120d761003e60003960008181610c6f01528181610c980152610e5f01526120d76000f3fe60806040526004361061007b5760003560e01c806366e7990d1161004e57806366e7990d1461012957806384b0196e14610149578063ad3cb1cc14610171578063c6fd6512146101c757600080fd5b806304e2c4f9146100805780630a78b6c5146100d15780634f1ef286146100f357806352d1902d14610106575b600080fd5b34801561008c57600080fd5b506100b37e0100000000000000000000000000000000000000000000000000000000000081565b6040516001600160e01b031990911681526020015b60405180910390f35b3480156100dd57600080fd5b506100f16100ec3660046118b5565b6101e7565b005b6100f16101013660046119a7565b610232565b34801561011257600080fd5b5061011b610251565b6040519081526020016100c8565b34801561013557600080fd5b506100f1610144366004611a09565b610280565b34801561015557600080fd5b5061015e610518565b6040516100c89796959493929190611ad5565b34801561017d57600080fd5b506101ba6040518060400160405280600581526020017f352e302e3000000000000000000000000000000000000000000000000000000081525081565b6040516100c89190611b87565b3480156101d357600080fd5b506100f16101e2366004611b9a565b610614565b60006101f2846108eb565b90506101ff81848461095b565b50506001805473ffffffffffffffffffffffffffffffffffffffff19166001600160a01b03939093169290921790915550565b61023a610c64565b61024382610d1d565b61024d8282610d67565b5050565b600061025b610e54565b507f360894a13ba1a3210667c828492db98dca3e2076cc3735a920a3ca505d382bbc90565b7ff0c57e16840df040f15088dc2f81fe391c3923bec73e23a9662efc9c229c6a00805468010000000000000000810460ff16159067ffffffffffffffff166000811580156102cb5750825b905060008267ffffffffffffffff1660011480156102e85750303b155b9050811580156102f6575080155b1561032d576040517ff92ee8a900000000000000000000000000000000000000000000000000000000815260040160405180910390fd5b845467ffffffffffffffff19166001178555831561036157845468ff00000000000000001916680100000000000000001785555b6103d56040518060400160405280600581526020017f70656e74650000000000000000000000000000000000000000000000000000008152506040518060400160405280600581526020017f302e302e31000000000000000000000000000000000000000000000000000000815250610e9d565b60006103e4600482898b611c6a565b6103ed91611c94565b90507fffff0000000000000000000000000000000000000000000000000000000000006001600160e01b031982160161047f57600080610430896004818d611c6a565b81019061043d9190611cc4565b60408051808201909152828152602080820183905260028481558351949750929550909350909161047491600391908601906117c6565b5090505050506104c2565b6040517f1eb38a7c0000000000000000000000000000000000000000000000000000000081526001600160e01b0319821660048201526024015b60405180910390fd5b50831561050e57845468ff000000000000000019168555604051600181527fc7f505b2f371ae2175ee4913f4499e1f2633a7b5936321eed1cdaeb6115181d29060200160405180910390a15b5050505050505050565b600060608082808083817fa16a46d94261c7517cc8ff89f61c0ce93598e3c849801011dee649a6a557d100805490915015801561055757506001810154155b6105bd576040517f08c379a000000000000000000000000000000000000000000000000000000000815260206004820152601560248201527f4549503731323a20556e696e697469616c697a6564000000000000000000000060448201526064016104b9565b6105c5610eaf565b6105cd610f84565b604080516000808252602082019092527f0f000000000000000000000000000000000000000000000000000000000000009c939b5091995046985030975095509350915050565b6000610624898989898989610fd5565b905061063181848461095b565b60005b88811015610708576000808b8b8481811061065157610651611db7565b602090810292909201358352508101919091526040016000205460ff166106c05789898281811061068457610684611db7565b905060200201356040517fa80f89f40000000000000000000000000000000000000000000000000000000081526004016104b991815260200190565b6000808b8b848181106106d5576106d5611db7565b60209081029290920135835250810191909152604001600020805460ff191690558061070081611dcd565b915050610634565b5060005b868110156107aa5760008089898481811061072957610729611db7565b602090810292909201358352508101919091526040016000205460ff166107985787878281811061075c5761075c611db7565b905060200201356040517fa7a3ace30000000000000000000000000000000000000000000000000000000081526004016104b991815260200190565b806107a281611dcd565b91505061070c565b5060005b84811015610891576000808787848181106107cb576107cb611db7565b602090810292909201358352508101919091526040016000205460ff161561083b578585828181106107ff576107ff611db7565b905060200201356040517ff6b3931c0000000000000000000000000000000000000000000000000000000081526004016104b991815260200190565b600160008088888581811061085257610852611db7565b90506020020135815260200190815260200160002060006101000a81548160ff021916908315150217905550808061088990611dcd565b9150506107ae565b50604080516000815260208101918290527fd8fb8dba29305d26bb4b8d0be7b5e3e815f2e4d214160b4c332369235ad1f9d1916108d7918d918d918d918b918b91611e3f565b60405180910390a150505050505050505050565b6000807f43c66ea365f48b9715a163ea21bbc96c68341d6bf224d1d6cb216b57b8c4ea39836040516020016109339291909182526001600160a01b0316602082015260400190565b604051602081830303815290604052805190602001209050610954816110c0565b9392505050565b600060026001018054806020026020016040519081016040528092919081815260200182805480156109b657602002820191906000526020600020905b81546001600160a01b03168152600190910190602001808311610998575b5050505050905060008383905067ffffffffffffffff8111156109db576109db611908565b604051908082528060200260200182016040528015610a04578160200160208202803683370190505b5090506000805b84811015610c11576000610a7788888885818110610a2b57610a2b611db7565b9050602002810190610a3d9190611e8d565b8080601f01602080910402602001604051908101604052809392919081815260200183838082843760009201919091525061110e92505050565b905060005b83811015610b0557848181518110610a9657610a96611db7565b60200260200101516001600160a01b0316826001600160a01b031603610af3576040517f4f8d70160000000000000000000000000000000000000000000000000000000081526001600160a01b03831660048201526024016104b9565b80610afd81611dcd565b915050610a7c565b506000805b8651811015610b7857868181518110610b2557610b25611db7565b60200260200101516001600160a01b0316836001600160a01b031603610b6657868181518110610b5757610b57611db7565b60200260200101519150610b78565b80610b7081611dcd565b915050610b0a565b506001600160a01b038116610bc4576040517fb9cb6d180000000000000000000000000000000000000000000000000000000081526001600160a01b03831660048201526024016104b9565b80858581518110610bd757610bd7611db7565b6001600160a01b039092166020928302919091019091015283610bf981611dcd565b94505050508080610c0990611dcd565b915050610a0b565b50600254811015610c5c576002546040517f712615490000000000000000000000000000000000000000000000000000000081526104b9918391600401918252602082015260400190565b505050505050565b306001600160a01b037f0000000000000000000000000000000000000000000000000000000000000000161480610cfd57507f00000000000000000000000000000000000000000000000000000000000000006001600160a01b0316610cf17f360894a13ba1a3210667c828492db98dca3e2076cc3735a920a3ca505d382bbc546001600160a01b031690565b6001600160a01b031614155b15610d1b5760405163703e46dd60e11b815260040160405180910390fd5b565b6001546001600160a01b03828116911614610d64576040517fa5762b7f00000000000000000000000000000000000000000000000000000000815260040160405180910390fd5b50565b816001600160a01b03166352d1902d6040518163ffffffff1660e01b8152600401602060405180830381865afa925050508015610dc1575060408051601f3d908101601f19168201909252610dbe91810190611ed4565b60015b610de957604051634c9c8ce360e01b81526001600160a01b03831660048201526024016104b9565b7f360894a13ba1a3210667c828492db98dca3e2076cc3735a920a3ca505d382bbc8114610e45576040517faa1d49a4000000000000000000000000000000000000000000000000000000008152600481018290526024016104b9565b610e4f8383611138565b505050565b306001600160a01b037f00000000000000000000000000000000000000000000000000000000000000001614610d1b5760405163703e46dd60e11b815260040160405180910390fd5b610ea561118e565b61024d82826111f5565b7fa16a46d94261c7517cc8ff89f61c0ce93598e3c849801011dee649a6a557d10280546060917fa16a46d94261c7517cc8ff89f61c0ce93598e3c849801011dee649a6a557d10091610f0090611eed565b80601f0160208091040260200160405190810160405280929190818152602001828054610f2c90611eed565b8015610f795780601f10610f4e57610100808354040283529160200191610f79565b820191906000526020600020905b815481529060010190602001808311610f5c57829003601f168201915b505050505091505090565b7fa16a46d94261c7517cc8ff89f61c0ce93598e3c849801011dee649a6a557d10380546060917fa16a46d94261c7517cc8ff89f61c0ce93598e3c849801011dee649a6a557d10091610f0090611eed565b6000807fba28225cc494f18d6c43c32ffa2ab651e43971c96524b7704bda265f6abc3e93888860405160200161100c929190611f27565b604051602081830303815290604052805190602001208787604051602001611035929190611f27565b60405160208183030381529060405280519060200120868660405160200161105e929190611f27565b60408051601f198184030181528282528051602091820120908301959095528101929092526060820152608081019190915260a0016040516020818303038152906040528051906020012090506110b4816110c0565b98975050505050505050565b60006111086110cd611268565b836040517f19010000000000000000000000000000000000000000000000000000000000008152600281019290925260228201526042902090565b92915050565b60008060008061111e8686611277565b92509250925061112e82826112c4565b5090949350505050565b611141826113c8565b6040516001600160a01b038316907fbc7cd75a20ee27fd9adebab32041f755214dbc6bffa90cc0225b39da2e5c2d3b90600090a280511561118657610e4f828261144c565b61024d6114c2565b7ff0c57e16840df040f15088dc2f81fe391c3923bec73e23a9662efc9c229c6a005468010000000000000000900460ff16610d1b576040517fd7e6bcf800000000000000000000000000000000000000000000000000000000815260040160405180910390fd5b6111fd61118e565b7fa16a46d94261c7517cc8ff89f61c0ce93598e3c849801011dee649a6a557d1007fa16a46d94261c7517cc8ff89f61c0ce93598e3c849801011dee649a6a557d1026112498482611faf565b50600381016112588382611faf565b5060008082556001909101555050565b60006112726114fa565b905090565b600080600083516041036112b15760208401516040850151606086015160001a6112a38882858561156e565b9550955095505050506112bd565b50508151600091506002905b9250925092565b60008260038111156112d8576112d861206f565b036112e1575050565b60018260038111156112f5576112f561206f565b0361132c576040517ff645eedf00000000000000000000000000000000000000000000000000000000815260040160405180910390fd5b60028260038111156113405761134061206f565b0361137a576040517ffce698f7000000000000000000000000000000000000000000000000000000008152600481018290526024016104b9565b600382600381111561138e5761138e61206f565b0361024d576040517fd78bce0c000000000000000000000000000000000000000000000000000000008152600481018290526024016104b9565b806001600160a01b03163b6000036113fe57604051634c9c8ce360e01b81526001600160a01b03821660048201526024016104b9565b7f360894a13ba1a3210667c828492db98dca3e2076cc3735a920a3ca505d382bbc805473ffffffffffffffffffffffffffffffffffffffff19166001600160a01b0392909216919091179055565b6060600080846001600160a01b0316846040516114699190612085565b600060405180830381855af49150503d80600081146114a4576040519150601f19603f3d011682016040523d82523d6000602084013e6114a9565b606091505b50915091506114b985838361163d565b95945050505050565b3415610d1b576040517fb398979f00000000000000000000000000000000000000000000000000000000815260040160405180910390fd5b60007f8b73c3c69bb8fe3d512ecc4cf759cc79239f7b179b0ffacaa9a75d522b39400f6115256116b2565b61152d61172e565b60408051602081019490945283019190915260608201524660808201523060a082015260c00160405160208183030381529060405280519060200120905090565b600080807f7fffffffffffffffffffffffffffffff5d576e7357a4501ddfe92f46681b20a08411156115a95750600091506003905082611633565b604080516000808252602082018084528a905260ff891692820192909252606081018790526080810186905260019060a0016020604051602081039080840390855afa1580156115fd573d6000803e3d6000fd5b5050604051601f1901519150506001600160a01b03811661162957506000925060019150829050611633565b9250600091508190505b9450945094915050565b6060826116525761164d82611784565b610954565b815115801561166957506001600160a01b0384163b155b156116ab576040517f9996b3150000000000000000000000000000000000000000000000000000000081526001600160a01b03851660048201526024016104b9565b5092915050565b60007fa16a46d94261c7517cc8ff89f61c0ce93598e3c849801011dee649a6a557d100816116de610eaf565b8051909150156116f657805160209091012092915050565b81548015611705579392505050565b7fc5d2460186f7233c927e7db2dcc703c0e500b653ca82273b7bfad8045d85a470935050505090565b60007fa16a46d94261c7517cc8ff89f61c0ce93598e3c849801011dee649a6a557d1008161175a610f84565b80519091501561177257805160209091012092915050565b60018201548015611705579392505050565b8051156117945780518082602001fd5b6040517f1425ea4200000000000000000000000000000000000000000000000000000000815260040160405180910390fd5b828054828255906000526020600020908101928215611828579160200282015b82811115611828578251825473ffffffffffffffffffffffffffffffffffffffff19166001600160a01b039091161782556020909201916001909101906117e6565b50611834929150611838565b5090565b5b808211156118345760008155600101611839565b80356001600160a01b038116811461186457600080fd5b919050565b60008083601f84011261187b57600080fd5b50813567ffffffffffffffff81111561189357600080fd5b6020830191508360208260051b85010111156118ae57600080fd5b9250929050565b6000806000604084860312156118ca57600080fd5b6118d38461184d565b9250602084013567ffffffffffffffff8111156118ef57600080fd5b6118fb86828701611869565b9497909650939450505050565b634e487b7160e01b600052604160045260246000fd5b604051601f8201601f1916810167ffffffffffffffff8111828210171561194757611947611908565b604052919050565b600067ffffffffffffffff83111561196957611969611908565b61197c601f8401601f191660200161191e565b905082815283838301111561199057600080fd5b828260208301376000602084830101529392505050565b600080604083850312156119ba57600080fd5b6119c38361184d565b9150602083013567ffffffffffffffff8111156119df57600080fd5b8301601f810185136119f057600080fd5b6119ff8582356020840161194f565b9150509250929050565b600080600060408486031215611a1e57600080fd5b83359250602084013567ffffffffffffffff80821115611a3d57600080fd5b818601915086601f830112611a5157600080fd5b813581811115611a6057600080fd5b876020828501011115611a7257600080fd5b6020830194508093505050509250925092565b60005b83811015611aa0578181015183820152602001611a88565b50506000910152565b60008151808452611ac1816020860160208601611a85565b601f01601f19169290920160200192915050565b7fff00000000000000000000000000000000000000000000000000000000000000881681526000602060e081840152611b1160e084018a611aa9565b8381036040850152611b23818a611aa9565b606085018990526001600160a01b038816608086015260a0850187905284810360c0860152855180825283870192509083019060005b81811015611b7557835183529284019291840191600101611b59565b50909c9b505050505050505050505050565b6020815260006109546020830184611aa9565b600080600080600080600080600060a08a8c031215611bb857600080fd5b8935985060208a013567ffffffffffffffff80821115611bd757600080fd5b611be38d838e01611869565b909a50985060408c0135915080821115611bfc57600080fd5b611c088d838e01611869565b909850965060608c0135915080821115611c2157600080fd5b611c2d8d838e01611869565b909650945060808c0135915080821115611c4657600080fd5b50611c538c828d01611869565b915080935050809150509295985092959850929598565b60008085851115611c7a57600080fd5b83861115611c8757600080fd5b5050820193919092039150565b6001600160e01b03198135818116916004851015611cbc5780818660040360031b1b83161692505b505092915050565b600080600060608486031215611cd957600080fd5b833567ffffffffffffffff80821115611cf157600080fd5b818601915086601f830112611d0557600080fd5b6020611d1588843583860161194f565b95508087013594506040870135925081831115611d3157600080fd5b828701925087601f840112611d4557600080fd5b823582811115611d5757611d57611908565b8060051b9250611d6882840161191e565b818152928401820192828101908a851115611d8257600080fd5b948301945b84861015611da757611d988661184d565b82529483019490830190611d87565b8096505050505050509250925092565b634e487b7160e01b600052603260045260246000fd5b600060018201611ded57634e487b7160e01b600052601160045260246000fd5b5060010190565b81835260007f07ffffffffffffffffffffffffffffffffffffffffffffffffffffffffffffff831115611e2657600080fd5b8260051b80836020870137939093016020019392505050565b868152608060208201526000611e59608083018789611df4565b8281036040840152611e6c818688611df4565b90508281036060840152611e808185611aa9565b9998505050505050505050565b6000808335601e19843603018112611ea457600080fd5b83018035915067ffffffffffffffff821115611ebf57600080fd5b6020019150368190038213156118ae57600080fd5b600060208284031215611ee657600080fd5b5051919050565b600181811c90821680611f0157607f821691505b602082108103611f2157634e487b7160e01b600052602260045260246000fd5b50919050565b60007f07ffffffffffffffffffffffffffffffffffffffffffffffffffffffffffffff831115611f5657600080fd5b8260051b80858437919091019392505050565b601f821115610e4f57600081815260208120601f850160051c81016020861015611f905750805b601f850160051c820191505b81811015610c5c57828155600101611f9c565b815167ffffffffffffffff811115611fc957611fc9611908565b611fdd81611fd78454611eed565b84611f69565b602080601f8311600181146120125760008415611ffa5750858301515b600019600386901b1c1916600185901b178555610c5c565b600085815260208120601f198616915b8281101561204157888601518255948401946001909101908401612022565b508582101561205f5787850151600019600388901b60f8161c191681555b5050505050600190811b01905550565b634e487b7160e01b600052602160045260246000fd5b60008251612097818460208701611a85565b919091019291505056fea2646970667358221220cdac48b7d74a3970e3883a16065ccab216f6f204851dcdbb2c1d328d612181b464736f6c63430008140033",
  "linkReferences": {},
  "deployedLinkReferences": {}
}