{
  "_format": "hh-sol-artifact-1",
  "contractName": "SIMToken",
  "sourceName": "contracts/testbed_sim/SIMToken.sol",
  "abi": [
    {
      "inputs": [
        {
          "internalType": "address",
          "name": "notary",
          "type": "address"
        }
      ],
      "stateMutability": "nonpayable",
      "type": "constructor"
    },
    {
      "inputs": [
        {
          "internalType": "address",
          "name": "sender",
          "type": "address"
        }
      ],
      "name": "BadNotary",
      "type": "error"
    },
    {
      "anonymous": false,
      "inputs": [
        {
          "indexed": true,
          "internalType": "bytes32",
          "name": "id",
          "type": "bytes32"
        },
        {
          "indexed": false,
          "internalType": "bytes32[]",
          "name": "inputs",
          "type": "bytes32[]"
        },
        {
          "indexed": false,
          "internalType": "bytes32[]",
          "name": "outputs",
          "type": "bytes32[]"
        },
        {
          "indexed": false,
          "internalType": "bytes",
          "name": "data",
          "type": "bytes"
        }
      ],
      "name": "PaladinPrivateTransaction_V0",
      "type": "event"
    },
    {
      "inputs": [],
      "name": "SINGLE_FUNCTION_SELECTOR",
      "outputs": [
        {
          "internalType": "bytes32",
          "name": "",
          "type": "bytes32"
        }
      ],
      "stateMutability": "view",
      "type": "function"
    },
    {
      "inputs": [
        {
          "internalType": "bytes32",
          "name": "txId",
          "type": "bytes32"
        },
        {
          "internalType": "bytes32",
          "name": "fnSelector",
          "type": "bytes32"
        },
        {
          "internalType": "bytes",
          "name": "payload",
          "type": "bytes"
        }
      ],
      "name": "paladinExecute_V0",
      "outputs": [],
      "stateMutability": "nonpayable",
      "type": "function"
    }
  ],
  "bytecode": "0x608060405234801561001057600080fd5b506040516104da3803806104da83398101604081905261002f91610054565b600080546001600160a01b0319166001600160a01b0392909216919091179055610084565b60006020828403121561006657600080fd5b81516001600160a01b038116811461007d57600080fd5b9392505050565b610447806100936000396000f3fe608060405234801561001057600080fd5b50600436106100365760003560e01c8063794e159c1461003b578063ffd41d8714610074575b600080fd5b6100627ff02d7b451683eaa9257383ac8f8122504f2c4b8c18ebba93009839314d4ca28381565b60405190815260200160405180910390f35b6100876100823660046101ae565b610089565b005b6100923361013b565b7ff02d7b451683eaa9257383ac8f8122504f2c4b8c18ebba93009839314d4ca28383146100c1576100c161022e565b600080806100d1848601866102f8565b925092509250867f383b8a02be4cb1d1efd87b0d0dd9ba62ffad7d8c313c9d68402b09085f47d2d883838660405160200161010e91815260200190565b60408051601f198184030181529082905261012a9392916103a1565b60405180910390a250505050505050565b60005473ffffffffffffffffffffffffffffffffffffffff8281169116146101ab576040517f2dcef8a400000000000000000000000000000000000000000000000000000000815273ffffffffffffffffffffffffffffffffffffffff8216600482015260240160405180910390fd5b50565b600080600080606085870312156101c457600080fd5b8435935060208501359250604085013567ffffffffffffffff808211156101ea57600080fd5b818701915087601f8301126101fe57600080fd5b81358181111561020d57600080fd5b88602082850101111561021f57600080fd5b95989497505060200194505050565b634e487b7160e01b600052600160045260246000fd5b634e487b7160e01b600052604160045260246000fd5b600082601f83011261026b57600080fd5b8135602067ffffffffffffffff8083111561028857610288610244565b8260051b604051601f19603f830116810181811084821117156102ad576102ad610244565b60405293845260208187018101949081019250878511156102cd57600080fd5b6020870191505b848210156102ed578135835291830191908301906102d4565b979650505050505050565b60008060006060848603121561030d57600080fd5b83359250602084013567ffffffffffffffff8082111561032c57600080fd5b6103388783880161025a565b9350604086013591508082111561034e57600080fd5b5061035b8682870161025a565b9150509250925092565b60008151808452602080850194506020840160005b838110156103965781518752958201959082019060010161037a565b509495945050505050565b6060815260006103b46060830186610365565b6020838203818501526103c78287610365565b91508382036040850152845180835260005b818110156103f45786810183015184820184015282016103d9565b506000838201830152601f01601f1916909101019594505050505056fea2646970667358221220f0013b06ca8aef7791d66c5bbec8616b34fe0dd070b3fce78dcd1122113ef51964736f6c63430008180033",
  "linkReferences": {},
  "deployedLinkReferences": {}
}