{
  "_format": "hh-sol-artifact-1",
  "contractName": "SIMToken",
  "sourceName": "contracts/testbed_sim/SIMToken.sol",
  "abi": [
    {
      "inputs": [
        {
          "internalType": "bytes32",
          "name": "txId",
          "type": "bytes32"
        },
        {
          "internalType": "address",
          "name": "domain",
          "type": "address"
        },
        {
          "internalType": "address",
          "name": "notary",
          "type": "address"
        }
      ],
      "stateMutability": "nonpayable",
      "type": "constructor"
    },
    {
      "inputs": [
        {
          "internalType": "address",
          "name": "sender",
          "type": "address"
        }
      ],
      "name": "BadNotary",
      "type": "error"
    },
    {
      "anonymous": false,
      "inputs": [
        {
          "indexed": true,
          "internalType": "bytes32",
          "name": "txId",
          "type": "bytes32"
        },
        {
          "indexed": true,
          "internalType": "address",
          "name": "domain",
          "type": "address"
        },
        {
          "indexed": false,
          "internalType": "bytes",
          "name": "data",
          "type": "bytes"
        }
      ],
      "name": "PaladinNewSmartContract_V0",
      "type": "event"
    },
    {
      "anonymous": false,
      "inputs": [
        {
          "indexed": true,
          "internalType": "bytes32",
          "name": "id",
          "type": "bytes32"
        },
        {
          "indexed": false,
          "internalType": "bytes32[]",
          "name": "inputs",
          "type": "bytes32[]"
        },
        {
          "indexed": false,
          "internalType": "bytes32[]",
          "name": "outputs",
          "type": "bytes32[]"
        },
        {
          "indexed": false,
          "internalType": "bytes",
          "name": "data",
          "type": "bytes"
        }
      ],
      "name": "PaladinPrivateTransaction_V0",
      "type": "event"
    },
    {
      "inputs": [],
      "name": "SINGLE_FUNCTION_SELECTOR",
      "outputs": [
        {
          "internalType": "bytes32",
          "name": "",
          "type": "bytes32"
        }
      ],
      "stateMutability": "view",
      "type": "function"
    },
    {
      "inputs": [
        {
          "internalType": "bytes32",
          "name": "txId",
          "type": "bytes32"
        },
        {
          "internalType": "bytes32[]",
          "name": "inputs",
          "type": "bytes32[]"
        },
        {
          "internalType": "bytes32[]",
          "name": "outputs",
          "type": "bytes32[]"
        },
        {
          "internalType": "bytes",
          "name": "signature",
          "type": "bytes"
        }
      ],
      "name": "executeNotarized",
      "outputs": [],
      "stateMutability": "nonpayable",
      "type": "function"
    },
    {
      "inputs": [
        {
          "internalType": "bytes32",
          "name": "txId",
          "type": "bytes32"
        },
        {
          "internalType": "bytes32",
          "name": "fnSelector",
          "type": "bytes32"
        },
        {
          "internalType": "bytes",
          "name": "payload",
          "type": "bytes"
        }
      ],
      "name": "paladinExecute_V0",
      "outputs": [],
      "stateMutability": "nonpayable",
      "type": "function"
    }
  ],
  "bytecode": "0x608060405234801561001057600080fd5b506040516107f63803806107f683398101604081905261002f916100d7565b600080546001600160a01b0319166001600160a01b0383811691909117909155604051606083901b6001600160601b03191660208201529083169084907f8824cf351c3124fd50c3468d6726495f48d9f278dc6de4406b6e06c2bc9371899060340160408051601f19818403018152908290526100ab91610113565b60405180910390a3505050610162565b80516001600160a01b03811681146100d257600080fd5b919050565b6000806000606084860312156100ec57600080fd5b835192506100fc602085016100bb565b915061010a604085016100bb565b90509250925092565b60006020808352835180602085015260005b8181101561014157858101830151858201604001528201610125565b506000604082860101526040601f19601f8301168501019250505092915050565b610685806101716000396000f3fe608060405234801561001057600080fd5b50600436106100415760003560e01c8063794e159c14610046578063b12417b31461007f578063ffd41d8714610094575b600080fd5b61006d7ff02d7b451683eaa9257383ac8f8122504f2c4b8c18ebba93009839314d4ca28381565b60405190815260200160405180910390f35b61009261008d3660046102ba565b6100a7565b005b6100926100a236600461035e565b610118565b6100b0336101b9565b867f383b8a02be4cb1d1efd87b0d0dd9ba62ffad7d8c313c9d68402b09085f47d2d88787878787876040516020016100e99291906103b1565b60408051601f19818403018152908290526101079594939291610452565b60405180910390a250505050505050565b610121336101b9565b7ff02d7b451683eaa9257383ac8f8122504f2c4b8c18ebba93009839314d4ca283831461015057610150610499565b6000808061016084860186610563565b925092509250867f383b8a02be4cb1d1efd87b0d0dd9ba62ffad7d8c313c9d68402b09085f47d2d883838660405160200161019d91815260200190565b60408051601f198184030181529082905261010793929161060c565b60005473ffffffffffffffffffffffffffffffffffffffff828116911614610229576040517f2dcef8a400000000000000000000000000000000000000000000000000000000815273ffffffffffffffffffffffffffffffffffffffff8216600482015260240160405180910390fd5b50565b60008083601f84011261023e57600080fd5b50813567ffffffffffffffff81111561025657600080fd5b6020830191508360208260051b850101111561027157600080fd5b9250929050565b60008083601f84011261028a57600080fd5b50813567ffffffffffffffff8111156102a257600080fd5b60208301915083602082850101111561027157600080fd5b60008060008060008060006080888a0312156102d557600080fd5b87359650602088013567ffffffffffffffff808211156102f457600080fd5b6103008b838c0161022c565b909850965060408a013591508082111561031957600080fd5b6103258b838c0161022c565b909650945060608a013591508082111561033e57600080fd5b5061034b8a828b01610278565b989b979a50959850939692959293505050565b6000806000806060858703121561037457600080fd5b8435935060208501359250604085013567ffffffffffffffff81111561039957600080fd5b6103a587828801610278565b95989497509550505050565b8183823760009101908152919050565b81835260007f07ffffffffffffffffffffffffffffffffffffffffffffffffffffffffffffff8311156103f357600080fd5b8260051b80836020870137939093016020019392505050565b6000815180845260005b8181101561043257602081850181015186830182015201610416565b506000602082860101526020601f19601f83011685010191505092915050565b6060815260006104666060830187896103c1565b82810360208401526104798186886103c1565b9050828103604084015261048d818561040c565b98975050505050505050565b634e487b7160e01b600052600160045260246000fd5b634e487b7160e01b600052604160045260246000fd5b600082601f8301126104d657600080fd5b8135602067ffffffffffffffff808311156104f3576104f36104af565b8260051b604051601f19603f83011681018181108482111715610518576105186104af565b604052938452602081870181019490810192508785111561053857600080fd5b6020870191505b848210156105585781358352918301919083019061053f565b979650505050505050565b60008060006060848603121561057857600080fd5b83359250602084013567ffffffffffffffff8082111561059757600080fd5b6105a3878388016104c5565b935060408601359150808211156105b957600080fd5b506105c6868287016104c5565b9150509250925092565b60008151808452602080850194506020840160005b83811015610601578151875295820195908201906001016105e5565b509495945050505050565b60608152600061061f60608301866105d0565b828103602084015261063181866105d0565b90508281036040840152610645818561040c565b969550505050505056fea26469706673582212209b28861f91f40ed7239a23e46ff616039112ffca83f228e15c1c28ca8e0185f164736f6c63430008180033",
  "linkReferences": {},
  "deployedLinkReferences": {}
}