{
  "_format": "hh-sol-artifact-1",
  "contractName": "BondTracker",
  "sourceName": "contracts/private/BondTracker.sol",
  "abi": [
    {
      "inputs": [
        {
          "internalType": "string",
          "name": "name",
          "type": "string"
        },
        {
          "internalType": "string",
          "name": "symbol",
          "type": "string"
        },
        {
          "internalType": "address",
          "name": "custodian",
          "type": "address"
        },
        {
          "internalType": "address",
          "name": "publicTracker",
          "type": "address"
        }
      ],
      "stateMutability": "nonpayable",
      "type": "constructor"
    },
    {
      "inputs": [
        {
          "internalType": "address",
          "name": "spender",
          "type": "address"
        },
        {
          "internalType": "uint256",
          "name": "allowance",
          "type": "uint256"
        },
        {
          "internalType": "uint256",
          "name": "needed",
          "type": "uint256"
        }
      ],
      "name": "ERC20InsufficientAllowance",
      "type": "error"
    },
    {
      "inputs": [
        {
          "internalType": "address",
          "name": "sender",
          "type": "address"
        },
        {
          "internalType": "uint256",
          "name": "balance",
          "type": "uint256"
        },
        {
          "internalType": "uint256",
          "name": "needed",
          "type": "uint256"
        }
      ],
      "name": "ERC20InsufficientBalance",
      "type": "error"
    },
    {
      "inputs": [
        {
          "internalType": "address",
          "name": "approver",
          "type": "address"
        }
      ],
      "name": "ERC20InvalidApprover",
      "type": "error"
    },
    {
      "inputs": [
        {
          "internalType": "address",
          "name": "receiver",
          "type": "address"
        }
      ],
      "name": "ERC20InvalidReceiver",
      "type": "error"
    },
    {
      "inputs": [
        {
          "internalType": "address",
          "name": "sender",
          "type": "address"
        }
      ],
      "name": "ERC20InvalidSender",
      "type": "error"
    },
    {
      "inputs": [
        {
          "internalType": "address",
          "name": "spender",
          "type": "address"
        }
      ],
      "name": "ERC20InvalidSpender",
      "type": "error"
    },
    {
      "inputs": [
        {
          "internalType": "address",
          "name": "owner",
          "type": "address"
        }
      ],
      "name": "OwnableInvalidOwner",
      "type": "error"
    },
    {
      "inputs": [
        {
          "internalType": "address",
          "name": "account",
          "type": "address"
        }
      ],
      "name": "OwnableUnauthorizedAccount",
      "type": "error"
    },
    {
      "anonymous": false,
      "inputs": [
        {
          "indexed": true,
          "internalType": "address",
          "name": "owner",
          "type": "address"
        },
        {
          "indexed": true,
          "internalType": "address",
          "name": "spender",
          "type": "address"
        },
        {
          "indexed": false,
          "internalType": "uint256",
          "name": "value",
          "type": "uint256"
        }
      ],
      "name": "Approval",
      "type": "event"
    },
    {
      "anonymous": false,
      "inputs": [
        {
          "indexed": true,
          "internalType": "address",
          "name": "previousOwner",
          "type": "address"
        },
        {
          "indexed": true,
          "internalType": "address",
          "name": "newOwner",
          "type": "address"
        }
      ],
      "name": "OwnershipTransferred",
      "type": "event"
    },
    {
      "anonymous": false,
      "inputs": [
        {
          "indexed": true,
          "internalType": "address",
          "name": "contractAddress",
          "type": "address"
        },
        {
          "indexed": false,
          "internalType": "bytes",
          "name": "encodedCall",
          "type": "bytes"
        }
      ],
      "name": "PenteExternalCall",
      "type": "event"
    },
    {
      "anonymous": false,
      "inputs": [
        {
          "indexed": true,
          "internalType": "address",
          "name": "from",
          "type": "address"
        },
        {
          "indexed": true,
          "internalType": "address",
          "name": "to",
          "type": "address"
        },
        {
          "indexed": false,
          "internalType": "uint256",
          "name": "value",
          "type": "uint256"
        }
      ],
      "name": "Transfer",
      "type": "event"
    },
    {
      "inputs": [
        {
          "internalType": "address",
          "name": "owner",
          "type": "address"
        },
        {
          "internalType": "address",
          "name": "spender",
          "type": "address"
        }
      ],
      "name": "allowance",
      "outputs": [
        {
          "internalType": "uint256",
          "name": "",
          "type": "uint256"
        }
      ],
      "stateMutability": "view",
      "type": "function"
    },
    {
      "inputs": [
        {
          "internalType": "address",
          "name": "spender",
          "type": "address"
        },
        {
          "internalType": "uint256",
          "name": "value",
          "type": "uint256"
        }
      ],
      "name": "approve",
      "outputs": [
        {
          "internalType": "bool",
          "name": "",
          "type": "bool"
        }
      ],
      "stateMutability": "nonpayable",
      "type": "function"
    },
    {
      "inputs": [
        {
          "internalType": "address",
          "name": "account",
          "type": "address"
        }
      ],
      "name": "balanceOf",
      "outputs": [
        {
          "internalType": "uint256",
          "name": "",
          "type": "uint256"
        }
      ],
      "stateMutability": "view",
      "type": "function"
    },
    {
      "inputs": [
        {
          "internalType": "uint256",
          "name": "discountPrice",
          "type": "uint256"
        },
        {
          "internalType": "uint256",
          "name": "minimumDenomination",
          "type": "uint256"
        }
      ],
      "name": "beginDistribution",
      "outputs": [],
      "stateMutability": "nonpayable",
      "type": "function"
    },
    {
      "inputs": [],
      "name": "decimals",
      "outputs": [
        {
          "internalType": "uint8",
          "name": "",
          "type": "uint8"
        }
      ],
      "stateMutability": "view",
      "type": "function"
    },
    {
      "inputs": [],
      "name": "investorRegistry",
      "outputs": [
        {
          "internalType": "contract InvestorRegistry",
          "name": "",
          "type": "address"
        }
      ],
      "stateMutability": "view",
      "type": "function"
    },
    {
      "inputs": [],
      "name": "name",
      "outputs": [
        {
          "internalType": "string",
          "name": "",
          "type": "string"
        }
      ],
      "stateMutability": "view",
      "type": "function"
    },
    {
      "inputs": [
        {
          "internalType": "address",
          "name": "sender",
          "type": "address"
        },
        {
          "internalType": "address",
          "name": "from",
          "type": "address"
        },
        {
          "internalType": "address",
          "name": "delegate",
          "type": "address"
        },
        {
          "components": [
            {
              "internalType": "address",
              "name": "contractAddress",
              "type": "address"
            },
            {
              "internalType": "bytes",
              "name": "encodedCall",
              "type": "bytes"
            }
          ],
          "internalType": "struct INotoHooks.PreparedTransaction",
          "name": "prepared",
          "type": "tuple"
        }
      ],
      "name": "onApproveTransfer",
      "outputs": [],
      "stateMutability": "nonpayable",
      "type": "function"
    },
    {
      "inputs": [
        {
          "internalType": "address",
          "name": "sender",
          "type": "address"
        },
        {
          "internalType": "address",
          "name": "to",
          "type": "address"
        },
        {
          "internalType": "uint256",
          "name": "amount",
          "type": "uint256"
        },
        {
          "components": [
            {
              "internalType": "address",
              "name": "contractAddress",
              "type": "address"
            },
            {
              "internalType": "bytes",
              "name": "encodedCall",
              "type": "bytes"
            }
          ],
          "internalType": "struct INotoHooks.PreparedTransaction",
          "name": "prepared",
          "type": "tuple"
        }
      ],
      "name": "onMint",
      "outputs": [],
      "stateMutability": "nonpayable",
      "type": "function"
    },
    {
      "inputs": [
        {
          "internalType": "address",
          "name": "sender",
          "type": "address"
        },
        {
          "internalType": "address",
          "name": "from",
          "type": "address"
        },
        {
          "internalType": "address",
          "name": "to",
          "type": "address"
        },
        {
          "internalType": "uint256",
          "name": "amount",
          "type": "uint256"
        },
        {
          "components": [
            {
              "internalType": "address",
              "name": "contractAddress",
              "type": "address"
            },
            {
              "internalType": "bytes",
              "name": "encodedCall",
              "type": "bytes"
            }
          ],
          "internalType": "struct INotoHooks.PreparedTransaction",
          "name": "prepared",
          "type": "tuple"
        }
      ],
      "name": "onTransfer",
      "outputs": [],
      "stateMutability": "nonpayable",
      "type": "function"
    },
    {
      "inputs": [],
      "name": "owner",
      "outputs": [
        {
          "internalType": "address",
          "name": "",
          "type": "address"
        }
      ],
      "stateMutability": "view",
      "type": "function"
    },
    {
      "inputs": [],
      "name": "renounceOwnership",
      "outputs": [],
      "stateMutability": "nonpayable",
      "type": "function"
    },
    {
      "inputs": [],
      "name": "symbol",
      "outputs": [
        {
          "internalType": "string",
          "name": "",
          "type": "string"
        }
      ],
      "stateMutability": "view",
      "type": "function"
    },
    {
      "inputs": [],
      "name": "totalSupply",
      "outputs": [
        {
          "internalType": "uint256",
          "name": "",
          "type": "uint256"
        }
      ],
      "stateMutability": "view",
      "type": "function"
    },
    {
      "inputs": [
        {
          "internalType": "address",
          "name": "to",
          "type": "address"
        },
        {
          "internalType": "uint256",
          "name": "value",
          "type": "uint256"
        }
      ],
      "name": "transfer",
      "outputs": [
        {
          "internalType": "bool",
          "name": "",
          "type": "bool"
        }
      ],
      "stateMutability": "nonpayable",
      "type": "function"
    },
    {
      "inputs": [
        {
          "internalType": "address",
          "name": "from",
          "type": "address"
        },
        {
          "internalType": "address",
          "name": "to",
          "type": "address"
        },
        {
          "internalType": "uint256",
          "name": "value",
          "type": "uint256"
        }
      ],
      "name": "transferFrom",
      "outputs": [
        {
          "internalType": "bool",
          "name": "",
          "type": "bool"
        }
      ],
      "stateMutability": "nonpayable",
      "type": "function"
    },
    {
      "inputs": [
        {
          "internalType": "address",
          "name": "newOwner",
          "type": "address"
        }
      ],
      "name": "transferOwnership",
      "outputs": [],
      "stateMutability": "nonpayable",
      "type": "function"
    }
  ],
  "bytecode": "0x60806040523480156200001157600080fd5b5060405162001eb638038062001eb6833981016040819052620000349162000273565b818484600362000045838262000391565b50600462000054828262000391565b5050506001600160a01b0381166200008657604051631e4fbdf760e01b81526000600482015260240160405180910390fd5b620000918162000131565b506005805460ff60a01b19169055600680546001600160a01b0383166001600160a01b03199182161790915560078054909116331790556040518290620000d89062000183565b6001600160a01b039091168152602001604051809103906000f08015801562000105573d6000803e3d6000fd5b50600880546001600160a01b0319166001600160a01b0392909216919091179055506200045d92505050565b600580546001600160a01b038381166001600160a01b0319831681179093556040519116919082907f8be0079c531659141344cd1fd0a4f28419497f9722a3daafe3b4186f6b6457e090600090a35050565b6108a3806200161383390190565b634e487b7160e01b600052604160045260246000fd5b600082601f830112620001b957600080fd5b81516001600160401b0380821115620001d657620001d662000191565b604051601f8301601f19908116603f0116810190828211818310171562000201576200020162000191565b816040528381526020925086838588010111156200021e57600080fd5b600091505b8382101562000242578582018301518183018401529082019062000223565b600093810190920192909252949350505050565b80516001600160a01b03811681146200026e57600080fd5b919050565b600080600080608085870312156200028a57600080fd5b84516001600160401b0380821115620002a257600080fd5b620002b088838901620001a7565b95506020870151915080821115620002c757600080fd5b50620002d687828801620001a7565b935050620002e76040860162000256565b9150620002f76060860162000256565b905092959194509250565b600181811c908216806200031757607f821691505b6020821081036200033857634e487b7160e01b600052602260045260246000fd5b50919050565b601f8211156200038c57600081815260208120601f850160051c81016020861015620003675750805b601f850160051c820191505b81811015620003885782815560010162000373565b5050505b505050565b81516001600160401b03811115620003ad57620003ad62000191565b620003c581620003be845462000302565b846200033e565b602080601f831160018114620003fd5760008415620003e45750858301515b600019600386901b1c1916600185901b17855562000388565b600085815260208120601f198616915b828110156200042e578886015182559484019460019091019084016200040d565b50858210156200044d5787850151600019600388901b60f8161c191681555b5050505050600190811b01905550565b6111a6806200046d6000396000f3fe608060405234801561001057600080fd5b506004361061011b5760003560e01c806370a08231116100b25780638df8103d11610081578063a9059cbb11610066578063a9059cbb14610258578063dd62ed3e1461026b578063f2fde38b146102a457600080fd5b80638df8103d1461023d57806395d89b411461025057600080fd5b806370a08231146101e8578063715018a61461021157806387cfef00146102195780638da5cb5b1461022c57600080fd5b8063313ce567116100ee578063313ce567146101865780633734256e1461019557806340f05a19146101c0578063673d1762146101d557600080fd5b806306fdde0314610120578063095ea7b31461013e57806318160ddd1461016157806323b872dd14610173575b600080fd5b6101286102b7565b6040516101359190610de9565b60405180910390f35b61015161014c366004610e1f565b610349565b6040519015158152602001610135565b6002545b604051908152602001610135565b610151610181366004610e49565b610363565b60405160128152602001610135565b6008546101a8906001600160a01b031681565b6040516001600160a01b039091168152602001610135565b6101d36101ce366004610e9d565b610387565b005b6101d36101e3366004610f0c565b610405565b6101656101f6366004610f85565b6001600160a01b031660009081526020819052604090205490565b6101d361060a565b6101d3610227366004610fa0565b61061e565b6005546001600160a01b03166101a8565b6101d361024b366004610fc2565b6106e3565b6101286108da565b610151610266366004610e1f565b6108e9565b610165610279366004611012565b6001600160a01b03918216600090815260016020908152604080832093909416825291909152205490565b6101d36102b2366004610f85565b6108f7565b6060600380546102c690611045565b80601f01602080910402602001604051908101604052809291908181526020018280546102f290611045565b801561033f5780601f106103145761010080835404028352916020019161033f565b820191906000526020600020905b81548152906001019060200180831161032257829003601f168201915b5050505050905090565b60003361035781858561094e565b60019150505b92915050565b600033610371858285610960565b61037c8585856109f7565b506001949350505050565b61038f610a6f565b6009805490600061039f8361108f565b909155506103b290506020820182610f85565b6001600160a01b03167fcac03685d5ba4ab3e1465a8ee1b2bb21094ddbd612a969fd34f93a5be7a0ac4f6103e960208401846110a8565b6040516103f79291906110f6565b60405180910390a250505050565b61040d610a6f565b6008546040517fc3c5a5470000000000000000000000000000000000000000000000000000000081526001600160a01b0385811660048301529091169063c3c5a54790602401602060405180830381865afa158015610470573d6000803e3d6000fd5b505050506040513d601f19601f820116820180604052508101906104949190611125565b6104e55760405162461bcd60e51b815260206004820152601a60248201527f496e766573746f72206973206e6f74207265676973746572656400000000000060448201526064015b60405180910390fd5b6104f08484846109f7565b6005546001600160a01b03166001600160a01b0316846001600160a01b0316036105a957600654604051602481018490526001600160a01b03909116907fcac03685d5ba4ab3e1465a8ee1b2bb21094ddbd612a969fd34f93a5be7a0ac4f9060440160408051601f198184030181529181526020820180516001600160e01b03167f93824a3e00000000000000000000000000000000000000000000000000000000179052516105a09190610de9565b60405180910390a25b6105b66020820182610f85565b6001600160a01b03167fcac03685d5ba4ab3e1465a8ee1b2bb21094ddbd612a969fd34f93a5be7a0ac4f6105ed60208401846110a8565b6040516105fb9291906110f6565b60405180910390a25050505050565b610612610a6f565b61061c6000610ab5565b565b600580547402000000000000000000000000000000000000000060ff60a01b1990911617905560065460405160248101849052604481018390526001600160a01b03909116907fcac03685d5ba4ab3e1465a8ee1b2bb21094ddbd612a969fd34f93a5be7a0ac4f9060640160408051601f198184030181529181526020820180516001600160e01b03167f87cfef0000000000000000000000000000000000000000000000000000000000179052516106d79190610de9565b60405180910390a25050565b6106eb610a6f565b6007546001600160a01b038581169116146107485760405162461bcd60e51b815260206004820152601d60248201527f426f6e64206d757374206265206973737565642062792069737375657200000060448201526064016104dc565b6005546001600160a01b038481169116146107a55760405162461bcd60e51b815260206004820181905260248201527f426f6e64206d7573742062652069737375656420746f20637573746f6469616e60448201526064016104dc565b6000600554600160a01b900460ff1660028111156107c5576107c5611147565b146108125760405162461bcd60e51b815260206004820152601c60248201527f426f6e642068617320616c7265616479206265656e206973737565640000000060448201526064016104dc565b61081c8383610b1f565b60058054600160a01b60ff60a01b199091161790556006546040516001600160a01b03858116602483015260448201859052909116907fcac03685d5ba4ab3e1465a8ee1b2bb21094ddbd612a969fd34f93a5be7a0ac4f9060640160408051601f198184030181529181526020820180516001600160e01b03167f0e50bc1100000000000000000000000000000000000000000000000000000000179052516108c59190610de9565b60405180910390a26103b26020820182610f85565b6060600480546102c690611045565b6000336103578185856109f7565b6108ff610a6f565b6001600160a01b038116610942576040517f1e4fbdf7000000000000000000000000000000000000000000000000000000008152600060048201526024016104dc565b61094b81610ab5565b50565b61095b8383836001610b59565b505050565b6001600160a01b0383811660009081526001602090815260408083209386168352929052205460001981146109f157818110156109e2576040517ffb8f41b20000000000000000000000000000000000000000000000000000000081526001600160a01b038416600482015260248101829052604481018390526064016104dc565b6109f184848484036000610b59565b50505050565b6001600160a01b038316610a3a576040517f96c6fd1e000000000000000000000000000000000000000000000000000000008152600060048201526024016104dc565b6001600160a01b038216610a645760405163ec442f0560e01b8152600060048201526024016104dc565b61095b838383610c60565b6005546001600160a01b0316331461061c576040517f118cdaa70000000000000000000000000000000000000000000000000000000081523360048201526024016104dc565b600580546001600160a01b038381167fffffffffffffffffffffffff0000000000000000000000000000000000000000831681179093556040519116919082907f8be0079c531659141344cd1fd0a4f28419497f9722a3daafe3b4186f6b6457e090600090a35050565b6001600160a01b038216610b495760405163ec442f0560e01b8152600060048201526024016104dc565b610b5560008383610c60565b5050565b6001600160a01b038416610b9c576040517fe602df05000000000000000000000000000000000000000000000000000000008152600060048201526024016104dc565b6001600160a01b038316610bdf576040517f94280d62000000000000000000000000000000000000000000000000000000008152600060048201526024016104dc565b6001600160a01b03808516600090815260016020908152604080832093871683529290522082905580156109f157826001600160a01b0316846001600160a01b03167f8c5be1e5ebec7d5bd14f71427d1e84f3dd0314c0f7b2291e5b200ac8c7c3b92584604051610c5291815260200190565b60405180910390a350505050565b6001600160a01b038316610c8b578060026000828254610c80919061115d565b90915550610d169050565b6001600160a01b03831660009081526020819052604090205481811015610cf7576040517fe450d38c0000000000000000000000000000000000000000000000000000000081526001600160a01b038516600482015260248101829052604481018390526064016104dc565b6001600160a01b03841660009081526020819052604090209082900390555b6001600160a01b038216610d3257600280548290039055610d51565b6001600160a01b03821660009081526020819052604090208054820190555b816001600160a01b0316836001600160a01b03167fddf252ad1be2c89b69c2b068fc378daa952ba7f163c4a11628f55a4df523b3ef83604051610d9691815260200190565b60405180910390a3505050565b6000815180845260005b81811015610dc957602081850181015186830182015201610dad565b506000602082860101526020601f19601f83011685010191505092915050565b602081526000610dfc6020830184610da3565b9392505050565b80356001600160a01b0381168114610e1a57600080fd5b919050565b60008060408385031215610e3257600080fd5b610e3b83610e03565b946020939093013593505050565b600080600060608486031215610e5e57600080fd5b610e6784610e03565b9250610e7560208501610e03565b9150604084013590509250925092565b600060408284031215610e9757600080fd5b50919050565b60008060008060808587031215610eb357600080fd5b610ebc85610e03565b9350610eca60208601610e03565b9250610ed860408601610e03565b9150606085013567ffffffffffffffff811115610ef457600080fd5b610f0087828801610e85565b91505092959194509250565b600080600080600060a08688031215610f2457600080fd5b610f2d86610e03565b9450610f3b60208701610e03565b9350610f4960408701610e03565b925060608601359150608086013567ffffffffffffffff811115610f6c57600080fd5b610f7888828901610e85565b9150509295509295909350565b600060208284031215610f9757600080fd5b610dfc82610e03565b60008060408385031215610fb357600080fd5b50508035926020909101359150565b60008060008060808587031215610fd857600080fd5b610fe185610e03565b9350610fef60208601610e03565b925060408501359150606085013567ffffffffffffffff811115610ef457600080fd5b6000806040838503121561102557600080fd5b61102e83610e03565b915061103c60208401610e03565b90509250929050565b600181811c9082168061105957607f821691505b602082108103610e9757634e487b7160e01b600052602260045260246000fd5b634e487b7160e01b600052601160045260246000fd5b6000600182016110a1576110a1611079565b5060010190565b6000808335601e198436030181126110bf57600080fd5b83018035915067ffffffffffffffff8211156110da57600080fd5b6020019150368190038213156110ef57600080fd5b9250929050565b60208152816020820152818360408301376000818301604090810191909152601f909201601f19160101919050565b60006020828403121561113757600080fd5b81518015158114610dfc57600080fd5b634e487b7160e01b600052602160045260246000fd5b8082018082111561035d5761035d61107956fea2646970667358221220d7635c18a0adb6e046ba65c3aadc0466459c50cd91148be934b1c2918e6f15b364736f6c63430008140033608060405234801561001057600080fd5b506040516108a33803806108a383398101604081905261002f916100be565b806001600160a01b03811661005e57604051631e4fbdf760e01b81526000600482015260240160405180910390fd5b6100678161006e565b50506100ee565b600080546001600160a01b038381166001600160a01b0319831681178455604051919092169283917f8be0079c531659141344cd1fd0a4f28419497f9722a3daafe3b4186f6b6457e09190a35050565b6000602082840312156100d057600080fd5b81516001600160a01b03811681146100e757600080fd5b9392505050565b6107a6806100fd6000396000f3fe608060405234801561001057600080fd5b50600436106100a35760003560e01c8063715018a611610076578063c3c5a5471161005b578063c3c5a54714610132578063e641bde11461016d578063f2fde38b1461018057600080fd5b8063715018a6146101195780638da5cb5b1461012157600080fd5b806318898048146100a8578063277b7d43146100c65780633feb5f2b146100db5780634271497814610106575b600080fd5b6100b0610193565b6040516100bd91906105f1565b60405180910390f35b6100d96100d436600461063e565b610260565b005b6100ee6100e93660046106b3565b6102b4565b6040516001600160a01b0390911681526020016100bd565b6100d96101143660046106cc565b6102de565b6100d96103e3565b6000546001600160a01b03166100ee565b61015d6101403660046106cc565b6001600160a01b0316600090815260026020526040902054151590565b60405190151581526020016100bd565b6100d961017b3660046106cc565b6103f7565b6100d961018e3660046106cc565b6104f7565b60015460609060009067ffffffffffffffff8111156101b4576101b46106fc565b6040519080825280602002602001820160405280156101dd578160200160208202803683370190505b50905060005b60015481101561025a576001818154811061020057610200610712565b9060005260206000200160009054906101000a90046001600160a01b031682828151811061023057610230610712565b6001600160a01b0390921660209283029190910190910152806102528161073e565b9150506101e3565b50919050565b61026861054e565b60005b818110156102af5761029d83838381811061028857610288610712565b905060200201602081019061017b91906106cc565b806102a78161073e565b91505061026b565b505050565b600181815481106102c457600080fd5b6000918252602090912001546001600160a01b0316905081565b6102e661054e565b6001600160a01b038116600090815260026020526040812054908190036103545760405162461bcd60e51b815260206004820152601860248201527f496e766573746f7220616c72656164792072656d6f766564000000000000000060448201526064015b60405180910390fd5b6001600160a01b03821660009081526002602052604081205560016103798183610757565b8154811061038957610389610712565b60009182526020822001805473ffffffffffffffffffffffffffffffffffffffff191690556040516001600160a01b038416917fba0013628ccb89af5bb18edf764d3a7b35c07b894848b8e6fd3434719de39c7d91a25050565b6103eb61054e565b6103f56000610594565b565b6103ff61054e565b6001600160a01b038116600090815260026020526040902054156104655760405162461bcd60e51b815260206004820152601660248201527f496e766573746f7220616c726561647920616464656400000000000000000000604482015260640161034b565b6001805480820182557fb10e2d527612073b26eecdfd717e6a320cf44b4afac2b0732d9fcbe2b7fa0cf601805473ffffffffffffffffffffffffffffffffffffffff19166001600160a01b03841690811790915590546000828152600260205260408082209290925590517f62e6a5118be03f9bfedb79b0ed7ed75ee4a9e15fc4c69d2c4976acde26fa2d5f9190a250565b6104ff61054e565b6001600160a01b038116610542576040517f1e4fbdf70000000000000000000000000000000000000000000000000000000081526000600482015260240161034b565b61054b81610594565b50565b6000546001600160a01b031633146103f5576040517f118cdaa700000000000000000000000000000000000000000000000000000000815233600482015260240161034b565b600080546001600160a01b0383811673ffffffffffffffffffffffffffffffffffffffff19831681178455604051919092169283917f8be0079c531659141344cd1fd0a4f28419497f9722a3daafe3b4186f6b6457e09190a35050565b6020808252825182820181905260009190848201906040850190845b818110156106325783516001600160a01b03168352928401929184019160010161060d565b50909695505050505050565b6000806020838503121561065157600080fd5b823567ffffffffffffffff8082111561066957600080fd5b818501915085601f83011261067d57600080fd5b81358181111561068c57600080fd5b8660208260051b85010111156106a157600080fd5b60209290920196919550909350505050565b6000602082840312156106c557600080fd5b5035919050565b6000602082840312156106de57600080fd5b81356001600160a01b03811681146106f557600080fd5b9392505050565b634e487b7160e01b600052604160045260246000fd5b634e487b7160e01b600052603260045260246000fd5b634e487b7160e01b600052601160045260246000fd5b60006001820161075057610750610728565b5060010190565b8181038181111561076a5761076a610728565b9291505056fea26469706673582212209b0aee96cf42c23020f1f20cb8cfcc1ff6737933e03e3c50983e766520376cd564736f6c63430008140033",
  "linkReferences": {},
  "deployedLinkReferences": {}
}