{
  "_format": "hh-sol-artifact-1",
  "contractName": "BondSubscription",
  "sourceName": "contracts/private/BondSubscription.sol",
  "abi": [
    {
      "inputs": [
        {
          "internalType": "address",
          "name": "bondAddress_",
          "type": "address"
        },
        {
          "internalType": "uint256",
          "name": "units_",
          "type": "uint256"
        },
        {
          "internalType": "address",
          "name": "custodian_",
          "type": "address"
        }
      ],
      "stateMutability": "nonpayable",
      "type": "constructor"
    },
    {
      "inputs": [
        {
          "internalType": "address",
          "name": "owner",
          "type": "address"
        }
      ],
      "name": "OwnableInvalidOwner",
      "type": "error"
    },
    {
      "inputs": [
        {
          "internalType": "address",
          "name": "account",
          "type": "address"
        }
      ],
      "name": "OwnableUnauthorizedAccount",
      "type": "error"
    },
    {
      "anonymous": false,
      "inputs": [
        {
          "indexed": true,
          "internalType": "address",
          "name": "previousOwner",
          "type": "address"
        },
        {
          "indexed": true,
          "internalType": "address",
          "name": "newOwner",
          "type": "address"
        }
      ],
      "name": "OwnershipTransferred",
      "type": "event"
    },
    {
      "anonymous": false,
      "inputs": [
        {
          "indexed": true,
          "internalType": "address",
          "name": "contractAddress",
          "type": "address"
        },
        {
          "indexed": false,
          "internalType": "bytes",
          "name": "encodedCall",
          "type": "bytes"
        }
      ],
      "name": "PenteExternalCall",
      "type": "event"
    },
    {
      "inputs": [],
      "name": "bondAddress",
      "outputs": [
        {
          "internalType": "address",
          "name": "",
          "type": "address"
        }
      ],
      "stateMutability": "view",
      "type": "function"
    },
    {
      "inputs": [],
      "name": "custodian",
      "outputs": [
        {
          "internalType": "address",
          "name": "",
          "type": "address"
        }
      ],
      "stateMutability": "view",
      "type": "function"
    },
    {
      "inputs": [
        {
          "internalType": "uint256",
          "name": "units_",
          "type": "uint256"
        }
      ],
      "name": "distribute",
      "outputs": [],
      "stateMutability": "nonpayable",
      "type": "function"
    },
    {
      "inputs": [],
      "name": "owner",
      "outputs": [
        {
          "internalType": "address",
          "name": "",
          "type": "address"
        }
      ],
      "stateMutability": "view",
      "type": "function"
    },
    {
      "inputs": [
        {
          "internalType": "address",
          "name": "to",
          "type": "address"
        },
        {
          "internalType": "bytes",
          "name": "encodedCall",
          "type": "bytes"
        }
      ],
      "name": "prepareBond",
      "outputs": [],
      "stateMutability": "nonpayable",
      "type": "function"
    },
    {
      "inputs": [
        {
          "internalType": "address",
          "name": "to",
          "type": "address"
        },
        {
          "internalType": "bytes",
          "name": "encodedCall",
          "type": "bytes"
        }
      ],
      "name": "preparePayment",
      "outputs": [],
      "stateMutability": "nonpayable",
      "type": "function"
    },
    {
      "inputs": [],
      "name": "receivedUnits",
      "outputs": [
        {
          "internalType": "uint256",
          "name": "",
          "type": "uint256"
        }
      ],
      "stateMutability": "view",
      "type": "function"
    },
    {
      "inputs": [],
      "name": "renounceOwnership",
      "outputs": [],
      "stateMutability": "nonpayable",
      "type": "function"
    },
    {
      "inputs": [],
      "name": "requestedUnits",
      "outputs": [
        {
          "internalType": "uint256",
          "name": "",
          "type": "uint256"
        }
      ],
      "stateMutability": "view",
      "type": "function"
    },
    {
      "inputs": [
        {
          "internalType": "address",
          "name": "newOwner",
          "type": "address"
        }
      ],
      "name": "transferOwnership",
      "outputs": [],
      "stateMutability": "nonpayable",
      "type": "function"
    }
  ],
  "bytecode": "0x608060405234801561001057600080fd5b50604051610aad380380610aad83398101604081905261002f91610102565b338061005557604051631e4fbdf760e01b81526000600482015260240160405180910390fd5b61005e81610096565b50600180546001600160a01b039485166001600160a01b0319918216179091556003929092556002805491909316911617905561013e565b600080546001600160a01b038381166001600160a01b0319831681178455604051919092169283917f8be0079c531659141344cd1fd0a4f28419497f9722a3daafe3b4186f6b6457e09190a35050565b80516001600160a01b03811681146100fd57600080fd5b919050565b60008060006060848603121561011757600080fd5b610120846100e6565b925060208401519150610135604085016100e6565b90509250925092565b6109608061014d6000396000f3fe608060405234801561001057600080fd5b50600436106100be5760003560e01c80638da5cb5b11610076578063a38ed3bc1161005b578063a38ed3bc1461015a578063ccd9571214610171578063f2fde38b1461017a57600080fd5b80638da5cb5b1461013657806391c05b0b1461014757600080fd5b8063715018a6116100a7578063715018a61461010657806387ef6f46146101105780638c14ddeb1461012357600080fd5b8063375b74c3146100c357806359e64d1e146100f3575b600080fd5b6002546100d6906001600160a01b031681565b6040516001600160a01b0390911681526020015b60405180910390f35b6001546100d6906001600160a01b031681565b61010e61018d565b005b61010e61011e36600461063f565b6101a1565b61010e61013136600461063f565b6101e4565b6000546001600160a01b03166100d6565b61010e6101553660046106c2565b610281565b61016360045481565b6040519081526020016100ea565b61016360035481565b61010e6101883660046106db565b610529565b610195610580565b61019f60006105c6565b565b6101a9610580565b6007805473ffffffffffffffffffffffffffffffffffffffff19166001600160a01b03851617905560086101de82848361079c565b50505050565b6002546001600160a01b0316336001600160a01b03161461024c5760405162461bcd60e51b815260206004820152601760248201527f53656e646572206973206e6f7420637573746f6469616e00000000000000000060448201526064015b60405180910390fd5b6005805473ffffffffffffffffffffffffffffffffffffffff19166001600160a01b03851617905560066101de82848361079c565b6002546001600160a01b0316336001600160a01b0316146102e45760405162461bcd60e51b815260206004820152601760248201527f53656e646572206973206e6f7420637573746f6469616e0000000000000000006044820152606401610243565b60035481111580156103055750806003546102ff9190610873565b60045411155b6103775760405162461bcd60e51b815260206004820152602d60248201527f43616e6e6f742072656365697665206d6f726520756e697473207468616e207760448201527f65726520726571756573746564000000000000000000000000000000000000006064820152608401610243565b60006006805461038690610713565b9050116103fb5760405162461bcd60e51b815260206004820152602360248201527f426f6e64207472616e7366657220686173206e6f74206265656e20707265706160448201527f72656400000000000000000000000000000000000000000000000000000000006064820152608401610243565b60006008805461040a90610713565b90501161047f5760405162461bcd60e51b815260206004820152602660248201527f5061796d656e74207472616e7366657220686173206e6f74206265656e20707260448201527f65706172656400000000000000000000000000000000000000000000000000006064820152608401610243565b8060046000828254610491919061088c565b90915550506005546040516001600160a01b03909116907fcac03685d5ba4ab3e1465a8ee1b2bb21094ddbd612a969fd34f93a5be7a0ac4f906104d69060069061089f565b60405180910390a26007546040516001600160a01b03909116907fcac03685d5ba4ab3e1465a8ee1b2bb21094ddbd612a969fd34f93a5be7a0ac4f9061051e9060089061089f565b60405180910390a250565b610531610580565b6001600160a01b038116610574576040517f1e4fbdf700000000000000000000000000000000000000000000000000000000815260006004820152602401610243565b61057d816105c6565b50565b6000546001600160a01b0316331461019f576040517f118cdaa7000000000000000000000000000000000000000000000000000000008152336004820152602401610243565b600080546001600160a01b0383811673ffffffffffffffffffffffffffffffffffffffff19831681178455604051919092169283917f8be0079c531659141344cd1fd0a4f28419497f9722a3daafe3b4186f6b6457e09190a35050565b80356001600160a01b038116811461063a57600080fd5b919050565b60008060006040848603121561065457600080fd5b61065d84610623565b9250602084013567ffffffffffffffff8082111561067a57600080fd5b818601915086601f83011261068e57600080fd5b81358181111561069d57600080fd5b8760208285010111156106af57600080fd5b6020830194508093505050509250925092565b6000602082840312156106d457600080fd5b5035919050565b6000602082840312156106ed57600080fd5b6106f682610623565b9392505050565b634e487b7160e01b600052604160045260246000fd5b600181811c9082168061072757607f821691505b60208210810361074757634e487b7160e01b600052602260045260246000fd5b50919050565b601f82111561079757600081815260208120601f850160051c810160208610156107745750805b601f850160051c820191505b8181101561079357828155600101610780565b5050505b505050565b67ffffffffffffffff8311156107b4576107b46106fd565b6107c8836107c28354610713565b8361074d565b6000601f8411600181146107fc57600085156107e45750838201355b600019600387901b1c1916600186901b178355610856565b600083815260209020601f19861690835b8281101561082d578685013582556020948501946001909201910161080d565b508682101561084a5760001960f88860031b161c19848701351681555b505060018560011b0183555b5050505050565b634e487b7160e01b600052601160045260246000fd5b818103818111156108865761088661085d565b92915050565b808201808211156108865761088661085d565b60006020808352600084546108b381610713565b808487015260406001808416600081146108d457600181146108ee5761091c565b60ff1985168984015283151560051b89018301955061091c565b896000528660002060005b858110156109145781548b82018601529083019088016108f9565b8a0184019650505b50939897505050505050505056fea2646970667358221220eeef12248ed6b11d227dfc5c44c4747397c69b5c5a0ac0eb9d0a50cf87493b8664736f6c63430008140033",
  "linkReferences": {},
  "deployedLinkReferences": {}
}