{
  "_format": "hh-sol-artifact-1",
  "contractName": "BondSubscription",
  "sourceName": "contracts/private/BondSubscription.sol",
  "abi": [
    {
      "inputs": [
        {
          "internalType": "address",
          "name": "bondAddress_",
          "type": "address"
        },
        {
          "internalType": "uint256",
          "name": "units_",
          "type": "uint256"
        }
      ],
      "stateMutability": "nonpayable",
      "type": "constructor"
    },
    {
      "inputs": [
        {
          "internalType": "address",
          "name": "owner",
          "type": "address"
        }
      ],
      "name": "OwnableInvalidOwner",
      "type": "error"
    },
    {
      "inputs": [
        {
          "internalType": "address",
          "name": "account",
          "type": "address"
        }
      ],
      "name": "OwnableUnauthorizedAccount",
      "type": "error"
    },
    {
      "anonymous": false,
      "inputs": [
        {
          "indexed": true,
          "internalType": "address",
          "name": "previousOwner",
          "type": "address"
        },
        {
          "indexed": true,
          "internalType": "address",
          "name": "newOwner",
          "type": "address"
        }
      ],
      "name": "OwnershipTransferred",
      "type": "event"
    },
    {
      "anonymous": false,
      "inputs": [
        {
          "indexed": true,
          "internalType": "address",
          "name": "contractAddress",
          "type": "address"
        },
        {
          "indexed": false,
          "internalType": "bytes",
          "name": "encodedCall",
          "type": "bytes"
        }
      ],
      "name": "PenteExternalCall",
      "type": "event"
    },
    {
      "inputs": [],
      "name": "bondAddress",
      "outputs": [
        {
          "internalType": "address",
          "name": "",
          "type": "address"
        }
      ],
      "stateMutability": "view",
      "type": "function"
    },
    {
      "inputs": [
        {
          "internalType": "uint256",
          "name": "units_",
          "type": "uint256"
        }
      ],
      "name": "distribute",
      "outputs": [],
      "stateMutability": "nonpayable",
      "type": "function"
    },
    {
      "inputs": [],
      "name": "owner",
      "outputs": [
        {
          "internalType": "address",
          "name": "",
          "type": "address"
        }
      ],
      "stateMutability": "view",
      "type": "function"
    },
    {
      "inputs": [
        {
          "internalType": "address",
          "name": "to",
          "type": "address"
        },
        {
          "internalType": "bytes",
          "name": "encodedCall",
          "type": "bytes"
        }
      ],
      "name": "prepareBond",
      "outputs": [],
      "stateMutability": "nonpayable",
      "type": "function"
    },
    {
      "inputs": [
        {
          "internalType": "address",
          "name": "to",
          "type": "address"
        },
        {
          "internalType": "bytes",
          "name": "encodedCall",
          "type": "bytes"
        }
      ],
      "name": "preparePayment",
      "outputs": [],
      "stateMutability": "nonpayable",
      "type": "function"
    },
    {
      "inputs": [],
      "name": "receivedUnits",
      "outputs": [
        {
          "internalType": "uint256",
          "name": "",
          "type": "uint256"
        }
      ],
      "stateMutability": "view",
      "type": "function"
    },
    {
      "inputs": [],
      "name": "renounceOwnership",
      "outputs": [],
      "stateMutability": "nonpayable",
      "type": "function"
    },
    {
      "inputs": [],
      "name": "requestedUnits",
      "outputs": [
        {
          "internalType": "uint256",
          "name": "",
          "type": "uint256"
        }
      ],
      "stateMutability": "view",
      "type": "function"
    },
    {
      "inputs": [
        {
          "internalType": "address",
          "name": "newOwner",
          "type": "address"
        }
      ],
      "name": "transferOwnership",
      "outputs": [],
      "stateMutability": "nonpayable",
      "type": "function"
    }
  ],
  "bytecode": "0x608060405234801561001057600080fd5b5060405161098538038061098583398101604081905261002f916100d8565b338061005557604051631e4fbdf760e01b81526000600482015260240160405180910390fd5b61005e81610088565b50600180546001600160a01b0319166001600160a01b039390931692909217909155600255610112565b600080546001600160a01b038381166001600160a01b0319831681178455604051919092169283917f8be0079c531659141344cd1fd0a4f28419497f9722a3daafe3b4186f6b6457e09190a35050565b600080604083850312156100eb57600080fd5b82516001600160a01b038116811461010257600080fd5b6020939093015192949293505050565b610864806101216000396000f3fe608060405234801561001057600080fd5b50600436106100a35760003560e01c80638da5cb5b11610076578063a38ed3bc1161005b578063a38ed3bc1461012c578063ccd9571214610143578063f2fde38b1461014c57600080fd5b80638da5cb5b1461010857806391c05b0b1461011957600080fd5b806359e64d1e146100a8578063715018a6146100d857806387ef6f46146100e25780638c14ddeb146100f5575b600080fd5b6001546100bb906001600160a01b031681565b6040516001600160a01b0390911681526020015b60405180910390f35b6100e061015f565b005b6100e06100f0366004610543565b610173565b6100e0610103366004610543565b6101ae565b6000546001600160a01b03166100bb565b6100e06101273660046105c6565b6101e3565b61013560035481565b6040519081526020016100cf565b61013560025481565b6100e061015a3660046105df565b61042d565b610167610484565b61017160006104ca565b565b6006805473ffffffffffffffffffffffffffffffffffffffff19166001600160a01b03851617905560076101a88284836106a0565b50505050565b6004805473ffffffffffffffffffffffffffffffffffffffff19166001600160a01b03851617905560056101a88284836106a0565b60025481111580156102045750806002546101fe9190610777565b60035411155b61027b5760405162461bcd60e51b815260206004820152602d60248201527f43616e6e6f742072656365697665206d6f726520756e697473207468616e207760448201527f657265207265717565737465640000000000000000000000000000000000000060648201526084015b60405180910390fd5b60006005805461028a90610617565b9050116102ff5760405162461bcd60e51b815260206004820152602360248201527f426f6e64207472616e7366657220686173206e6f74206265656e20707265706160448201527f72656400000000000000000000000000000000000000000000000000000000006064820152608401610272565b60006007805461030e90610617565b9050116103835760405162461bcd60e51b815260206004820152602660248201527f5061796d656e74207472616e7366657220686173206e6f74206265656e20707260448201527f65706172656400000000000000000000000000000000000000000000000000006064820152608401610272565b80600360008282546103959190610790565b90915550506004546040516001600160a01b03909116907fcac03685d5ba4ab3e1465a8ee1b2bb21094ddbd612a969fd34f93a5be7a0ac4f906103da906005906107a3565b60405180910390a26006546040516001600160a01b03909116907fcac03685d5ba4ab3e1465a8ee1b2bb21094ddbd612a969fd34f93a5be7a0ac4f90610422906007906107a3565b60405180910390a250565b610435610484565b6001600160a01b038116610478576040517f1e4fbdf700000000000000000000000000000000000000000000000000000000815260006004820152602401610272565b610481816104ca565b50565b6000546001600160a01b03163314610171576040517f118cdaa7000000000000000000000000000000000000000000000000000000008152336004820152602401610272565b600080546001600160a01b0383811673ffffffffffffffffffffffffffffffffffffffff19831681178455604051919092169283917f8be0079c531659141344cd1fd0a4f28419497f9722a3daafe3b4186f6b6457e09190a35050565b80356001600160a01b038116811461053e57600080fd5b919050565b60008060006040848603121561055857600080fd5b61056184610527565b9250602084013567ffffffffffffffff8082111561057e57600080fd5b818601915086601f83011261059257600080fd5b8135818111156105a157600080fd5b8760208285010111156105b357600080fd5b6020830194508093505050509250925092565b6000602082840312156105d857600080fd5b5035919050565b6000602082840312156105f157600080fd5b6105fa82610527565b9392505050565b634e487b7160e01b600052604160045260246000fd5b600181811c9082168061062b57607f821691505b60208210810361064b57634e487b7160e01b600052602260045260246000fd5b50919050565b601f82111561069b57600081815260208120601f850160051c810160208610156106785750805b601f850160051c820191505b8181101561069757828155600101610684565b5050505b505050565b67ffffffffffffffff8311156106b8576106b8610601565b6106cc836106c68354610617565b83610651565b6000601f84116001811461070057600085156106e85750838201355b600019600387901b1c1916600186901b17835561075a565b600083815260209020601f19861690835b828110156107315786850135825560209485019460019092019101610711565b508682101561074e5760001960f88860031b161c19848701351681555b505060018560011b0183555b5050505050565b634e487b7160e01b600052601160045260246000fd5b8181038181111561078a5761078a610761565b92915050565b8082018082111561078a5761078a610761565b60006020808352600084546107b781610617565b808487015260406001808416600081146107d857600181146107f257610820565b60ff1985168984015283151560051b890183019550610820565b896000528660002060005b858110156108185781548b82018601529083019088016107fd565b8a0184019650505b50939897505050505050505056fea264697066735822122075d0af6c9d7f901dd507df47f9c950462090e0698b5fa018b21e67670d91069364736f6c63430008140033",
  "linkReferences": {},
  "deployedLinkReferences": {}
}