{
  "_format": "hh-sol-artifact-1",
  "contractName": "BondTrackerPublic",
  "sourceName": "contracts/shared/BondTrackerPublic.sol",
  "abi": [
    {
      "inputs": [
        {
          "internalType": "address",
          "name": "owner",
          "type": "address"
        },
        {
          "internalType": "uint256",
          "name": "issueDate_",
          "type": "uint256"
        },
        {
          "internalType": "uint256",
          "name": "maturityDate_",
          "type": "uint256"
        },
        {
          "internalType": "address",
          "name": "currencyToken_",
          "type": "address"
        },
        {
          "internalType": "uint256",
          "name": "faceValue_",
          "type": "uint256"
        }
      ],
      "stateMutability": "nonpayable",
      "type": "constructor"
    },
    {
      "inputs": [
        {
          "internalType": "address",
          "name": "owner",
          "type": "address"
        }
      ],
      "name": "OwnableInvalidOwner",
      "type": "error"
    },
    {
      "inputs": [
        {
          "internalType": "address",
          "name": "account",
          "type": "address"
        }
      ],
      "name": "OwnableUnauthorizedAccount",
      "type": "error"
    },
    {
      "anonymous": false,
      "inputs": [
        {
          "indexed": true,
          "internalType": "uint256",
          "name": "issueDate",
          "type": "uint256"
        },
        {
          "indexed": true,
          "internalType": "uint256",
          "name": "maturityDate",
          "type": "uint256"
        },
        {
          "indexed": true,
          "internalType": "uint256",
          "name": "faceValue",
          "type": "uint256"
        },
        {
          "indexed": false,
          "internalType": "address",
          "name": "currencyToken",
          "type": "address"
        }
      ],
      "name": "BondDetailsChanged",
      "type": "event"
    },
    {
      "anonymous": false,
      "inputs": [
        {
          "indexed": true,
          "internalType": "address",
          "name": "newCustodian",
          "type": "address"
        }
      ],
      "name": "CustodianChanged",
      "type": "event"
    },
    {
      "anonymous": false,
      "inputs": [
        {
          "indexed": true,
          "internalType": "address",
          "name": "previousOwner",
          "type": "address"
        },
        {
          "indexed": true,
          "internalType": "address",
          "name": "newOwner",
          "type": "address"
        }
      ],
      "name": "OwnershipTransferred",
      "type": "event"
    },
    {
      "anonymous": false,
      "inputs": [
        {
          "indexed": false,
          "internalType": "enum BondTrackerPublic.Status",
          "name": "newStatus",
          "type": "uint8"
        }
      ],
      "name": "StatusChanged",
      "type": "event"
    },
    {
      "inputs": [
        {
          "internalType": "uint256",
          "name": "discountPrice",
          "type": "uint256"
        },
        {
          "internalType": "uint256",
          "name": "minimumDenomination",
          "type": "uint256"
        }
      ],
      "name": "beginDistribution",
      "outputs": [],
      "stateMutability": "nonpayable",
      "type": "function"
    },
    {
      "inputs": [],
      "name": "currencyToken",
      "outputs": [
        {
          "internalType": "address",
          "name": "",
          "type": "address"
        }
      ],
      "stateMutability": "view",
      "type": "function"
    },
    {
      "inputs": [],
      "name": "custodian",
      "outputs": [
        {
          "internalType": "address",
          "name": "",
          "type": "address"
        }
      ],
      "stateMutability": "view",
      "type": "function"
    },
    {
      "inputs": [],
      "name": "distribution",
      "outputs": [
        {
          "internalType": "contract TokenDistribution",
          "name": "",
          "type": "address"
        }
      ],
      "stateMutability": "view",
      "type": "function"
    },
    {
      "inputs": [
        {
          "internalType": "uint256",
          "name": "amount",
          "type": "uint256"
        }
      ],
      "name": "onDistribute",
      "outputs": [],
      "stateMutability": "nonpayable",
      "type": "function"
    },
    {
      "inputs": [
        {
          "internalType": "address",
          "name": "to",
          "type": "address"
        },
        {
          "internalType": "uint256",
          "name": "amount",
          "type": "uint256"
        }
      ],
      "name": "onIssue",
      "outputs": [],
      "stateMutability": "nonpayable",
      "type": "function"
    },
    {
      "inputs": [],
      "name": "owner",
      "outputs": [
        {
          "internalType": "address",
          "name": "",
          "type": "address"
        }
      ],
      "stateMutability": "view",
      "type": "function"
    },
    {
      "inputs": [],
      "name": "renounceOwnership",
      "outputs": [],
      "stateMutability": "nonpayable",
      "type": "function"
    },
    {
      "inputs": [],
      "name": "totalSupply",
      "outputs": [
        {
          "internalType": "uint256",
          "name": "",
          "type": "uint256"
        }
      ],
      "stateMutability": "view",
      "type": "function"
    },
    {
      "inputs": [
        {
          "internalType": "address",
          "name": "newOwner",
          "type": "address"
        }
      ],
      "name": "transferOwnership",
      "outputs": [],
      "stateMutability": "nonpayable",
      "type": "function"
    }
  ],
  "bytecode": "0x608060405234801561001057600080fd5b5060405161102238038061102283398101604081905261002f916101f0565b846001600160a01b03811661005f57604051631e4fbdf760e01b8152600060048201526024015b60405180910390fd5b61006881610184565b508383116100c75760405162461bcd60e51b815260206004820152602660248201527f4d617475726974792064617465206d757374206265206166746572206973737560448201526565206461746560d01b6064820152608401610056565b600380546001600160a01b0319166001600160a01b0384161790556005805460ff191690556006849055600783905560088190556040517fafa725e7f44cadb687a7043853fa1a7e7b8f0da74ce87ec546e9420f04da8c1e9061012c90600090610240565b60405180910390a16003546040516001600160a01b0390911681528190849086907fe749e22f2288257cde5ad87a6c549254f13b7419048cd5d301cbbc169d25d7949060200160405180910390a45050505050610268565b600080546001600160a01b038381166001600160a01b0319831681178455604051919092169283917f8be0079c531659141344cd1fd0a4f28419497f9722a3daafe3b4186f6b6457e09190a35050565b80516001600160a01b03811681146101eb57600080fd5b919050565b600080600080600060a0868803121561020857600080fd5b610211866101d4565b9450602086015193506040860151925061022d606087016101d4565b9150608086015190509295509295909350565b602081016004831061026257634e487b7160e01b600052602160045260246000fd5b91905290565b610dab806102776000396000f3fe608060405234801561001057600080fd5b50600436106100be5760003560e01c8063715018a6116100765780638da5cb5b1161005b5780638da5cb5b1461016057806393824a3e14610171578063f2fde38b1461018457600080fd5b8063715018a61461014557806387cfef001461014d57600080fd5b8063375b74c3116100a7578063375b74c3146100f45780635ee58efc1461011f5780636b2fa3741461013257600080fd5b80630e50bc11146100c357806318160ddd146100d8575b600080fd5b6100d66100d13660046106ac565b610197565b005b6100e160045481565b6040519081526020015b60405180910390f35b600154610107906001600160a01b031681565b6040516001600160a01b0390911681526020016100eb565b600254610107906001600160a01b031681565b600354610107906001600160a01b031681565b6100d6610246565b6100d661015b3660046106d6565b61025a565b6000546001600160a01b0316610107565b6100d661017f3660046106f8565b6103c7565b6100d6610192366004610711565b61058c565b61019f6105e0565b6001805473ffffffffffffffffffffffffffffffffffffffff19166001600160a01b03841617815560048290556005805460ff1916821790556040517fafa725e7f44cadb687a7043853fa1a7e7b8f0da74ce87ec546e9420f04da8c1e9161020691610733565b60405180910390a16040516001600160a01b038316907fd947b651b9920db18901a5bc4edc0b5f5d1fc4a6b326b171f3b3c3c6395590ef90600090a25050565b61024e6105e0565b6102586000610626565b565b6102626105e0565b6002546001600160a01b0316156102e65760405162461bcd60e51b815260206004820152602960248201527f446973747269627574696f6e2068617320616c7265616479206265656e20696e60448201527f697469616c697a6564000000000000000000000000000000000000000000000060648201526084015b60405180910390fd5b6004546003546040513092916001600160a01b0316908590859061030990610683565b6001600160a01b03958616815260208101949094529390911660408301526060820152608081019190915260a001604051809103906000f080158015610353573d6000803e3d6000fd5b506002805473ffffffffffffffffffffffffffffffffffffffff19166001600160a01b03929092169190911781556005805460ff1916821790556040517fafa725e7f44cadb687a7043853fa1a7e7b8f0da74ce87ec546e9420f04da8c1e916103bb91610733565b60405180910390a15050565b6103cf6105e0565b6002546001600160a01b031661044d5760405162461bcd60e51b815260206004820152602560248201527f446973747269627574696f6e20686173206e6f74206265656e20696e6974696160448201527f6c697a656400000000000000000000000000000000000000000000000000000060648201526084016102dd565b6002546040517fefef39a1000000000000000000000000000000000000000000000000000000008152600481018390526001600160a01b039091169063efef39a190602401600060405180830381600087803b1580156104ac57600080fd5b505af11580156104c0573d6000803e3d6000fd5b50505050600260009054906101000a90046001600160a01b03166001600160a01b0316638324bb516040518163ffffffff1660e01b8152600401602060405180830381865afa158015610517573d6000803e3d6000fd5b505050506040513d601f19601f8201168201806040525081019061053b9190610774565b600003610589576005805460ff191660039081179091556040517fafa725e7f44cadb687a7043853fa1a7e7b8f0da74ce87ec546e9420f04da8c1e9161058091610733565b60405180910390a15b50565b6105946105e0565b6001600160a01b0381166105d7576040517f1e4fbdf7000000000000000000000000000000000000000000000000000000008152600060048201526024016102dd565b61058981610626565b6000546001600160a01b03163314610258576040517f118cdaa70000000000000000000000000000000000000000000000000000000081523360048201526024016102dd565b600080546001600160a01b0383811673ffffffffffffffffffffffffffffffffffffffff19831681178455604051919092169283917f8be0079c531659141344cd1fd0a4f28419497f9722a3daafe3b4186f6b6457e09190a35050565b6105e88061078e83390190565b80356001600160a01b03811681146106a757600080fd5b919050565b600080604083850312156106bf57600080fd5b6106c883610690565b946020939093013593505050565b600080604083850312156106e957600080fd5b50508035926020909101359150565b60006020828403121561070a57600080fd5b5035919050565b60006020828403121561072357600080fd5b61072c82610690565b9392505050565b602081016004831061076e577f4e487b7100000000000000000000000000000000000000000000000000000000600052602160045260246000fd5b91905290565b60006020828403121561078657600080fd5b505191905056fe608060405234801561001057600080fd5b506040516105e83803806105e883398101604081905261002f91610112565b338061005557604051631e4fbdf760e01b81526000600482015260240160405180910390fd5b61005e816100a6565b50600180546001600160a01b03199081166001600160a01b03978816179091556002859055600394909455600480549094169290941691909117909155600555600655610161565b600080546001600160a01b038381166001600160a01b0319831681178455604051919092169283917f8be0079c531659141344cd1fd0a4f28419497f9722a3daafe3b4186f6b6457e09190a35050565b80516001600160a01b038116811461010d57600080fd5b919050565b600080600080600060a0868803121561012a57600080fd5b610133866100f6565b945060208601519350610148604087016100f6565b6060870151608090970151959894975095949392505050565b610478806101706000396000f3fe608060405234801561001057600080fd5b50600436106100c95760003560e01c80638da5cb5b11610081578063efef39a11161005b578063efef39a11461015e578063f2fde38b14610171578063fc0c546a1461018457600080fd5b80638da5cb5b14610131578063defd6c5f14610142578063e75722301461014b57600080fd5b80636d86acc4116100b25780636d86acc414610115578063715018a61461011e5780638324bb511461012857600080fd5b80633013ce29146100ce5780634385ec46146100fe575b600080fd5b6004546100e1906001600160a01b031681565b6040516001600160a01b0390911681526020015b60405180910390f35b61010760065481565b6040519081526020016100f5565b61010760025481565b610126610197565b005b61010760035481565b6000546001600160a01b03166100e1565b61010760055481565b610107610159366004610397565b6101ab565b61012661016c366004610397565b61021c565b61012661017f3660046103b0565b610292565b6001546100e1906001600160a01b031681565b61019f6102e9565b6101a9600061032f565b565b600080600554836101bc91906103f6565b9050600654816101cc919061040d565b15610216576006546040517f387c99e10000000000000000000000000000000000000000000000000000000081526004810191909152602481018290526044015b60405180910390fd5b92915050565b6102246102e9565b60035481111561026e576003546040517fcf47918100000000000000000000000000000000000000000000000000000000815260048101919091526024810182905260440161020d565b610277816101ab565b50806003600082825461028a919061042f565b909155505050565b61029a6102e9565b6001600160a01b0381166102dd576040517f1e4fbdf70000000000000000000000000000000000000000000000000000000081526000600482015260240161020d565b6102e68161032f565b50565b6000546001600160a01b031633146101a9576040517f118cdaa700000000000000000000000000000000000000000000000000000000815233600482015260240161020d565b600080546001600160a01b038381167fffffffffffffffffffffffff0000000000000000000000000000000000000000831681178455604051919092169283917f8be0079c531659141344cd1fd0a4f28419497f9722a3daafe3b4186f6b6457e09190a35050565b6000602082840312156103a957600080fd5b5035919050565b6000602082840312156103c257600080fd5b81356001600160a01b03811681146103d957600080fd5b9392505050565b634e487b7160e01b600052601160045260246000fd5b8082028115828204841417610216576102166103e0565b60008261042a57634e487b7160e01b600052601260045260246000fd5b500690565b81810381811115610216576102166103e056fea26469706673582212203d206243cae32e91a82fed5924d4cb057f4fa4539e108148b521fcb33d1957be64736f6c63430008140033a2646970667358221220a89a97b3d12864e370c9a84ea18a302f4dba9474fdbdc9b80792cf37b604d95b64736f6c63430008140033",
  "linkReferences": {},
  "deployedLinkReferences": {}
}