{
  "_format": "hh-sol-artifact-1",
  "contractName": "InvestorRegistry",
  "sourceName": "contracts/private/InvestorRegistry.sol",
  "abi": [
    {
      "inputs": [
        {
          "internalType": "address",
          "name": "initialOwner",
          "type": "address"
        }
      ],
      "stateMutability": "nonpayable",
      "type": "constructor"
    },
    {
      "inputs": [
        {
          "internalType": "address",
          "name": "owner",
          "type": "address"
        }
      ],
      "name": "OwnableInvalidOwner",
      "type": "error"
    },
    {
      "inputs": [
        {
          "internalType": "address",
          "name": "account",
          "type": "address"
        }
      ],
      "name": "OwnableUnauthorizedAccount",
      "type": "error"
    },
    {
      "anonymous": false,
      "inputs": [
        {
          "indexed": true,
          "internalType": "address",
          "name": "investor",
          "type": "address"
        }
      ],
      "name": "InvestorAdded",
      "type": "event"
    },
    {
      "anonymous": false,
      "inputs": [
        {
          "indexed": true,
          "internalType": "address",
          "name": "investor",
          "type": "address"
        }
      ],
      "name": "InvestorRemoved",
      "type": "event"
    },
    {
      "anonymous": false,
      "inputs": [
        {
          "indexed": true,
          "internalType": "address",
          "name": "previousOwner",
          "type": "address"
        },
        {
          "indexed": true,
          "internalType": "address",
          "name": "newOwner",
          "type": "address"
        }
      ],
      "name": "OwnershipTransferred",
      "type": "event"
    },
    {
      "inputs": [
        {
          "internalType": "address",
          "name": "addr",
          "type": "address"
        }
      ],
      "name": "addInvestor",
      "outputs": [],
      "stateMutability": "nonpayable",
      "type": "function"
    },
    {
      "inputs": [
        {
          "internalType": "address[]",
          "name": "addresses",
          "type": "address[]"
        }
      ],
      "name": "addInvestors",
      "outputs": [],
      "stateMutability": "nonpayable",
      "type": "function"
    },
    {
      "inputs": [
        {
          "internalType": "uint256",
          "name": "",
          "type": "uint256"
        }
      ],
      "name": "investors",
      "outputs": [
        {
          "internalType": "address",
          "name": "",
          "type": "address"
        }
      ],
      "stateMutability": "view",
      "type": "function"
    },
    {
      "inputs": [
        {
          "internalType": "address",
          "name": "addr",
          "type": "address"
        }
      ],
      "name": "isRegistered",
      "outputs": [
        {
          "internalType": "bool",
          "name": "",
          "type": "bool"
        }
      ],
      "stateMutability": "view",
      "type": "function"
    },
    {
      "inputs": [],
      "name": "listInvestors",
      "outputs": [
        {
          "internalType": "address[]",
          "name": "",
          "type": "address[]"
        }
      ],
      "stateMutability": "view",
      "type": "function"
    },
    {
      "inputs": [],
      "name": "owner",
      "outputs": [
        {
          "internalType": "address",
          "name": "",
          "type": "address"
        }
      ],
      "stateMutability": "view",
      "type": "function"
    },
    {
      "inputs": [
        {
          "internalType": "address",
          "name": "addr",
          "type": "address"
        }
      ],
      "name": "removeInvestor",
      "outputs": [],
      "stateMutability": "nonpayable",
      "type": "function"
    },
    {
      "inputs": [],
      "name": "renounceOwnership",
      "outputs": [],
      "stateMutability": "nonpayable",
      "type": "function"
    },
    {
      "inputs": [
        {
          "internalType": "address",
          "name": "newOwner",
          "type": "address"
        }
      ],
      "name": "transferOwnership",
      "outputs": [],
      "stateMutability": "nonpayable",
      "type": "function"
    }
  ],
  "bytecode": "0x608060405234801561001057600080fd5b506040516108a33803806108a383398101604081905261002f916100be565b806001600160a01b03811661005e57604051631e4fbdf760e01b81526000600482015260240160405180910390fd5b6100678161006e565b50506100ee565b600080546001600160a01b038381166001600160a01b0319831681178455604051919092169283917f8be0079c531659141344cd1fd0a4f28419497f9722a3daafe3b4186f6b6457e09190a35050565b6000602082840312156100d057600080fd5b81516001600160a01b03811681146100e757600080fd5b9392505050565b6107a6806100fd6000396000f3fe608060405234801561001057600080fd5b50600436106100a35760003560e01c8063715018a611610076578063c3c5a5471161005b578063c3c5a54714610132578063e641bde11461016d578063f2fde38b1461018057600080fd5b8063715018a6146101195780638da5cb5b1461012157600080fd5b806318898048146100a8578063277b7d43146100c65780633feb5f2b146100db5780634271497814610106575b600080fd5b6100b0610193565b6040516100bd91906105f1565b60405180910390f35b6100d96100d436600461063e565b610260565b005b6100ee6100e93660046106b3565b6102b4565b6040516001600160a01b0390911681526020016100bd565b6100d96101143660046106cc565b6102de565b6100d96103e3565b6000546001600160a01b03166100ee565b61015d6101403660046106cc565b6001600160a01b0316600090815260026020526040902054151590565b60405190151581526020016100bd565b6100d961017b3660046106cc565b6103f7565b6100d961018e3660046106cc565b6104f7565b60015460609060009067ffffffffffffffff8111156101b4576101b46106fc565b6040519080825280602002602001820160405280156101dd578160200160208202803683370190505b50905060005b60015481101561025a576001818154811061020057610200610712565b9060005260206000200160009054906101000a90046001600160a01b031682828151811061023057610230610712565b6001600160a01b0390921660209283029190910190910152806102528161073e565b9150506101e3565b50919050565b61026861054e565b60005b818110156102af5761029d83838381811061028857610288610712565b905060200201602081019061017b91906106cc565b806102a78161073e565b91505061026b565b505050565b600181815481106102c457600080fd5b6000918252602090912001546001600160a01b0316905081565b6102e661054e565b6001600160a01b038116600090815260026020526040812054908190036103545760405162461bcd60e51b815260206004820152601860248201527f496e766573746f7220616c72656164792072656d6f766564000000000000000060448201526064015b60405180910390fd5b6001600160a01b03821660009081526002602052604081205560016103798183610757565b8154811061038957610389610712565b60009182526020822001805473ffffffffffffffffffffffffffffffffffffffff191690556040516001600160a01b038416917fba0013628ccb89af5bb18edf764d3a7b35c07b894848b8e6fd3434719de39c7d91a25050565b6103eb61054e565b6103f56000610594565b565b6103ff61054e565b6001600160a01b038116600090815260026020526040902054156104655760405162461bcd60e51b815260206004820152601660248201527f496e766573746f7220616c726561647920616464656400000000000000000000604482015260640161034b565b6001805480820182557fb10e2d527612073b26eecdfd717e6a320cf44b4afac2b0732d9fcbe2b7fa0cf601805473ffffffffffffffffffffffffffffffffffffffff19166001600160a01b03841690811790915590546000828152600260205260408082209290925590517f62e6a5118be03f9bfedb79b0ed7ed75ee4a9e15fc4c69d2c4976acde26fa2d5f9190a250565b6104ff61054e565b6001600160a01b038116610542576040517f1e4fbdf70000000000000000000000000000000000000000000000000000000081526000600482015260240161034b565b61054b81610594565b50565b6000546001600160a01b031633146103f5576040517f118cdaa700000000000000000000000000000000000000000000000000000000815233600482015260240161034b565b600080546001600160a01b0383811673ffffffffffffffffffffffffffffffffffffffff19831681178455604051919092169283917f8be0079c531659141344cd1fd0a4f28419497f9722a3daafe3b4186f6b6457e09190a35050565b6020808252825182820181905260009190848201906040850190845b818110156106325783516001600160a01b03168352928401929184019160010161060d565b50909695505050505050565b6000806020838503121561065157600080fd5b823567ffffffffffffffff8082111561066957600080fd5b818501915085601f83011261067d57600080fd5b81358181111561068c57600080fd5b8660208260051b85010111156106a157600080fd5b60209290920196919550909350505050565b6000602082840312156106c557600080fd5b5035919050565b6000602082840312156106de57600080fd5b81356001600160a01b03811681146106f557600080fd5b9392505050565b634e487b7160e01b600052604160045260246000fd5b634e487b7160e01b600052603260045260246000fd5b634e487b7160e01b600052601160045260246000fd5b60006001820161075057610750610728565b5060010190565b8181038181111561076a5761076a610728565b9291505056fea26469706673582212209b0aee96cf42c23020f1f20cb8cfcc1ff6737933e03e3c50983e766520376cd564736f6c63430008140033",
  "linkReferences": {},
  "deployedLinkReferences": {}
}