{
  "_format": "hh-sol-artifact-1",
  "contractName": "PentePrivacyGroup",
  "sourceName": "contracts/domains/pente/PentePrivacyGroup.sol",
  "abi": [
    {
      "inputs": [],
      "stateMutability": "nonpayable",
      "type": "constructor"
    },
    {
      "inputs": [
        {
          "internalType": "address",
          "name": "target",
          "type": "address"
        }
      ],
      "name": "AddressEmptyCode",
      "type": "error"
    },
    {
      "inputs": [],
      "name": "ECDSAInvalidSignature",
      "type": "error"
    },
    {
      "inputs": [
        {
          "internalType": "uint256",
          "name": "length",
          "type": "uint256"
        }
      ],
      "name": "ECDSAInvalidSignatureLength",
      "type": "error"
    },
    {
      "inputs": [
        {
          "internalType": "bytes32",
          "name": "s",
          "type": "bytes32"
        }
      ],
      "name": "ECDSAInvalidSignatureS",
      "type": "error"
    },
    {
      "inputs": [
        {
          "internalType": "address",
          "name": "implementation",
          "type": "address"
        }
      ],
      "name": "ERC1967InvalidImplementation",
      "type": "error"
    },
    {
      "inputs": [],
      "name": "ERC1967NonPayable",
      "type": "error"
    },
    {
      "inputs": [],
      "name": "FailedInnerCall",
      "type": "error"
    },
    {
      "inputs": [],
      "name": "InvalidInitialization",
      "type": "error"
    },
    {
      "inputs": [],
      "name": "NotInitializing",
      "type": "error"
    },
    {
      "inputs": [
        {
          "internalType": "address",
          "name": "signer",
          "type": "address"
        }
      ],
      "name": "PenteDuplicateEndorser",
      "type": "error"
    },
    {
      "inputs": [
        {
          "internalType": "uint256",
          "name": "obtained",
          "type": "uint256"
        },
        {
          "internalType": "uint256",
          "name": "required",
          "type": "uint256"
        }
      ],
      "name": "PenteEndorsementThreshold",
      "type": "error"
    },
    {
      "inputs": [],
      "name": "PenteExternalCallsDisabled",
      "type": "error"
    },
    {
      "inputs": [
        {
          "internalType": "bytes32",
          "name": "input",
          "type": "bytes32"
        }
      ],
      "name": "PenteInputNotAvailable",
      "type": "error"
    },
    {
      "inputs": [
        {
          "internalType": "bytes32",
          "name": "txhash",
          "type": "bytes32"
        },
        {
          "internalType": "address",
          "name": "delegate",
          "type": "address"
        },
        {
          "internalType": "address",
          "name": "sender",
          "type": "address"
        }
      ],
      "name": "PenteInvalidDelegate",
      "type": "error"
    },
    {
      "inputs": [
        {
          "internalType": "address",
          "name": "signer",
          "type": "address"
        }
      ],
      "name": "PenteInvalidEndorser",
      "type": "error"
    },
    {
      "inputs": [
        {
          "internalType": "bytes32",
          "name": "output",
          "type": "bytes32"
        }
      ],
      "name": "PenteOutputAlreadyUnspent",
      "type": "error"
    },
    {
      "inputs": [
        {
          "internalType": "bytes32",
          "name": "read",
          "type": "bytes32"
        }
      ],
      "name": "PenteReadNotAvailable",
      "type": "error"
    },
    {
      "inputs": [
        {
          "internalType": "bytes4",
          "name": "configSelector",
          "type": "bytes4"
        }
      ],
      "name": "PenteUnsupportedConfigType",
      "type": "error"
    },
    {
      "inputs": [],
      "name": "PenteUpgradeNotPreauthorized",
      "type": "error"
    },
    {
      "inputs": [],
      "name": "UUPSUnauthorizedCallContext",
      "type": "error"
    },
    {
      "inputs": [
        {
          "internalType": "bytes32",
          "name": "slot",
          "type": "bytes32"
        }
      ],
      "name": "UUPSUnsupportedProxiableUUID",
      "type": "error"
    },
    {
      "anonymous": false,
      "inputs": [],
      "name": "EIP712DomainChanged",
      "type": "event"
    },
    {
      "anonymous": false,
      "inputs": [
        {
          "indexed": false,
          "internalType": "uint64",
          "name": "version",
          "type": "uint64"
        }
      ],
      "name": "Initialized",
      "type": "event"
    },
    {
      "anonymous": false,
      "inputs": [
        {
          "indexed": false,
          "internalType": "bytes32",
          "name": "txId",
          "type": "bytes32"
        },
        {
          "indexed": false,
          "internalType": "address",
          "name": "delegate",
          "type": "address"
        },
        {
          "indexed": false,
          "internalType": "bytes32",
          "name": "transitionHash",
          "type": "bytes32"
        }
      ],
      "name": "PenteApproved",
      "type": "event"
    },
    {
      "anonymous": false,
      "inputs": [
        {
          "indexed": false,
          "internalType": "bytes32",
          "name": "txId",
          "type": "bytes32"
        },
        {
          "indexed": false,
          "internalType": "bytes32[]",
          "name": "inputs",
          "type": "bytes32[]"
        },
        {
          "indexed": false,
          "internalType": "bytes32[]",
          "name": "reads",
          "type": "bytes32[]"
        },
        {
          "indexed": false,
          "internalType": "bytes32[]",
          "name": "outputs",
          "type": "bytes32[]"
        },
        {
          "indexed": false,
          "internalType": "bytes32[]",
          "name": "info",
          "type": "bytes32[]"
        }
      ],
      "name": "PenteTransition",
      "type": "event"
    },
    {
      "anonymous": false,
      "inputs": [
        {
          "indexed": true,
          "internalType": "address",
          "name": "implementation",
          "type": "address"
        }
      ],
      "name": "Upgraded",
      "type": "event"
    },
    {
      "inputs": [],
      "name": "PenteConfig_V0",
      "outputs": [
        {
          "internalType": "bytes4",
          "name": "",
          "type": "bytes4"
        }
      ],
      "stateMutability": "view",
      "type": "function"
    },
    {
      "inputs": [],
      "name": "UPGRADE_INTERFACE_VERSION",
      "outputs": [
        {
          "internalType": "string",
          "name": "",
          "type": "string"
        }
      ],
      "stateMutability": "view",
      "type": "function"
    },
    {
      "inputs": [
        {
          "internalType": "bytes32",
          "name": "txId",
          "type": "bytes32"
        },
        {
          "internalType": "address",
          "name": "delegate",
          "type": "address"
        },
        {
          "internalType": "bytes32",
          "name": "transitionHash",
          "type": "bytes32"
        },
        {
          "internalType": "bytes[]",
          "name": "signatures",
          "type": "bytes[]"
        }
      ],
      "name": "approveTransition",
      "outputs": [],
      "stateMutability": "nonpayable",
      "type": "function"
    },
    {
      "inputs": [],
      "name": "eip712Domain",
      "outputs": [
        {
          "internalType": "bytes1",
          "name": "fields",
          "type": "bytes1"
        },
        {
          "internalType": "string",
          "name": "name",
          "type": "string"
        },
        {
          "internalType": "string",
          "name": "version",
          "type": "string"
        },
        {
          "internalType": "uint256",
          "name": "chainId",
          "type": "uint256"
        },
        {
          "internalType": "address",
          "name": "verifyingContract",
          "type": "address"
        },
        {
          "internalType": "bytes32",
          "name": "salt",
          "type": "bytes32"
        },
        {
          "internalType": "uint256[]",
          "name": "extensions",
          "type": "uint256[]"
        }
      ],
      "stateMutability": "view",
      "type": "function"
    },
    {
      "inputs": [
        {
          "internalType": "bytes",
          "name": "config",
          "type": "bytes"
        }
      ],
      "name": "initialize",
      "outputs": [],
      "stateMutability": "nonpayable",
      "type": "function"
    },
    {
      "inputs": [
        {
          "internalType": "address",
          "name": "newImplementation",
          "type": "address"
        },
        {
          "internalType": "bytes[]",
          "name": "signatures",
          "type": "bytes[]"
        }
      ],
      "name": "preAuthorizeUpgrade",
      "outputs": [],
      "stateMutability": "nonpayable",
      "type": "function"
    },
    {
      "inputs": [],
      "name": "proxiableUUID",
      "outputs": [
        {
          "internalType": "bytes32",
          "name": "",
          "type": "bytes32"
        }
      ],
      "stateMutability": "view",
      "type": "function"
    },
    {
      "inputs": [
        {
          "internalType": "bytes32",
          "name": "txId",
          "type": "bytes32"
        },
        {
          "components": [
            {
              "internalType": "bytes32[]",
              "name": "inputs",
              "type": "bytes32[]"
            },
            {
              "internalType": "bytes32[]",
              "name": "reads",
              "type": "bytes32[]"
            },
            {
              "internalType": "bytes32[]",
              "name": "outputs",
              "type": "bytes32[]"
            },
            {
              "internalType": "bytes32[]",
              "name": "info",
              "type": "bytes32[]"
            }
          ],
          "internalType": "struct PentePrivacyGroup.States",
          "name": "states",
          "type": "tuple"
        },
        {
          "components": [
            {
              "internalType": "address",
              "name": "contractAddress",
              "type": "address"
            },
            {
              "internalType": "bytes",
              "name": "encodedCall",
              "type": "bytes"
            }
          ],
          "internalType": "struct PentePrivacyGroup.ExternalCall[]",
          "name": "externalCalls",
          "type": "tuple[]"
        },
        {
          "internalType": "bytes[]",
          "name": "signatures",
          "type": "bytes[]"
        }
      ],
      "name": "transition",
      "outputs": [],
      "stateMutability": "nonpayable",
      "type": "function"
    },
    {
      "inputs": [
        {
          "internalType": "bytes32",
          "name": "txId",
          "type": "bytes32"
        },
        {
          "components": [
            {
              "internalType": "bytes32[]",
              "name": "inputs",
              "type": "bytes32[]"
            },
            {
              "internalType": "bytes32[]",
              "name": "reads",
              "type": "bytes32[]"
            },
            {
              "internalType": "bytes32[]",
              "name": "outputs",
              "type": "bytes32[]"
            },
            {
              "internalType": "bytes32[]",
              "name": "info",
              "type": "bytes32[]"
            }
          ],
          "internalType": "struct PentePrivacyGroup.States",
          "name": "states",
          "type": "tuple"
        },
        {
          "components": [
            {
              "internalType": "address",
              "name": "contractAddress",
              "type": "address"
            },
            {
              "internalType": "bytes",
              "name": "encodedCall",
              "type": "bytes"
            }
          ],
          "internalType": "struct PentePrivacyGroup.ExternalCall[]",
          "name": "externalCalls",
          "type": "tuple[]"
        }
      ],
      "name": "transitionWithApproval",
      "outputs": [],
      "stateMutability": "nonpayable",
      "type": "function"
    },
    {
      "inputs": [
        {
          "internalType": "address",
          "name": "newImplementation",
          "type": "address"
        },
        {
          "internalType": "bytes",
          "name": "data",
          "type": "bytes"
        }
      ],
      "name": "upgradeToAndCall",
      "outputs": [],
      "stateMutability": "payable",
      "type": "function"
    }
  ],
  "bytecode": "0x60a0604052306080523480156200001557600080fd5b506200002062000026565b620000da565b7ff0c57e16840df040f15088dc2f81fe391c3923bec73e23a9662efc9c229c6a00805468010000000000000000900460ff1615620000775760405163f92ee8a960e01b815260040160405180910390fd5b80546001600160401b0390811614620000d75780546001600160401b0319166001600160401b0390811782556040519081527fc7f505b2f371ae2175ee4913f4499e1f2633a7b5936321eed1cdaeb6115181d29060200160405180910390a15b50565b60805161294e6200010460003960008181611130015281816111590152611320015261294e6000f3fe6080604052600436106100b15760003560e01c806377516f8c11610069578063ac3cd44f1161004e578063ac3cd44f1461019b578063ad3cb1cc146101e7578063d3e889ce1461023d57600080fd5b806377516f8c1461015357806384b0196e1461017357600080fd5b8063439fab911161009a578063439fab91146100f85780634f1ef2861461011857806352d1902d1461012b57600080fd5b80630a78b6c5146100b6578063223ce098146100d8575b600080fd5b3480156100c257600080fd5b506100d66100d1366004611ece565b61025d565b005b3480156100e457600080fd5b506100d66100f3366004611f39565b6102a8565b34801561010457600080fd5b506100d6610113366004611fd7565b6102d7565b6100d66101263660046120e8565b610593565b34801561013757600080fd5b506101406105b2565b6040519081526020015b60405180910390f35b34801561015f57600080fd5b506100d661016e36600461214a565b6105e1565b34801561017f57600080fd5b5061018861066a565b60405161014a9796959493929190612202565b3480156101a757600080fd5b506101ce7e0100000000000000000000000000000000000000000000000000000000000081565b6040516001600160e01b0319909116815260200161014a565b3480156101f357600080fd5b506102306040518060400160405280600581526020017f352e302e3000000000000000000000000000000000000000000000000000000081525081565b60405161014a91906122b4565b34801561024957600080fd5b506100d66102583660046122c7565b610766565b600061026884610802565b9050610275818484610872565b50506002805473ffffffffffffffffffffffffffffffffffffffff19166001600160a01b03939093169290921790915550565b60006102b5868686610b7b565b90506102c2818484610872565b6102ce87878787610d0e565b50505050505050565b7ff0c57e16840df040f15088dc2f81fe391c3923bec73e23a9662efc9c229c6a00805468010000000000000000810460ff16159067ffffffffffffffff166000811580156103225750825b905060008267ffffffffffffffff16600114801561033f5750303b155b90508115801561034d575080155b15610384576040517ff92ee8a900000000000000000000000000000000000000000000000000000000815260040160405180910390fd5b845467ffffffffffffffff1916600117855583156103b857845468ff00000000000000001916680100000000000000001785555b61042c6040518060400160405280600581526020017f70656e74650000000000000000000000000000000000000000000000000000008152506040518060400160405280600581526020017f302e302e31000000000000000000000000000000000000000000000000000000815250611113565b600061043b600482898b612337565b61044491612361565b90507fffff0000000000000000000000000000000000000000000000000000000000006001600160e01b03198216016104fc57600080806104888a6004818e612337565b8101906104959190612391565b60408051808201909152838152602080820184905260038581558451959950939750919550935090916104ce9160049190870190611ddf565b5050811590506104df5760016104e2565b60005b6005805460ff19169115159190911790555061053f915050565b6040517f1eb38a7c0000000000000000000000000000000000000000000000000000000081526001600160e01b0319821660048201526024015b60405180910390fd5b5083156102ce57845468ff000000000000000019168555604051600181527fc7f505b2f371ae2175ee4913f4499e1f2633a7b5936321eed1cdaeb6115181d29060200160405180910390a150505050505050565b61059b611125565b6105a4826111de565b6105ae8282611228565b5050565b60006105bc611315565b507f360894a13ba1a3210667c828492db98dca3e2076cc3735a920a3ca505d382bbc90565b6105ec838383610872565b600083815260016020908152604091829020805473ffffffffffffffffffffffffffffffffffffffff19166001600160a01b0388169081179091558251888152918201529081018490527fb9ae1f7c1a7315ba3a1ca3b57db9ff65646e18265c9b0e79e8423b0fd7c4839c9060600160405180910390a15050505050565b600060608082808083817fa16a46d94261c7517cc8ff89f61c0ce93598e3c849801011dee649a6a557d10080549091501580156106a957506001810154155b61070f576040517f08c379a000000000000000000000000000000000000000000000000000000000815260206004820152601560248201527f4549503731323a20556e696e697469616c697a656400000000000000000000006044820152606401610536565b61071761135e565b61071f611433565b604080516000808252602082019092527f0f000000000000000000000000000000000000000000000000000000000000009c939b5091995046985030975095509350915050565b6000610773848484610b7b565b6000818152600160205260409020549091506001600160a01b031633146107ef57600081815260016020526040908190205490517fa69a6005000000000000000000000000000000000000000000000000000000008152600481018390526001600160a01b039091166024820152336044820152606401610536565b6107fb85858585610d0e565b5050505050565b6000807f43c66ea365f48b9715a163ea21bbc96c68341d6bf224d1d6cb216b57b8c4ea398360405160200161084a9291909182526001600160a01b0316602082015260400190565b60405160208183030381529060405280519060200120905061086b81611484565b9392505050565b600060036001018054806020026020016040519081016040528092919081815260200182805480156108cd57602002820191906000526020600020905b81546001600160a01b031681526001909101906020018083116108af575b5050505050905060008383905067ffffffffffffffff8111156108f2576108f2612049565b60405190808252806020026020018201604052801561091b578160200160208202803683370190505b5090506000805b84811015610b2857600061098e888888858181106109425761094261248a565b905060200281019061095491906124a0565b8080601f0160208091040260200160405190810160405280939291908181526020018383808284376000920191909152506114d292505050565b905060005b83811015610a1c578481815181106109ad576109ad61248a565b60200260200101516001600160a01b0316826001600160a01b031603610a0a576040517f4f8d70160000000000000000000000000000000000000000000000000000000081526001600160a01b0383166004820152602401610536565b80610a14816124e7565b915050610993565b506000805b8651811015610a8f57868181518110610a3c57610a3c61248a565b60200260200101516001600160a01b0316836001600160a01b031603610a7d57868181518110610a6e57610a6e61248a565b60200260200101519150610a8f565b80610a87816124e7565b915050610a21565b506001600160a01b038116610adb576040517fb9cb6d180000000000000000000000000000000000000000000000000000000081526001600160a01b0383166004820152602401610536565b80858581518110610aee57610aee61248a565b6001600160a01b039092166020928302919091019091015283610b10816124e7565b94505050508080610b20906124e7565b915050610922565b50600354811015610b73576003546040517f71261549000000000000000000000000000000000000000000000000000000008152610536918391600401918252602082015260400190565b505050505050565b6000806040518060a00160405280606a8152602001612878606a91396040518060600160405280603781526020016128e260379139604051602001610bc192919061250e565b60408051601f198184030181529190528051602090910120610be3868061253d565b604051602001610bf4929190612587565b60405160208183030381529060405280519060200120868060200190610c1a919061253d565b604051602001610c2b929190612587565b60405160208183030381529060405280519060200120878060400190610c51919061253d565b604051602001610c62929190612587565b60408051601f198184030181529190528051602090910120610c8760608a018a61253d565b604051602001610c98929190612587565b60405160208183030381529060405280519060200120610cb889896114fc565b6040805160208101979097528601949094526060850192909252608084015260a083015260c082015260e001604051602081830303815290604052805190602001209050610d0581611484565b95945050505050565b60005b610d1b848061253d565b9050811015610e0857600080610d31868061253d565b84818110610d4157610d4161248a565b602090810292909201358352508101919091526040016000205460ff16610db857610d6c848061253d565b82818110610d7c57610d7c61248a565b905060200201356040517fa80f89f400000000000000000000000000000000000000000000000000000000815260040161053691815260200190565b600080610dc5868061253d565b84818110610dd557610dd561248a565b60209081029290920135835250810191909152604001600020805460ff1916905580610e00816124e7565b915050610d11565b5060005b610e19602085018561253d565b9050811015610ece57600080610e32602087018761253d565b84818110610e4257610e4261248a565b602090810292909201358352508101919091526040016000205460ff16610ebc57610e70602085018561253d565b82818110610e8057610e8061248a565b905060200201356040517fa7a3ace300000000000000000000000000000000000000000000000000000000815260040161053691815260200190565b80610ec6816124e7565b915050610e0c565b5060005b610edf604085018561253d565b9050811015610fe457600080610ef8604087018761253d565b84818110610f0857610f0861248a565b602090810292909201358352508101919091526040016000205460ff1615610f8357610f37604085018561253d565b82818110610f4757610f4761248a565b905060200201356040517ff6b3931c00000000000000000000000000000000000000000000000000000000815260040161053691815260200190565b6001600080610f95604088018861253d565b85818110610fa557610fa561248a565b90506020020135815260200190815260200160002060006101000a81548160ff0219169083151502179055508080610fdc906124e7565b915050610ed2565b507f156c14fb5e9a70b196a7d32f40d526ee002750cb79cc5be80567856f30aeab2284611011858061253d565b61101e602088018861253d565b61102b60408a018a61253d565b61103860608c018c61253d565b60405161104d99989796959493929190612614565b60405180910390a160005b818110156107fb576111018383838181106110755761107561248a565b9050602002810190611087919061267b565b61109590602081019061269b565b8484848181106110a7576110a761248a565b90506020028101906110b9919061267b565b6110c79060208101906124a0565b8080601f0160208091040260200160405190810160405280939291908181526020018383808284376000920191909152506116a792505050565b8061110b816124e7565b915050611058565b61111b61175a565b6105ae82826117c1565b306001600160a01b037f00000000000000000000000000000000000000000000000000000000000000001614806111be57507f00000000000000000000000000000000000000000000000000000000000000006001600160a01b03166111b27f360894a13ba1a3210667c828492db98dca3e2076cc3735a920a3ca505d382bbc546001600160a01b031690565b6001600160a01b031614155b156111dc5760405163703e46dd60e11b815260040160405180910390fd5b565b6002546001600160a01b03828116911614611225576040517fa5762b7f00000000000000000000000000000000000000000000000000000000815260040160405180910390fd5b50565b816001600160a01b03166352d1902d6040518163ffffffff1660e01b8152600401602060405180830381865afa925050508015611282575060408051601f3d908101601f1916820190925261127f918101906126b6565b60015b6112aa57604051634c9c8ce360e01b81526001600160a01b0383166004820152602401610536565b7f360894a13ba1a3210667c828492db98dca3e2076cc3735a920a3ca505d382bbc8114611306576040517faa1d49a400000000000000000000000000000000000000000000000000000000815260048101829052602401610536565b6113108383611834565b505050565b306001600160a01b037f000000000000000000000000000000000000000000000000000000000000000016146111dc5760405163703e46dd60e11b815260040160405180910390fd5b7fa16a46d94261c7517cc8ff89f61c0ce93598e3c849801011dee649a6a557d10280546060917fa16a46d94261c7517cc8ff89f61c0ce93598e3c849801011dee649a6a557d100916113af906126cf565b80601f01602080910402602001604051908101604052809291908181526020018280546113db906126cf565b80156114285780601f106113fd57610100808354040283529160200191611428565b820191906000526020600020905b81548152906001019060200180831161140b57829003601f168201915b505050505091505090565b7fa16a46d94261c7517cc8ff89f61c0ce93598e3c849801011dee649a6a557d10380546060917fa16a46d94261c7517cc8ff89f61c0ce93598e3c849801011dee649a6a557d100916113af906126cf565b60006114cc61149161188a565b836040517f19010000000000000000000000000000000000000000000000000000000000008152600281019290925260228201526042902090565b92915050565b6000806000806114e28686611899565b9250925092506114f282826118e6565b5090949350505050565b6000808267ffffffffffffffff81111561151857611518612049565b604051908082528060200260200182016040528015611541578160200160208202803683370190505b50905060005b83811015611676576040518060600160405280603781526020016128e2603791396040516020016115789190612703565b604051602081830303815290604052805190602001208585838181106115a0576115a061248a565b90506020028101906115b2919061267b565b6115c090602081019061269b565b8686848181106115d2576115d261248a565b90506020028101906115e4919061267b565b6115f29060208101906124a0565b604051611600929190612715565b6040519081900381206116319392916020019283526001600160a01b03919091166020830152604082015260600190565b604051602081830303815290604052805190602001208282815181106116595761165961248a565b60209081029190910101528061166e816124e7565b915050611547565b50806040516020016116889190612725565b6040516020818303038152906040528051906020012091505092915050565b60055460ff166116e3576040517f3802fedd00000000000000000000000000000000000000000000000000000000815260040160405180910390fd5b600080836001600160a01b0316836040516116fe9190612703565b6000604051808303816000865af19150503d806000811461173b576040519150601f19603f3d011682016040523d82523d6000602084013e611740565b606091505b509150915081611754578051602082018181fd5b50505050565b7ff0c57e16840df040f15088dc2f81fe391c3923bec73e23a9662efc9c229c6a005468010000000000000000900460ff166111dc576040517fd7e6bcf800000000000000000000000000000000000000000000000000000000815260040160405180910390fd5b6117c961175a565b7fa16a46d94261c7517cc8ff89f61c0ce93598e3c849801011dee649a6a557d1007fa16a46d94261c7517cc8ff89f61c0ce93598e3c849801011dee649a6a557d10261181584826127a1565b506003810161182483826127a1565b5060008082556001909101555050565b61183d826119ea565b6040516001600160a01b038316907fbc7cd75a20ee27fd9adebab32041f755214dbc6bffa90cc0225b39da2e5c2d3b90600090a2805115611882576113108282611a6e565b6105ae611adb565b6000611894611b13565b905090565b600080600083516041036118d35760208401516040850151606086015160001a6118c588828585611b87565b9550955095505050506118df565b50508151600091506002905b9250925092565b60008260038111156118fa576118fa612861565b03611903575050565b600182600381111561191757611917612861565b0361194e576040517ff645eedf00000000000000000000000000000000000000000000000000000000815260040160405180910390fd5b600282600381111561196257611962612861565b0361199c576040517ffce698f700000000000000000000000000000000000000000000000000000000815260048101829052602401610536565b60038260038111156119b0576119b0612861565b036105ae576040517fd78bce0c00000000000000000000000000000000000000000000000000000000815260048101829052602401610536565b806001600160a01b03163b600003611a2057604051634c9c8ce360e01b81526001600160a01b0382166004820152602401610536565b7f360894a13ba1a3210667c828492db98dca3e2076cc3735a920a3ca505d382bbc805473ffffffffffffffffffffffffffffffffffffffff19166001600160a01b0392909216919091179055565b6060600080846001600160a01b031684604051611a8b9190612703565b600060405180830381855af49150503d8060008114611ac6576040519150601f19603f3d011682016040523d82523d6000602084013e611acb565b606091505b5091509150610d05858383611c56565b34156111dc576040517fb398979f00000000000000000000000000000000000000000000000000000000815260040160405180910390fd5b60007f8b73c3c69bb8fe3d512ecc4cf759cc79239f7b179b0ffacaa9a75d522b39400f611b3e611ccb565b611b46611d47565b60408051602081019490945283019190915260608201524660808201523060a082015260c00160405160208183030381529060405280519060200120905090565b600080807f7fffffffffffffffffffffffffffffff5d576e7357a4501ddfe92f46681b20a0841115611bc25750600091506003905082611c4c565b604080516000808252602082018084528a905260ff891692820192909252606081018790526080810186905260019060a0016020604051602081039080840390855afa158015611c16573d6000803e3d6000fd5b5050604051601f1901519150506001600160a01b038116611c4257506000925060019150829050611c4c565b9250600091508190505b9450945094915050565b606082611c6b57611c6682611d9d565b61086b565b8151158015611c8257506001600160a01b0384163b155b15611cc4576040517f9996b3150000000000000000000000000000000000000000000000000000000081526001600160a01b0385166004820152602401610536565b508061086b565b60007fa16a46d94261c7517cc8ff89f61c0ce93598e3c849801011dee649a6a557d10081611cf761135e565b805190915015611d0f57805160209091012092915050565b81548015611d1e579392505050565b7fc5d2460186f7233c927e7db2dcc703c0e500b653ca82273b7bfad8045d85a470935050505090565b60007fa16a46d94261c7517cc8ff89f61c0ce93598e3c849801011dee649a6a557d10081611d73611433565b805190915015611d8b57805160209091012092915050565b60018201548015611d1e579392505050565b805115611dad5780518082602001fd5b6040517f1425ea4200000000000000000000000000000000000000000000000000000000815260040160405180910390fd5b828054828255906000526020600020908101928215611e41579160200282015b82811115611e41578251825473ffffffffffffffffffffffffffffffffffffffff19166001600160a01b03909116178255602090920191600190910190611dff565b50611e4d929150611e51565b5090565b5b80821115611e4d5760008155600101611e52565b80356001600160a01b0381168114611e7d57600080fd5b919050565b60008083601f840112611e9457600080fd5b50813567ffffffffffffffff811115611eac57600080fd5b6020830191508360208260051b8501011115611ec757600080fd5b9250929050565b600080600060408486031215611ee357600080fd5b611eec84611e66565b9250602084013567ffffffffffffffff811115611f0857600080fd5b611f1486828701611e82565b9497909650939450505050565b600060808284031215611f3357600080fd5b50919050565b60008060008060008060808789031215611f5257600080fd5b86359550602087013567ffffffffffffffff80821115611f7157600080fd5b611f7d8a838b01611f21565b96506040890135915080821115611f9357600080fd5b611f9f8a838b01611e82565b90965094506060890135915080821115611fb857600080fd5b50611fc589828a01611e82565b979a9699509497509295939492505050565b60008060208385031215611fea57600080fd5b823567ffffffffffffffff8082111561200257600080fd5b818501915085601f83011261201657600080fd5b81358181111561202557600080fd5b86602082850101111561203757600080fd5b60209290920196919550909350505050565b634e487b7160e01b600052604160045260246000fd5b604051601f8201601f1916810167ffffffffffffffff8111828210171561208857612088612049565b604052919050565b600067ffffffffffffffff8311156120aa576120aa612049565b6120bd601f8401601f191660200161205f565b90508281528383830111156120d157600080fd5b828260208301376000602084830101529392505050565b600080604083850312156120fb57600080fd5b61210483611e66565b9150602083013567ffffffffffffffff81111561212057600080fd5b8301601f8101851361213157600080fd5b61214085823560208401612090565b9150509250929050565b60008060008060006080868803121561216257600080fd5b8535945061217260208701611e66565b935060408601359250606086013567ffffffffffffffff81111561219557600080fd5b6121a188828901611e82565b969995985093965092949392505050565b60005b838110156121cd5781810151838201526020016121b5565b50506000910152565b600081518084526121ee8160208601602086016121b2565b601f01601f19169290920160200192915050565b7fff00000000000000000000000000000000000000000000000000000000000000881681526000602060e08184015261223e60e084018a6121d6565b8381036040850152612250818a6121d6565b606085018990526001600160a01b038816608086015260a0850187905284810360c0860152855180825283870192509083019060005b818110156122a257835183529284019291840191600101612286565b50909c9b505050505050505050505050565b60208152600061086b60208301846121d6565b600080600080606085870312156122dd57600080fd5b84359350602085013567ffffffffffffffff808211156122fc57600080fd5b61230888838901611f21565b9450604087013591508082111561231e57600080fd5b5061232b87828801611e82565b95989497509550505050565b6000808585111561234757600080fd5b8386111561235457600080fd5b5050820193919092039150565b6001600160e01b031981358181169160048510156123895780818660040360031b1b83161692505b505092915050565b600080600080608085870312156123a757600080fd5b843567ffffffffffffffff808211156123bf57600080fd5b818701915087601f8301126123d357600080fd5b60206123e3898435838601612090565b965080880135955060408801359250818311156123ff57600080fd5b828801925088601f84011261241357600080fd5b82358281111561242557612425612049565b8060051b925061243682840161205f565b818152928401820192828101908b85111561245057600080fd5b948301945b848610156124755761246686611e66565b82529483019490830190612455565b989b979a509798606001359750505050505050565b634e487b7160e01b600052603260045260246000fd5b6000808335601e198436030181126124b757600080fd5b83018035915067ffffffffffffffff8211156124d257600080fd5b602001915036819003821315611ec757600080fd5b60006001820161250757634e487b7160e01b600052601160045260246000fd5b5060010190565b600083516125208184602088016121b2565b8351908301906125348183602088016121b2565b01949350505050565b6000808335601e1984360301811261255457600080fd5b83018035915067ffffffffffffffff82111561256f57600080fd5b6020019150600581901b3603821315611ec757600080fd5b60007f07ffffffffffffffffffffffffffffffffffffffffffffffffffffffffffffff8311156125b657600080fd5b8260051b80858437919091019392505050565b81835260007f07ffffffffffffffffffffffffffffffffffffffffffffffffffffffffffffff8311156125fb57600080fd5b8260051b80836020870137939093016020019392505050565b89815260a06020820152600061262e60a083018a8c6125c9565b828103604084015261264181898b6125c9565b905082810360608401526126568187896125c9565b9050828103608084015261266b8185876125c9565b9c9b505050505050505050505050565b60008235603e1983360301811261269157600080fd5b9190910192915050565b6000602082840312156126ad57600080fd5b61086b82611e66565b6000602082840312156126c857600080fd5b5051919050565b600181811c908216806126e357607f821691505b602082108103611f3357634e487b7160e01b600052602260045260246000fd5b600082516126918184602087016121b2565b8183823760009101908152919050565b815160009082906020808601845b8381101561274f57815185529382019390820190600101612733565b50929695505050505050565b601f82111561131057600081815260208120601f850160051c810160208610156127825750805b601f850160051c820191505b81811015610b735782815560010161278e565b815167ffffffffffffffff8111156127bb576127bb612049565b6127cf816127c984546126cf565b8461275b565b602080601f83116001811461280457600084156127ec5750858301515b600019600386901b1c1916600185901b178555610b73565b600085815260208120601f198616915b8281101561283357888601518255948401946001909101908401612814565b50858210156128515787850151600019600388901b60f8161c191681555b5050505050600190811b01905550565b634e487b7160e01b600052602160045260246000fdfe5472616e736974696f6e28627974657333325b5d20696e707574732c627974657333325b5d2072656164732c627974657333325b5d206f7574707574732c627974657333325b5d20696e666f2c45787465726e616c43616c6c5b5d2065787465726e616c43616c6c732945787465726e616c43616c6c286164647265737320636f6e7472616374416464726573732c627974657320656e636f64656443616c6c29a26469706673582212201b7d509ddb9722990e0682d7930b68ee210f1b077f55d281259c08a709bec6a064736f6c63430008140033",
  "linkReferences": {},
  "deployedLinkReferences": {}
}